:040000006F00A05C91
:100004000000000000000000C8020000CA02000056
:1000140000000000C805000000000000000000000F
:10002400C8050000C8050000000000000000000032
:10003400C805000000000000C80500000000000022
:10004400C8050000C8050000C8050000C805000078
:10005400C8050000C8050000C8050000C805000068
:10006400C8050000C8050000C8050000C805000058
:10007400C8050000C8050000C8050000DC4E0000EB
:10008400C8050000C8050000C8050000C805000038
:100094006E550000C8050000C8050000C805000032
:1000A400C8050000DC4F0000C8050000C8050000BA
:1000B400C80500006E1C0000C8050000C80500004B
:1000C400C8050000C8050000C8050000C8050000F8
:1000D400C8050000FC4D0000444B0000C64A000067
:1000E40078510000C8050000C8050000C8050000DC
:1000F400C8050000C8050000C8050000C8050000C8
:1001040000000000C8050000C8050000C805000084
:10011400C8050000C8050000C8050000C8050000A7
:10012400C8050000C8050000C8050000C805000097
:10013400C8050000C8050000C8050000C805000087
:10014400C8050000C8050000C8050000C805000077
:10015400C8050000C8050000C8050000C805000067
:10016400C8050000C8050000C8050000C805000057
:10017400C8050000C8050000C8050000C805000047
:10018400C8050000C8050000C8050000C805000037
:10019400C8050000C8050000C8050000C805000027
:1001A400000000000000000000000000000000004B
:0C01B4000000000000000000000000003F
:1001C000397101436EC619A0397141536AC866CAB4
:1001D00062CC5ECE19A0397101535AD056D252D496
:1001E0004ED64AD826DA22DC06DE3301614082820E
:1001F00041114AC026C222C406C68282B24D4101C4
:10020000024D924C224CB24B4101024B924A224A7F
:10021000B2494101024992442244B24041018280E4
:100220003D432A876373C3029377F700BDEFADE5C3
:10023000937606FF3D8ABA960CC34CC30CC74CC7D5
:100240004107E36BD7FE11E28280B306C3408A0602
:100250009702000096966780A6002307B700A306C2
:10026000B7002306B700A305B7002305B700A30412
:10027000B7002304B700A303B7002303B700A3020A
:10028000B7002302B700A301B7002301B700A30002
:10029000B7002300B700828093F5F50F9396850091
:1002A000D58D93960501D58D61B79396270097025A
:1002B000000096968682E78086FA9680C1171D8F89
:1002C0003E96E374C3F8A5B701A0B707EFBE37E7C2
:1002D00000E0938707083CC701A0EFF27FF1752A81
:1002E0007164EF30C024EF309065EF303032130589
:1002F0000420EF30202DB707002083A5070837C55D
:1003000000001305C5D6EF80A03AEF007019AA854A
:1003100037C500001305C5D7EF80803913050420C9
:10032000EF40700CEF408069EF40101681451305D7
:10033000F00EEF40F052EF40D06E3735014085456A
:10034000130505C0EF10C00EEF40D0583705004030
:10035000854513050540EF10A00DEF40905EEF308E
:10036000D04FEF3090760147C14615469145014583
:10037000EF50400161651305056AEF30703EEF40B4
:10038000605437A5070013050512EF30703DEF40AC
:1003900060531305007DEF30801FEF10704F01A0F8
:1003A000B71702409843B706FFF0411113671700D3
:1003B00098C3D84337060200758FD8C39843B70651
:1003C000F7FEFD16758F98C39843B706FCFFFD1620
:1003D000758F98C3D843B70601FFFD16758FD8C334
:1003E0009843B70600ECFD16758F98C33707FF00DA
:1003F00098C723A6070202C402C69843C166558F58
:1004000098C3B716024005679C42F18F3EC6A247CB
:1004100085073EC4B24781E7A247E397E7FEB717D7
:1004200002409C431397E7006357070685473EC683
:1004300032478547631FF704B7170240D843B70612
:10044000C1FFFD16D8C3D843D8C3D84313670740AC
:10045000D8C3D843758FD8C3D843B7062900558F62
:10046000D8C39843B7060001558F98C39843931695
:100470006700E3DD06FED843B7160240719BD8C380
:10048000D84313672700D8C32147DC42B18BE39ED2
:10049000E7FE4101828002C661BFB7160240D84222
:1004A000B70700201146318B938707086305C70003
:1004B00021466308C70237177A001307072098C33D
:1004C00037170240584311839376F700370700200F
:1004D000130707003697142398433357D70098C360
:1004E0008280D842D442416649833D8BF18E130607
:1004F000270015CF3D47630FE6024147630FE60231
:10050000454781456313E6004146A1E23747024073
:1005100003270780418B0DC737177A001307072081
:100520003306C70290C3C9DD9843058349BF81459F
:100530004946E1BF85453546C9BF81453D46F1B7CE
:1005400037173D0013070790E1BF37150240585594
:100550009316F700585563DF060411833D8B93060D
:10056000170037177A00130707203357D70298C3AD
:100570005455A182BD8A8DE295463307D702058383
:1005800098C337170240585794433D8B050733D71C
:10059000E60298C3984369B705456394A600E5460B
:1005A000E9BF3D456396A600D1463387E602C9BF41
:1005B0008906E5BF3D8B9306170037177A001307AE
:1005C00007203357D702F1B701A09701002093818C
:1005D000612B178100201301E1A217D5000013053C
:1005E000E589970500209385E5A11386018763FAC5
:1005F000C5008322050023A0550011059105E3EAFB
:10060000C5FE13850187938501086377B500232014
:1006100005001105E36DB5FEFD42739002BCAD42CD
:1006200073904280B7620000938282087390023018
:10063000970200009382429D93E232007390523001
:10064000EFF01FD697020000938262C973901234B4
:1006500073002030B767004003A70760F1769386E8
:10066000160F1367170023A0E76003A70760220592
:10067000758F23A0E76003A70760598D23A0A760AB
:1006800003A70760799B23A0E7608280EFF25FB643
:100690002A842E89312511813D8971158D4763EC9E
:1006A000A716B7670040938707406312F404B71793
:1006B0000240984BB7060002558F98CB984BB7066F
:1006C00000FEFD16758F98CB1C40F59B1CC01C408E
:1006D00093E717001CC0C1675840058B19E3FD174D
:1006E000E5FF5C4013F7170005E7014525B6B7772E
:1006F000004093870780E319F4FCB7170240984B3A
:10070000B7060004558F98CB984BB70600FC55BF31
:10071000371602405442B707002083A70708A1827A
:10072000918A81CA5842218393763700094733174B
:10073000D700B3D7E70237173D0013070790B3D7A9
:10074000E702370710C1FD17D98F5CCC1C40F99B1D
:100750001CC0C1675840058B19C3FD17E5FF5C40FD
:10076000858BC1F7B764004083A7C460054593E754
:10077000370023A6F46023A0046423A2046423A406
:10078000046423A6046483A7C46193E7370023AEFF
:10079000F46083A70460F99B23A0F460653D938710
:1007A00004406313F41483A704583767004093E7A9
:1007B000370023A0F4588327C7408D8BEDDF9307C4
:1007C00080032326F740B7170240984BB706000274
:1007D000558F98CB984BB70600FEFD16758F98CBBA
:1007E000B767004003A7076005451367170023A0FC
:1007F000E76003A7C7601367370023A6E76003A776
:10080000C7611367370023AEE76003A70760799BD2
:1008100023A0E76081351C40F59B1CC01C4093E77A
:1008200017001CC0C1675840058B19E3FD17E5FF91
:100830005C40858BE38B07EA0327890085476316B5
:10084000F70E1C4093E707080327C9001CC0854723
:100850006311F70E1C4093E70704032709011CC02E
:100860008547631CF70C1C4093E7070203274901E7
:100870001CC085476317F70C1C4093E7070103274B
:1008800089011CC085476311F70C1C4093E7870062
:100890000327C9011CC08547631BF70A1C4093E767
:1008A00047001CC08347290003473900FA07620745
:1008B000D98F034749004207D98F03475900520790
:1008C000D98F035709007D17D98F5CCC1C40F99B49
:1008D0001CC0C1675840058B19C3FD17E5FF484090
:1008E0001345F5FF058919B5B777004013870780D1
:1008F000E318E4EE03A707981367370023A0E798EF
:10090000377700408327C7808D8BEDDF9307800307
:100910002326F780B7170240984BB7060004558F7F
:1009200098CB984BB70600FC4DBD1C4093F7F7F7EA
:1009300021BF1C4093F7F7FB0DB71C4093F7F7FD61
:1009400035B71C40BD9B25BF1C40DD9B91B71C40AB
:10095000ED9B81BF1C4513975700634E07081C454C
:1009600013974700634B07081C45914613973700C0
:1009700063510708894693974600AA9703A707186B
:10098000058B23A0E7189025883535EA984103A602
:1009900007185607498F518F23A0E718B8253D8BBC
:1009A000B8A503A64718419A23A2C71803A647185B
:1009B000518F23A2E718D025B8352206598ED83595
:1009C0004207598EF8256207518F23A4E718902912
:1009D000F8352206598E98394207598EB829620790
:1009E000518F23A6E71803A707181367170023A042
:1009F000E718368582808146BDBF8546ADBFD841A8
:100A000003A807180E07498F518F3367070169B78D
:100A100085476389F50291C58947638BF5020945CE
:100A200082801C45370500040D0537070004E98F57
:100A30000D070545638EE7026360F70213B51700E3
:100A4000060582801C453705000813050530F1BFF7
:100A50001C4537050310D1BF3707000813070730BF
:100A600005456387E70037050310898F13B5170025
:100A7000828093974500AA9703A7071B118B18A69E
:100A80002DE703A7071B558318C203A7071B098B74
:100A900018B603A7471B3D8B38A603A7471B218326
:100AA00038BA03A7871B38B603A7871B218358A62C
:100AB00003A7871B418358B603A7871B618378A6CA
:100AC00003A7C71B78B603A7C71B218318AA03A7D0
:100AD000C71B418318BA83A7C71BE1833CAA99E9C6
:100AE0005C4593E707025CC5828003A7071B0D8363
:100AF00058C261BF1C4993E707021CC9828091E577
:100B00005C4593E707025CC582801C4993E70702B6
:100B10001CC9828089E55C458D8B3E8582800547B6
:100B20008147E39CE5FE1C49C5BF5C4901C6DD8DDC
:100B30004CC9828093C5F5FFFD8DDDBF5C49ED8F0B
:100B400095C3930700046383F50A63ECB7029147EA
:100B50006386F50863EAB70085476386F50689472B
:100B6000638BF50601458280C147638DF5069307C7
:100B70000002638BF506A147E396F5FE4845118117
:100B800085A093870580BDCF85679387078063E045
:100B9000B702930700206381F50693070040638046
:100BA000F50693070010E39FF5FA084D15A8C167F5
:100BB0006380F504B7070200638EF502A167E39333
:100BC000F5FA484135A80845C167938717107D8D10
:100BD0003335A000828048450D89DDBF48450D8131
:100BE000058982800849CDBF0849D5BF084941BF62
:100BF0004841F5B7484161B7084D0581D5B7084D63
:100C00000981F9BF084D13750507D9B7930700107F
:100C10006386F50663E7B702A1476388F50663E9D3
:100C2000B7000547638EE50411476381E5068280BE
:100C300013070002638FE50493070004638AF50439
:100C40008280938705808DCB85679387078063EBD0
:100C5000B700930700206383F50293070040638F7A
:100C6000F5008280C1676388F502B70702006387D9
:100C7000F502A1676393F502232C0500914729A88B
:100C8000C167938717101CC58280C1475CC58280ED
:100C9000C1471CC98280A1475CC18280C147EDBFAA
:100CA000B7F7FF1F03A5477082801C414167791782
:100CB000F98F1CC1232005002322050023240500F1
:100CC000B707024023260500138787006317E50056
:100CD000D8431367F700D8C382801387C701631610
:100CE000E500D8431367070FFDB7138707036318A1
:100CF000E500D8438566938606F0558FE9BF1387D4
:100D000047046315E500D843BD66C5BF1387870553
:100D10006316E500D843B7060F00C5B71387C706AB
:100D20006316E500D843B706F000C1BF1387070874
:100D30006316E500D843B706000FC1B71387874095
:100D40006319E50003A747401367F70023A2E740B4
:100D500082801387C7416317E50003A747401367E5
:100D6000070FEDB793870743631BF500B7070240F2
:100D700003A747408566938606F0558FC1BFB70726
:100D80000240138747446316E50003A74740BD664A
:100D9000EDB7138787456317E50003A74740B706FC
:100DA0000F00E1BF1387C7466317E50003A747405D
:100DB000B706F000D9B7138707486317E50003A704
:100DC0004740B706000F55BF138707496319E50071
:100DD00003A7474D1367F70023AAE74C82801387C8
:100DE000074A6317E50003A7474D1367070FEDB7E1
:100DF0001387074B6319E50003A7474D8566938664
:100E000006F0558FD1BF1387074CE319E5FC03A704
:100E1000474DBD66FDB71C4161773D0794517D8FFD
:100E20009C45D58F9449D58FD449D58F944DD58F76
:100E3000D44DD58FD451D58F9455D58FD98F1CC112
:100E4000DC455CC19C411CC5DC415CC582801C4109
:100E500089C593E717001CC1828041677917F98F14
:100E6000DDBF1C4101C6DD8D0CC1828093C5F5FF3D
:100E7000FD8DDDBF4CC182809317350063D707001D
:100E8000B707024023A2A74082809317250063D7AB
:100E90000700B707024023AAA74C8280B707024089
:100EA000C8C38280EFF2CFB4C13F6FF0AFB65841F4
:100EB000032805004C4537060140930706403E973E
:100EC0009346F8FFB1C583250640F58D2320B64033
:100ED000D043F18ED4C31443B3E6060114C31841C2
:100EE00090479346F7FF758E90C7D047F18ED4C7D1
:100EF000144541466399C6009447D98E94C7D44798
:100F0000558FD8C78280B6979443558F98C38280F7
:100F10001C43F58F1CC38280B7070140138707402D
:100F200083A70740584B698F09C77D8D3335A000D3
:100F3000828001458280B707014023AAA7408280B2
:100F40009C4513F7070113F8F70001C7D841336830
:100F5000E8008E2113F7F50F39C318418146854EFD
:100F60003D4F930F800293028004214E3396DE00A2
:100F7000B3F8C500631116039398260033131F01BD
:100F80001343F3FF3377E300B318180133E7E800A6
:100F9000639FF70550C98506E39AC6FD18C113077C
:100FA000F00F6375B70454412146854E3D4F930FB2
:100FB000800293028004414EB398CE0033F71501AE
:100FC0006392E8021317260001173313EF0013434F
:100FD000F3FFB376D3003317E800D98E639DF70192
:100FE000232A15010506E319C6FD54C18280E39446
:100FF00057FA10C94DB7E39757FE23281501DDB7FF
:1010000008456D8D3335A000828019C20CC98280DD
:101010004CC98280B7070140635A0504DC4F9356E0
:101020000501131805013707300013F6F6001358B1
:101030000801B376E50063500506639BE60293065C
:1010400006010D46B316D60093C6F6FFF58F99C973
:10105000135755011377F73F12073317E800D98F5D
:1010600063570504370701405CCF8280DC4345BFEE
:101070001317B500635607008D46B396C600E9B74F
:10108000135755011377F73F12073317E80013473B
:10109000F7FFF98F6DBF6390E602370601405442B7
:1010A000370700F17D17F98F758F58C2D5F13707D3
:1010B00001405CC382801317B500635C07008D4656
:1010C000B396C60093C6F6FFFD8EB707000FD58F07
:1010D000F1BF1357550112073317E8001347F7FF05
:1010E0007D8FB707000FD98FD1B713F7C50F93F7CF
:1010F0003500B7050140BA9594458A073D47331737
:10110000F7001347F7FF758F98C598453315F5001D
:10111000598D88C5828003A70187894710216311F3
:10112000F70214318D4763EDD7003C219A0637E76B
:1011300000E09607D58F93F7F70F32972300F7401B
:1011400054410547935756003317C70089CA938700
:1011500007048A07B7E600E0B69798C382809387B2
:101160000706B7E600E08A07B69798C30F1000009D
:101170008280371702405C439146B18B6385D7006C
:10118000A1466382D706B7177A00938707201CC150
:10119000371602405C42370700201307070191838E
:1011A000BD8BBA9794231C41B3D7D7005CC154427E
:1011B000A1829D8ABA969422B3D6D70014C5544210
:1011C000AD829D8A36971823B3D7E7005CC5584295
:1011D0003983937637001387418036971823B3D726
:1011E000E7021CC982805C435843C166C983758F7E
:1011F000B7F6FF1F83A6C670BD8B8907139616012D
:1012000063480600C54601466392D702C94739A81C
:101210008946638FD702BD46638ED702C146638E6F
:10122000D702C54601466393D700C1471DEF374734
:10123000024003270780418B05C737177A00130741
:101240000720B307F7021CC121D61C41858381B753
:1012500001466DBF0546B547D1BF0146BD47F9B749
:1012600037173D0013070790E9BFB7150240D8555F
:101270009316F700D85563DF060411833D8B930660
:10128000170037177A00130707203357D70218C102
:10129000D455A182BD8A8DE295463307D7020583D6
:1012A00018C137170240585714413D8B050733D7F3
:1012B000E60218C1184171B785456394B600E5464A
:1012C000E9BFBD456396B600D1463387E602C9BF84
:1012D0008906E5BF3D8B9306170037177A00130781
:1012E00007203357D702F1B799C5371702405C4B37
:1012F0005D8D48CB8280B7170240D84B1345F5FF70
:10130000798DC8CB828099C5371702401C4F5D8DFF
:1013100008CF8280B7170240984F1345F5FF798DAB
:1013200088CF828099C5371702405C4F5D8D48CFCA
:101330008280B7170240D84F1345F5FF798DC8CF8B
:10134000828037F7FF1F032747701E2191461183C4
:101350003D8BC2077117C18363E6E6023737014050
:10136000930607C0630ED50013070740630AE50024
:1013700037570140930607C06304D500631AE500A0
:101380000967D98F37370140130707C06302E504A7
:1013900037070040630EE50213070740630AE502C2
:1013A00037170040930607806304D502130707C070
:1013B0006300E5023737014013070740630AE50081
:1013C00037570140930607C06304D5006318E50052
:1013D00093F7F7F8BA21C207C183D98F37170040B6
:1013E000630CE500130707406308E50093F7F7CFA8
:1013F000FA21C207C183D98F1EA1DE215EB59E21CD
:101400001EB5B7370140138707C0630EE500938709
:101410000740630AF500B7570140138707C063040C
:10142000E5006314F5009C251EB985475EA98280FE
:101430001E2189C593E717001EA18280C207C183C0
:10144000F99BC207C183CDBF5E2501C6DD8D4EA5C8
:10145000828093C5F5FFFD8DDDBF1E25C207C183C8
:10146000E19BC207C1831EA582801E294A25ED8FFC
:101470004205418189C76D8D3335A00082800145C9
:10148000828093C5F5FFC205C1810EA98280EFE27B
:101490003FD61629F577FD17F58FF621DA257971F4
:1014A000D58F1EA95625FD779387379FF58FD621B7
:1014B0002A842EC6D58F9625D58FB625D58F5EA5C5
:1014C0005E29C207C18393F7F7CFD98F5EA9680859
:1014D0004D31B747014093870780B245631EF40240
:1014E000A2576547B387E7029841930640060A076B
:1014F000B3D7E70233D7D702B3F7D7021207920761
:1015000093872703B3D7D702BD8BD98FC207C18377
:101510001EA445616FE01FD09257E1B791C55E25CB
:101520000967D98F5EA582805A25F977FD17F98F53
:10153000D5BF13F7F50F85471583B395B70063192A
:10154000F7009307C500984301CED98D8CC38280E4
:10155000894693074501E318D7FE93070501E5B7D0
:1015600093C5F5FFF98DDDB75E2901C6DD8D4EA966
:10157000828093C5F5FFFD8DDDBF93F5F51F4EA16C
:1015800082804A211375F51F82800A216D8D3335C3
:10159000A000828013F7F50F85461583B397B60038
:1015A0006311D7025A25F98F1A2101454207418359
:1015B00081CB0545A181B315B5006D8F3335E000B2
:1015C000828089466314D7001A29F1BF5A29E1BFE6
:1015D000EFE21FC207A5418E3971EFA0C01F07A51A
:1015E000018E2ADC2EDEEFA0001F07A5C18D2AD8B0
:1015F0002EDAEFA0401E2ED607A581892AD4EFA0AF
:10160000801D2ECA07A5C18E2AC8EFA0C01C2EC6F9
:1016100007A5818E2AC4EFA0001C6258F2584257D9
:10162000D2572256B2562AC037C500002EC2130523
:1016300085EAEF70E00721616FE0DFBDEFE25FBB9D
:101640005D712E89B165238CA18A2A8451469385C8
:1016500085D16818EFA0E05F9C080A043E948325BA
:10166000C4FE37C500001305C526EF70600483C7AC
:10167000518B6374F91293070003B307F902938443
:101680000198D30700F013840198BE94D864D3273F
:10169000F7A0A9C79868D327F7A0A9C3D868D3270C
:1016A000F7A08DCF986CD327F7A08DCBD86CD3271C
:1016B000F7A08DC79064CC608860EF20600887A792
:1016C000C18DDCE487A7018E9CE887A7418EDCE80A
:1016D00087A7818E9CEC87A7C18EDCEC9307000363
:1016E000B307F90205453E94B7C700005C6407A53F
:1016F00087265375F508EF20D05F08680945EF305D
:10170000002248680D45EF308021086C1545EF2018
:10171000505E486C1945EF20D05D0864EFA0A00B27
:1017200048602AD02ED2EFA0000B08602ACC2ECE23
:10173000EFA0600A025892586247F2472A8637C5DE
:101740000000AE861305852993051900EF605076D9
:101750004868EFA0400808682AD42ED6EFA0A0075A
:1017600048642AD02ED2EFA00007486C2ACC2ECE97
:10177000EFA060062AC42EC6086CEFA0C005225850
:10178000B258025792576246F2462AC037C5000047
:101790002EC21305052CEF60B071054737C5000058
:1017A000A38BE18A99451305852F238B018AEF606E
:1017B000307061616FE01FA6B7C7000087A787E898
:1017C000BE865387F5A011C7D30500F05385B52019
:1017D0008280B7C7000087A707E9D387B7A0EDF7D6
:1017E000D387A7A0F5F3D30700F0D307F5A0E9FF4F
:1017F00093870181984309C727A2B18A23A00700D4
:10180000D377B508B7C7000007A747E9D3A7F720E4
:10181000D387E7A0D5FB87A7418AB7C7000007A7F2
:1018200087E9D377F5081387418AD3A7F720D397A1
:10183000E7A0D9FBD3F5A50887A786E8D397B7A07B
:1018400081EBB7C7000087A7C7E8D397F5A099C376
:10185000D385F72008E39DBFEFE2FF97133715000C
:10186000A38AE1809307F5FF93B71700138B118BC1
:101870002300FB009307E5FF93B71700938A918C31
:10188000138A218B411123800A002300FA009389D7
:10189000A18C9307D5FFB16593B717002A842380E5
:1018A000090041469385C5D29384B18C1389318B4D
:1018B0000A852300F90023800400EFA080391C086A
:1018C0000A043E94832504FF37C5000013058536BE
:1018D000EF60105E83C7018C81CB83C7518B81CBB6
:1018E00083C5D1890545993B41016FE01F9283472C
:1018F0000B002380FA0083470A002380F900834706
:1019000009009CA0D5B7B7C700001C6107A7C7E9AD
:10191000D397E7A099C318E101A8B7C7000007A7AC
:1019200007EAD317F7A0E5FBB7C700009C6107A73C
:1019300087E85397E7A019C398E101A837C70000CB
:10194000072747EA5317F7A065FB1C6207A787E83C
:10195000D397E7A099C318E201A8B7C7000007A76B
:1019600007E9D317F7A0E5FB8280B7C7000087A778
:10197000C7E90145D307F5A0A9E3B7C7000087A7CA
:1019800007EAD387A7A095EBB7C7000087A787E82A
:10199000D387F5A09DE3B7C7000007A747EAD307A1
:1019A000B7A081EFD307F6A089EBB7C7000087A7E0
:1019B00007E95385C7A0134515008280EFE25F83D6
:1019C0006D379387418B982309ED11EB054798A359
:1019D0009387C1809423A386D180154798A36FE095
:1019E0007F8375DF2380070003C7D1802386E180D2
:1019F000FDB7EFE2EFFFB7C7000087A707265375D3
:101A0000F510EF30D052B7C7000087A787E9B7C7F6
:101A1000000053F5A70887A747265375F5106FE018
:101A20006FFFEFE2EFFC9384C1809C2011470545D6
:101A30006386E70019476397E7000145EF20407E82
:101A40006FE04FFD93868187984213848187130747
:101A5000470698C29306401F631DD70095EBEF2001
:101A6000C063130620039305200313052003EF2012
:101A7000C06A18409307803EE314F7FC232004005B
:101A8000EF20A061014681450145EF2000694DBF6F
:101A900005476399E700EF20406001469305200366
:101AA0000145F1B70D47639AE700EF20005F01465B
:101AB000930580021305C0035DBF15476397E700D8
:101AC000EF20A05D01468145F5B71D47E39AE7F693
:101AD000EF20A05C1306C00381450145EF20E063C1
:101AE0001387018A1C238946850793F7F70F63E460
:101AF000F6001CA3BDBF83C7D180230007009CA0B4
:101B00008DBFEFE2EFEE1386418183C74187142238
:101B100013844187138701896383F6089386818044
:101B20008C42B5CD232007001CA223A0060021472C
:101B30006362F70231678A071307C7D8BA979C43D5
:101B40000146828737150140930500101305058073
:101B5000EFF0AFCB1C200547E91793F7F70F63644D
:101B6000F700FD571CA06FE0EFEA93050020371542
:101B70000140F9BF93050010DDBF93050008C5BF04
:101B800093050004EDB7A16537150140130505C0A5
:101B9000C1B79165D5BF8965C5BF8565F5B71043E8
:101BA0008566938576BB63E6C5001306460610C3BB
:101BB0005DBF938586BBE318B6FA9386C6C114C38E
:101BC000054723A4E1806397E70083C75181C9C318
:101BD00091471CA037140140130504800546930566
:101BE0000010EFF08FC20546930500203715014025
:101BF000EFF0AFC105469305001037150140EFF037
:101C0000CFC005469305000837150140EFF0EFBF40
:101C100005469305000437150140EFF00FBF13058B
:101C200004C00546A165EFF04FBE130504C005468C
:101C30009165EFF08FBD130504C005468965EFF08F
:101C4000CFBC05468565130504C0EFF00FBC21BF6E
:101C500083C7218B99C38D47ADBF83C7318B99C390
:101C6000894785BF83C7118BB5D795479DB7370582
:101C700000401D71854513050540A2CE82E686E42D
:101C80008AE28EE012FE16FC1AFA1EF82AF62EF4EC
:101C900032F236F03AEE3EEC42EA46E872E676E49C
:101CA0007AE27EE0EFF06FFC630805129387418CC7
:101CB0009843930630061307470698C363F7E60078
:101CC00085462384D18C23A007001387F1891C2328
:101CD000B1C793870188944337E603001306F6855E
:101CE0009386460694C3637BD6020546930500029D
:101CF000371501402300070023A0070037140140D7
:101D0000EFF0AFB005468945130504C0EFF0EFAF23
:101D100001468545130504C0EFF02FAF1933D533C5
:101D200003C7918C9387C1871377F70F6304070E5E
:101D300098439306B02B1307470663E7E60C98C356
:101D400003C7A18C938741881377F70F630D070CA6
:101D500098439306F04A1307470663E0E60C98C3DE
:101D600003C7B18C9387C1881377F70F71C7984366
:101D70009306B0121307470663EAE60A98C303C73F
:101D8000718B938781881377F70F61C398438566BA
:101D90009386F6761307470663E3E60A98C383C77C
:101DA000018C85C783C7E1898DE383C7518B91CFB0
:101DB00083C7D189130700033387E702938701980C
:101DC000BA9798531307470698D3370500408545BF
:101DD00013050540EFF0EFEA76443660A660166121
:101DE00086617272E2725273C2733275A275127694
:101DF00082767267E2675268C268326EA26E126FB4
:101E0000826F25617300203023A007000547238ED1
:101E1000E1883DB723A0070025B723A007000547A9
:101E20002388E18A35BF23A007001DBF23A0070038
:101E300005472388E18CA1B723A0070089B723A019
:101E400007000547238BE18A99BF23A0070081BFC4
:101E5000EFE20FBA4111B7C700004EE087A9C7E80B
:101E6000094522E65385392126E44AE2EF20302B4A
:101E7000B7C7000007A907E40D4553052921EF2046
:101E8000102A530500F01145EF20A066B7C70000E7
:101E900087A447E4154553859420EF208065B7C794
:101EA000000007A487E4194553058420EF206064EF
:101EB000530500F00545EF20C06337C5000013054A
:101EC000C5E4EF60D00323AE018C27A0318F27A299
:101ED000218F27A4918E27A6818EEFF06FEF3264B9
:101EE000A2641269826941016FE0CFB2EFE24FB0A4
:101EF000411122E626E44AE2EF20D01CB7C70000D9
:101F000007A947E7094553052921EF205021B7C705
:101F1000000087A487E70D4553859420EF203020EB
:101F2000530500F01145EF20C05C530500F0154546
:101F3000EF20205CB7C7000007A48726194553058A
:101F40008420EF20005B530500F00545EF20605A28
:101F500037C500001305C5E7EF60607A23AE018C3A
:101F600027A0218F27A2918E23A4018E27A6818EE0
:101F7000EFF00FE63264A264126941016FE08FA9AD
:101F8000938681819C42372709001307F77B63669C
:101F9000F704EFE2EFA5BD65938505A63387B7008B
:101FA00003C5518B98C29387019881469387070395
:101FB000631CD500B355B70237C500001305C5E54E
:101FC000EF60006F6FE00FA503A647FF850693F64D
:101FD000F60F2E9623AAC7FED1BF828093878181F8
:101FE0008C4375671307074C6378B704EFE24FA083
:101FF00045741304045AA2958CC3BD67938707A642
:10200000B3D5F50237C500001305C5E5EF60406A9A
:1020100003C6518B93870198014793870703631485
:10202000C7006FE02F9F83A647FF05071377F70FC1
:10203000A29623AAD7FED5B782801387818AB7C715
:102040000000186387A747E99387C18ACB77F750C9
:102050009463B7C600005377E50808E3D3F7D700C9
:1020600087A6C6E3B7C6000007A64626D376D510D6
:102070009386C18B88E34377C768D30600F0C3F724
:10208000D7709862D3F7E7009CE25385F7208280EF
:10209000EFE20F937571B7C70000D2FE07AA87EE73
:1020A000B7C700004EE187A907EA99472386F18068
:1020B00022E726E54AE3D6FCDAFADEF8E2F6E6F4B1
:1020C000EAF2EEF082C2D2E4CEE6EF10705983A5B8
:1020D0008181BD67938707A6B3D5F50237C5000098
:1020E000130505F5D30400F037CB000037CA000014
:1020F00053849420D38A942053899420538B942022
:10210000538C9420054905449389C180938B818128
:10211000B7CA0000EF60C05937C50000130585F647
:10212000EF60E05DB7C7000003A807F283A847F29D
:10213000B7C7000003A787F383A7C7F3B7C600009C
:102140003AC83ECAB7C7000003A707F483A747F4FD
:1021500003A606F33AC03EC2B7C7000003A787F242
:1021600083A646F383A7C7F237C5000042C446C61C
:10217000130505F8EF60C053B7C7000087AC07EF41
:10218000B7C70000872B8BE9072DCAEE87AD07E99B
:10219000EF20A0547D051375F50FF5479384018C4E
:1021A00063E4A71AB167938707DB0A053E951C41D4
:1021B00082879C20C1C383C7E189ADEF83C7518B60
:1021C000B5CB938CD18903C70C00130C00033307E4
:1021D0008703138401980727CAEE22971067537666
:1021E000E600D317B6A1A9C74C63086310E7EF1048
:1021F000205583C70C0087A7C18DB3878703A2979B
:10220000DCE787A7018E9CEB87A7418EDCEB87A7D5
:10221000818E9CEF87A7C18E37C700000727C7EEC6
:10222000DCEFDC771947D3F7E700DCF7238AE18698
:10223000054419AA0727CAEEB667D3F7E700BEE63A
:10224000F000AC00C800EFF00FEC3666A66516652E
:10225000EFF0CFF6F1BF9C20BDCF83C7E189A5EF9A
:1022600083C7518BADCB938CD18903C70C00130C62
:10227000000333078703138401980727CAEE87A753
:102280008AE8229710675376E608D397C7A0CDD384
:102290004C63086310E7EF10A04A83C70C0087A7C0
:1022A000C18DB3878703A297DCE787A7018E9CEBDC
:1022B00087A7418EDCEB87A7818E9CEF87A7C18E15
:1022C00037C700000727C7EEDCEFDC771D47D3F7E1
:1022D000E708DCF7A1BF0727CAEEB667D3F7E70820
:1022E000B9BF0727CAEE9667D3F7E708BEE289BFF2
:1022F0000727CAEE9667D3F7E700CDBF0727CAEED8
:10230000A667D3F7E700BEE425BFA667D3F7A70902
:10231000DDBF93878189886387A78AE85375F508AD
:10232000114588E3EF20E01C21B7938781898863FA
:1023300087A78AE85375F500E5B74D3E872B8BE9F3
:10234000C5BDEFF0FFB0014483C7B195130750043A
:102350006AD093F7F70FE384E704636AF74E6147A7
:102360006383E75E6362F74C5547638DE768825786
:10237000A38D01949387718B9C23138C718B93F79E
:10238000F70FE38A07269387618B98231377F70F5C
:10239000E303072637C50000238007001305051255
:1023A00023000C00EF60A03583C7818B1147938C0D
:1023B000818BFD1793F7F70FE36DF72231678A07DB
:1023C000130787E2BA979C4382879C20138C518B1A
:1023D000834C0C0063940712914763E39713D30770
:1023E00000F0D327F9A0ADF3631409006F10601358
:1023F00096662667B6675385D620D305E7205386B1
:10240000F7203EF83AF436F0EFF02FD682762277B6
:10241000C2771DD9930D0003B38CBC039D47238065
:10242000F90083A70B00138D0198EA9C27A0DC001C
:1024300027A2EC0027A4FC0023A2FC0223840C02A8
:1024400023A00C02EF10D01127A6AC02834C0C0085
:1024500087A7C18DB387BC033665850C93FCFC0F41
:1024600023009C01EA97DCE787A7018E9CEB87A7F6
:10247000418EDCEB87A7818E9CEF87A7C18EDCEFB6
:10248000EF90603526652AD82EDAEF90C0341665B5
:102490002AD42ED6EF9020342ED29385FCFFB38D14
:1024A000B5032AD0EA9D07A5CD02EF90C0322AC419
:1024B00003A50B002EC6BD65938505A6B355B502D1
:1024C0004258D2582257B2570256925637C500008A
:1024D0001305C5FB2EC0E685EF60801D3666A66538
:1024E0001665EF10E02583450C0037C50000130585
:1024F0000500EF60E01BEFF0AF8DB9B5E3860CE4AB
:10250000D30700F0D327F9A0E39007E4E31E09E224
:1025100083C7518189CB0945EFF00FB40D47238A5A
:10252000E186014915B583C7218B91C70D45EFF0B1
:10253000AFB20947EDB783C7318B91C70545EFF0BF
:10254000AFB11547E9BF83C7118B0149E38E07DEA1
:102550000145EFF06FB01147238AE186F5B3138789
:10256000518B1C23E38207DE9420938CD189938DB9
:102570000198138C4187138DD180BDCAA384018C2F
:102580002385018CA385018C238E01882388018AF1
:1025900037C500002388018C1305450105472380BA
:1025A000E9002300ED0023800400EF60401583CC98
:1025B0000C0093070003B387FC02BE9D83A70D02A6
:1025C000D3F717D0B7C7000007A507EF53F5A71833
:1025D000EF9060202A8637C50000AE86130585037C
:1025E00093851C00EF60C00CA1472300FC00A9BB31
:1025F0009386E18990222DCED30700F05326F9A0CF
:1026000025EA3715014005468545130505C0EFE06D
:10261000DF9F054637C50000A38FC1882300CC008B
:102620001305C5050D462300CD002380C900EF60CA
:10263000000D9386E1891387518B182323800C00AA
:1026400023800600138D01988147130D0D0363CB82
:10265000E70023AA018C23A6018C81450D45EFE0FC
:10266000FFFDC1B523280DFE230C0DFE8507F1BF2C
:1026700003C70C001DEF03A70D0205EF371501403E
:1026800085450546130505C0EFE03F98054737C56A
:102690000000A38FE1882300EC00130545080D47D7
:1026A0002380E9002300ED00EF60600581451145BE
:1026B0007DB737C500000D471305C50A2380E90023
:1026C0002300ED00EF60A00383CC0C009307000310
:1026D000B387FC02BE9D03A70D0283A74D02998F0D
:1026E00053F517D053759519EF90E00E2A8637C52C
:1026F0000000AE861305450D93851C00EF50507BFE
:1027000083C6118B8547A384D18C83C6218B9CA063
:102710002385D18C83C6318BA385D18CF9B5EFF09D
:102720003F861DB1EFF09F8B05B1A384018C2385FB
:10273000018CA385018C238E01882388018A23883C
:10274000018CA38B018AA38A018A83A60B0093873D
:102750000198238004001387070F23A0070023A2FA
:10276000070023A4070023A6070023A8070023AA25
:10277000070023AC070023AE070023A00702D4D331
:102780002384070223A6070293870703E317F7FCB6
:1027900037190140130509C001468545EFE0FF8662
:1027A000130509C001468945EFE03F8601469305C0
:1027B000000237150140EFE05F8537C500009947FB
:1027C0001305450F2380F900A386F1800549EF50DA
:1027D00010739DBE87A78AE85374F40029A087A7C9
:1027E0008AE85374F408530584201945EF1070509B
:1027F000A1BE87278BE9CDB787278BE9DDB787A7F0
:102800008AE8D3F4F400054553859420C5B7B7C7CB
:10281000000087A787E8D3F4F408F5B787278BE98A
:10282000CDB787278BE9C5BF71476385E70E1307CF
:102830004004E39EE7B293878189886387A78AE88B
:102840005375F508114588E3EF10B04AE5A013076A
:1028500090056383E70E6360F70213077004638AD1
:10286000E70E13075005E394E7B00727CAEEA66703
:10287000D3F7E7086DA01307C005638DE7161307AC
:10288000D005E396E7AE9C206380071683C7E189F5
:10289000639C071483C7518B6388071403C7D189CE
:1028A000130600033306C702938601988727CAEEF2
:1028B000138CD18913840198B29690665376F608EA
:1028C00087A78AE8D396C7A0B5C63307C4004C6370
:1028D000086310E7930C0003EF00906683470C0039
:1028E00087A7C18DB38797030727CAEEA297DCE7B6
:1028F00087A7018E9CEB87A7418EDCEB87A7818E93
:102900009CEF87A7C18E1D47DCEFDC77D3F7E70884
:10291000DCF7C9A00727CAEEA667D3F7E700BEE435
:10292000F000AC00C800EFE01FFE3666A665166535
:10293000EFF0CF88054425BC0727CAEE9667D3F78A
:10294000E708BEE2F1BF0727CAEE9667D3F7E700B4
:10295000CDBF9C20D9C383C7E189C1E383C7518B15
:10296000ADCF138CD18903470C00930C00033307C0
:102970009703138401980727CAEEB7C7000087A7FB
:1029800007E9229710675376E600D317F6A0DDD348
:102990004C63086310E7EF00B05A83470C0087A729
:1029A000C18DB3879703A297DCE787A7018E9CEBC5
:1029B00087A7418EDCEB87A7818E9CEF87A7C18E0E
:1029C00037C700000727C7EEDCEFDC771947D3F7DE
:1029D000E700DCF7238AE186B1BF0727CAEEB667B6
:1029E000D3F7E700BEE62DBF0727CAEEB667D3F7D9
:1029F000E708CDBF93878189886387A78AE85375E5
:102A0000F50089B59C2083CC518B138C518B639539
:102A10000712914763E49713D30700F0D327F9A077
:102A2000E3970794E30B092E96662667B6675385EE
:102A3000D620D305E7205386F7203EFC3AF836F43B
:102A4000EFE0BFF2A2764277E277E3020592130D40
:102A50000003B38CAC039D472380F90083A70B00D0
:102A6000938D0198EE9C27A0DC0027A2EC0027A400
:102A7000FC0023A2FC0223840C0223A00C02EF1012
:102A8000202E27A6AC02834C0C0087A7C18DB387EC
:102A9000AC033665850C93FCFC0F23009C01EE977C
:102AA000DCE787A7018E9CEB87A7418EDCEB87A72D
:102AB000818E9CEF87A7C18EDCEFEF80D051266519
:102AC0002ADC2EDEEF80305116652AD82EDAEF8010
:102AD00090502ED69385FCFF3383A5032AD46E93A2
:102AE0000725C302EF80304F2AC403A50B002EC672
:102AF000BD65938505A6B355B5026258F258425795
:102B0000D2572256B25637C500001305C5FB2EC05A
:102B1000E685EF50F0393666A6651665EF0050423F
:102B200083450C0037C5000013050500EF505038F1
:102B3000EFE01FAA6FF0BF83E38B0C82D30700F096
:102B4000D327F9A0E3950782E313098283C7518154
:102B500091CB0945EFE05FD00D47238AE18601491B
:102B60006FF0FF8083C7218B91C70D45EFE0DFCE6B
:102B70000947E5B783C7318B91C70545EFE0DFCD46
:102B80001547E1BF83C7118B0149638207FE0145E9
:102B9000EFE09FCC1147238AE1866FF04FFD9386CB
:102BA000518B9C22638507FC9020938CD189138DD7
:102BB0000198138C4187938DD18025CEA384018CFD
:102BC0002385018CA385018C238E01882388018AAB
:102BD00037C500002388018C1305450185462380F5
:102BE000D9002380DD0023800400EF50503183CCD6
:102BF0000C00130700033387EC02B307ED009C536E
:102C0000D3F717D0B7C7000007A507EF53F5A718EC
:102C1000EF80703C2A8637C50000AE861305850319
:102C200093851C00EF50D028A1472300FC006FF0D3
:102C30000FF41388E189034608002DCED30700F076
:102C40005326F9A025EA37150140054685451305A9
:102C500005C0EFE08FBB854737C50000A38FF18823
:102C60002300FC001305C5058D472380FD0023804C
:102C7000F900EF50D0281388E1899386518B982270
:102C800023800C0023000800938D01988147938DC9
:102C90000D0363CBE70023AA018C23A6018C814599
:102CA0000D45EFE0BF9965BD23A80DFE238C0DFEF9
:102CB0008507F1BF83C60C009DEE83260D0285EECD
:102CC0003715014085450546130505C0EFE0EFB314
:102CD000854737C50000A38FF1882300FC0013054A
:102CE00045088D472380F9002380FD00EF503021F7
:102CF000814511457DB737C500008D461305C50ACE
:102D00002380D9002380DD00EF50701F83CC0C009E
:102D1000130700033387EC02B307ED00D8539C532D
:102D2000B307F740D3F717D0B7C7000007A507EFE1
:102D300053F5A718EF80302A2A8637C50000AE86E3
:102D40001305450D93851C00EF50901683C6118B1B
:102D50008547A384D18C83C6218B9CA02385D18CED
:102D600083C6318BA385D18CC9B5138DD189834599
:102D70000D0037C500001305C5128505EF5050132F
:102D800083470D00130700033387E70293870198F9
:102D9000BA972384070223AA018C23A6018C03C7B8
:102DA000118BA384E18C03C7218B2385E18C03C79E
:102DB000318BA385E18C35A8371D0140014685453F
:102DC00013050DC0EFE06FA40146894513050DC042
:102DD000EFE0AFA393050002371501400146EFE095
:102DE000CFA283C5518B37C5000013058515EF5061
:102DF000300C23800C009C20E1C31387E1891C2345
:102E0000C5EF9387518B902345CA938DD18983CC8D
:102E10000D00130D0003B385AC0313850198938651
:102E20000198330DB50083250D0203254D0263ED96
:102E3000A52693851C0093F5F50F2380BD00138D07
:102E4000918C938CA18C138CB18C63EBC522B71D34
:102E500001400146854513850DC0EFE00F9B0146FB
:102E6000894513850DC0EFE04F9A93050002014696
:102E700037150140EFE06F9923000D0037C50000C2
:102E80001387E189854623800C001305C51E14A312
:102E9000238009002380040023000C00EF5030063B
:102EA0009387518B8C23A146FD15238AD18693F5F8
:102EB000F50F0945EFE08FF8EF00906AEF00B04F93
:102EC000D30700F0D3A7FBA099E307ABC18E93878C
:102ED000818C98231377F70F39C331C0D30700F0E3
:102EE0005327F9A00DEF23800700B7C7000087A77D
:102EF00007F1D39757A16380076007A50191B7C772
:102F0000000087A747F15375F508EFF00F9353754D
:102F1000650101469305C00D1945EF10804D966778
:102F2000D3A787A199CB2667D32747A199C736672F
:102F3000D32737A199C36FF0AFA59C2099C36FF039
:102F40002FA5530700F0D327E9A099E3D30BE7207F
:102F500003C7090095476307F70085472380F900F9
:102F6000A386F180266AB6695385F720D3054A21E6
:102F7000538639213EF0EF00A07CB7C7000007A7B9
:102F8000C18D07A5872605455375E508EF106056E6
:102F900007A5018E0945EF10901807A5418E0D4534
:102FA000EF10F01707A5818E1545EF1080541667B6
:102FB000D31717C0266723A4F192D31717C036671B
:102FC00023A6F192D31717C007A7C18D23ACF192A6
:102FD000D31717C007A7018E23AEF192D31717C0DE
:102FE00007A7418E23A0F194D31717C007A7818E9E
:102FF00023A2F194D31717C023A4F19407A7C18E7D
:10300000D31717C023A6F194EF10006437C5000052
:103010001305C524EF50C069EFE08FDB82770729E5
:103020008BE9538CF7206FF0AF9637C5000013057E
:10303000C517EF50C06C85479CA095B337C50000FD
:103040001305451AFDB7138DD18983450D0037C58A
:1030500000001305C51C8505EF50806583470D00F2
:10306000130700033387E70293870198BA972384F5
:10307000070223A0070223AA018C23A6018C65BFA7
:1030800037C500001386150013058521EF504062F7
:1030900023000D0023800C002380040023000C007B
:1030A00083C50D00154539B583C75181D9C3EF00DC
:1030B000304B8725CD02EFE02FF087278D000727C3
:1030C0000D00F008D377F500BAEA07274D00AC08E9
:1030D000C8082AF0BEEEBAECEFE0FF820275B7C76F
:1030E000000087A747EF5325A520D397A7A0E38526
:1030F00007DC7666E6655665EF00806407A5018EFD
:103100000945EF10D00107A5418E0D45EF103001A4
:1031100007A5818E1545EF10C03D87A7C18DB7C7A4
:10312000000007A5872605455375F508EF10603C9C
:1031300061B383C7218B638507109387018B9C2321
:10314000938D018B93F7F70F638C070E83C70D00E8
:1031500093F7F70FE38207D683470C0093F7F70F37
:10316000E39C07D483478D02054787270D00638FB3
:10317000E700CDCB09476387E70A93070003B387CE
:10318000FC02BEECB6972384070205A0B7C7000077
:1031900007A787EF93070003B387FC02D3F7E7087D
:1031A0000947BEECB6972384E702EF00703B930516
:1031B0000003B38CBC0293860198B69C87A5CC0211
:1031C000EFE08FDF87A78C00F0088C0853F5A7008D
:1031D00087A74C00A808BEE8AAEEEFE0CFF276661B
:1031E00087A54C006665EF00A05587A7C18DB7C7BE
:1031F000000007A5872685651306C00D5375F508E1
:103200009385459C0545EF10C01E07A5018E094515
:10321000EF10E07007A5418E0D45EF104070238040
:103220000D0059B9B7C7000007A787EF9307000340
:10323000B387FC02D3F7E7000547BEECB697A5B706
:1032400083C7118B638D07161388C18983470800D4
:1032500093F7F70F638507168347080093F7F70F77
:10326000E38C07C483470C0093F7F70FE39607C47A
:103270009388418983C7080037C70000072547E4C2
:10328000D3F707D037C7000037CC0000D3F7A7101B
:103290000725C7EF37C70000D3F7A710072507F0AA
:1032A00053F5A718EF8020532AD42ED6EF200036EE
:1032B000AE8D93050003B38CBC02938601982A8DD2
:1032C000B69C07A50C00EF80005103268CF48326E2
:1032D000CCF42AD02ED26A85EE85EF607078025346
:1032E00092532A86AE861A859E85EF50B037EF80BE
:1032F000005D2257B257AAEA3A85BE85EF20003A10
:1033000007A54C002A8DAE8DEF80E04C03268CF48F
:103310008326CCF42AD02ED26A85EE85EF605074D5
:1033200002579257AE862A86BE853A85EF50903373
:10333000EF80E058AAECEF00B02287A5CC02EFE0C6
:10334000AFC787A78C00F008AC0853F5A700C808E2
:10335000AAEEEFE04FDB7666E6655665EF00403E8D
:1033600087A7C18DB7C7000007A58726014693052B
:1033700060095375F5080545EF10A00707A5018EF4
:103380000945EF10C05907A5418E0D45EF10205992
:1033900007A581891145EF10C01507A5818E154538
:1033A000EF1020159388418983C7080085079D8BFE
:1033B0002380F8001388C18923000800F5BC83C767
:1033C000318BE38B07AE9387018D9C23938D018D09
:1033D00093F7F70FE38207AE83C70D0093F7F70F5C
:1033E000E38C07AC83470C0093F7F70FE39607AC29
:1033F000138C418D83270C000D47B307F702138D03
:10340000C18C03270D00BA9737C70000072547F086
:10341000D3F707D053F5A718EFE0AFDD930500030E
:10342000B38CBC02B7C7000087A747E9B7C7000045
:1034300007A787F093860198C377F570B7C7000098
:1034400007A7C7F0B69C07A58C00C3F7E7503EF06E
:10345000EF00101187A5CC02EFE00FB68277D008FD
:10346000EC0853F5A70087A70C00A808BEEC87A7B7
:103470004C00AAEABEEEEFE00FC95666F665666537
:10348000EF00002C87A7C18DB7C7000007A58726CE
:103490001306800C9305007D5375F5080545EF0074
:1034A000507507A5018E0945EF10604707A5418EAD
:1034B0000D45EF10C04607A5818E13060005930544
:1034C000800C1545EF00F07283270D000947850732
:1034D0006345F7002320FD0099B383270C002320C8
:1034E0000D001D4785076345F7002320FC0005BB41
:1034F00023200C002DB3B7C7000087A787F13E8CAF
:103500005397FAA011C753056B211945EF00707E40
:1035100087278CF1D3FAFA0019B463990CE26FF0A3
:103520000FE463840C006FE0BFFE6FE0FFE1B707BC
:10353000002083A7070837177A0013070720B3D79F
:10354000E70293F7F70F238DF18C1307803EB387C3
:10355000E702239CF18C8280B7F700E0D8438146D4
:10356000799BD8C303C7A18D3306A70290CBD4CBD8
:1035700098431367070198C398431367170298C3CA
:10358000D843058B75DF9843799B98C38280B7F742
:1035900000E0D8438146799BD8C303D7818D330699
:1035A000A70290CBD4CB98431367070198C39843E5
:1035B0001367170298C3D843058B75DF9843799B2F
:1035C00098C38280EFC2DFC201112A848545370586
:1035D0000200EFD03FD585451145EFD0DFD29147AE
:1035E0007C82371501408D473EC44C00E1471305EE
:1035F00005803EC6EFD0DF9422C837440040B707AD
:1036000008000C08130504403ECC02CA231E01002A
:10361000EFD0FFE7854513050440EFD03FF005618B
:103620006FC05FBFEFC23FBBB7440040AE89328975
:10363000014493840440634524014A856FC0FFBC64
:10364000930500042685EFD05FF47DD9B387890008
:103650008385070026850504C205C181EFD0FFF1EF
:10366000D9BFB7C7000087A7C73737C700000727EC
:103670000726D377F510D39707C0D3F707D0858BEC
:103680004BF5E75081CBD30700F0D397A7A0D5C760
:103690005375E508D377A510B7C7000007A707380B
:1036A000B7C7000087A64738B7C7000043F7E768E9
:1036B00087A68738B7C7000043F7E76887A6C738EB
:1036C000B7C7000007A60739B7C7000043F7E76888
:1036D000D3F6A71043F7E76007A64739B7C700003E
:1036E00043F7E76043F5E65007A78739B7C70000FF
:1036F00087A6C739B7C7000008E143F7E76887A680
:10370000073AB7C7000043F7E76887A6473AB7C745
:10371000000043F7E76887A6873AB7C7000043F77A
:10372000E76887A6C73AB7C7000043F7E76887A6E8
:1037300087E9C3F7E7689CE182805375E50099BF8C
:10374000EFC27FA9197127A8A18EA2FEA6FC5384FF
:10375000B520D304A52007A5018327AAB18E5375F0
:10376000A400D3859420CAFA27ACC18ECEF8D2F635
:10377000D6F4DAF2DEF0E2EEE6ECEAEAEEE853093D
:10378000C62037C40000EF20400287270426938418
:103790000183D397A7A081EBD30700F0D30DA52019
:1037A000D317F5A099C3D38DF7208860D377841001
:1037B00053F5A40007ABC182D30A00F08144537BC8
:1037C00069014375A578538A5A21D3895A211389EF
:1037D000C182EF10B07D37C500001305853C530B47
:1037E00005E0EF40D0715305292153895A21EF702C
:1037F000907E530584202AD02ED2EF70D07D538541
:1038000094202ACC2ECEEF70107DF24702589258A9
:1038100062472A8637C50000AE861305053FEF4094
:103820003069B7C7000007AC473BB7C7000007A423
:10383000873BD3845A21530D00F0872C0426D30BE9
:1038400000F053058C212C18C800EFF09FE1D377CE
:10385000AC016C18A8005385F7203EECEFF07FE038
:10386000E2678C00E800D3F777015385F7203EEC40
:10387000EFF03FDFB7C70000E26787A5072637C72D
:1038800000000720C73B53F5F508D30700F037C702
:1038900000000726073B37C70000D317F5A0872095
:1038A000073C6399071ED317A6A099C35305C620EA
:1038B00007A1C18387A2C181E27707A2018287A104
:1038C000418207A78182C372F228F277C3F2F128FE
:1038D0008667C377F72887220900D3F75708D3F7FD
:1038E0006709D3A7F720D39727A0ADCB966753726C
:1038F000F210A667C3F1F120B6674377F718D30734
:103900000BF053F7E7085327E720D31727A0B9C7D1
:1039100083C7818385046382071853278C21D3A72B
:10392000BD21D3F7E7005327AD21D3F7E70053A715
:103930007B21D3F7E7005327A520D3F7E700D397E0
:1039400087A089CF5384F720D30AA520538A7B21EF
:10395000D309AD2153098C21D384BD2187A741838D
:10396000D3FBFB00D3970BA0E39D07EC537DFD0039
:10397000D3179DA1E39507EC537CFC00D3171CA043
:10398000E39B07EA37C5000013054541EF40305778
:10399000638A041437C50000A68513050542EF406D
:1039A0003051B7C7000007AB07F05375641153756A
:1039B0009519EF7050622A8637C50000AE86130550
:1039C000C543EF40F04ED3FB6411537C691153F5AE
:1039D000691153746A1153FB6A11D3FB9B19537C11
:1039E0009C1927AE718D5375951927A0818F53743B
:1039F000941927A2A18E537B9B1927A4818EB7C748
:103A0000000087A7473C537BFB0827A6618F27AEA2
:103A1000918E27A0219127A2319127A4419127A619
:103A20005191238C0182EF70105B53058C212AD4B5
:103A30002ED6EF70505A53857B212AD02ED2EF70AC
:103A4000905953056B212ACC2ECEEF70D0585305D8
:103A500084202AC42EC6EF7010582258B25802573C
:103A600092576246F2462AC037C500002EC213059F
:103A70008545EF40F0437674E6745679C679367A18
:103A8000A67A167B867B766CE66C566DC66D0961F0
:103A90006FC0AFF7530500F021BD87A7C18F07A7FF
:103AA0000190D3F7FD085377EC08D3A7F7205327ED
:103AB000E720D3F7E70007A741905377ED08532796
:103AC000E720D3F7E70007A7819053F7EB085327C8
:103AD000E720D3F7E70007A7C1905377E5085327FE
:103AE000E720A1BD37C5000013058549EF403041EF
:103AF00059B793071002639EF50AAA8701469306F9
:103B00005005930530051307100203C80700631C16
:103B1000D80803C817006318B80881460147A945AB
:103B20003388D70003480800850642971377F70FBC
:103B3000E398B6FE2A963C260D45639DE70658326B
:103B40005C22742222075D8F7C3242074187A207E4
:103B5000D58F34323022C207A206D18EC206C1866A
:103B600053F706D0B7C6000007A6C64AB7C600007E
:103B700087A606F05377C710C187D3F707D05377CE
:103B8000D710D3F7C710014527AAE190537707D084
:103B9000D3F7D7105377C71027ACF1905377D710CE
:103BA00027A8E19082802D06AD07E310E6F60945CF
:103BB000828005458280EFC20FE2938701C683D7DA
:103BC0004740C207C1838DCF938401C603D74440C9
:103BD00042074183238E01902396E1963E89138408
:103BE000C191938A01BE83D74440C207C18399EB38
:103BF00083D5C196138501BE93F5F50FEFF07FEFE6
:103C00006FC0AFE083490400EF10601B1C20D69901
:103C10002380A90085071CA0F9B721C995C1C167F8
:103C200069768146FD170506139706014183636B8C
:103C3000B70093958700A183CD8F93950701C1812C
:103C40002E8582803307D5001823B98F214713F8BA
:103C50001700858363050800B18FC207C1837D17F4
:103C60001377F70F6DF78506C1B78145D1BF1DCD1D
:103C70008546814763FDB602EFC28FD71389E5FF02
:103C8000AE84931509012A84C181EFF01FF92299AE
:103C900083470900330794000347F7FFA207D98F32
:103CA000898F93B717003E856FC0CFD681473E8579
:103CB0008280EFC26FD183A60196411102C4231600
:103CC000010005476392E6083E8C01448144138B52
:103CD00001AA854CAA8B0D4A894ABD493305640166
:103CE0001C21130914006393FC04B30769019C238E
:103CF000631EFA0293072400DA979C236398FA0262
:103D00009D45EFF0DFF605C193073400DA97110403
:103D10009C235A941420139714001008A20732977A
:103D2000B697231CF7FE850493F4F40F4A84E31737
:103D300039FB23A401961306C0038145138501AA0C
:103D400023A00196EFC0CFCD3C84D3F717D0B7C7DF
:103D5000000007A587E8410153F5A7186FC04FCAB7
:103D6000EFC20FC9EFF0FFF4D30700F09386019282
:103D7000D307F5A081EBB7C7000087A707E9D39762
:103D8000A7A081C788626FC0EFC89387E19198238D
:103D90000D466366E604050798A31386D1911822A1
:103DA000938701A793152700BE9588E19C6353056F
:103DB00000F005070D8B5375F500DC6318A25375F1
:103DC000F5009C675375F500DC67B7C700005375B5
:103DD000F50087A7074B5375F51088E26DB794621D
:103DE000B7C7000007A787E8D377D508D317F7A090
:103DF00081C753F5E60055B7B7C7000007A6C7E867
:103E0000D397C7A0D9DB53F5E60841BFEFC24FBE39
:103E100041118545114502C202C402C6EFD0AFCEA2
:103E2000896793870780371401407C82C1473EC66B
:103E30004C008D47130504803EC4EFD06F9085651C
:103E400013050480014693850580EFD00F9C014641
:103E5000856513050480EFD04F9B41016FC08FBB78
:103E6000EFC20FB93714014085650546938505807B
:103E700013050480EFD06F995145EFF04FF10546DF
:103E8000856513050480EFD04F985145EFF02FF072
:103E90006FC04FB8010001000100010001000100E6
:103EA000010001000100010001000100010001000A
:103EB00001000100010001000100010082800100F9
:103EC00001000100010001000100010001000100EA
:103ED00001000100010001000100010001000100DA
:103EE00001000100010001000100010001000100CA
:103EF00001000100010001000100010001000100BA
:103F000001000100010001000100010001000100A9
:103F10000100010001000100010001000100010099
:103F20000100010001000100010001000100010089
:103F30000100010001000100010001000100010079
:103F40000100010001000100010001000100010069
:103F50000100010001000100010001000100828058
:103F6000FD577D156313F5008280010001000100FB
:103F70000100010001000100010001000100010039
:103F80000100010001000100010001000100010029
:103F90000100010001000100010001000100010019
:103FA0000100010001000100010001000100010009
:103FB00001000100010001000100010001000100F9
:103FC00001000100010001000100010001000100E9
:103FD00001000100010001000100010001000100D9
:103FE00001000100010001000100010001000100C9
:103FF00001000100010001000100010001000100B9
:1040000001000100010001000100010001000100A8
:104010000100010001000100010001000100010098
:104020000100010001000100010001000100010088
:104030000100010001000100010001000100010078
:104040000100010001000100010001000100010068
:10405000010001000100010029B7EFC26F99411171
:104060008545114502C202C402C6EFD0CFA98947D7
:10407000371401407C82C1473EC64C008D47130572
:1040800004803EC4EFC0DFEB05468945130504807C
:10409000EFC0BFF741016FC0EF97EFC26F953715C3
:1040A00001400146894513050580EFC01FF6130541
:1040B0008011EFF06FCA6FC0EF95EFC26F933714A6
:1040C00001402A89A1441304048093178901E187E0
:1040D00005468945228563D60702EFC01FF3EFF03E
:1040E0001FDE014689452285EFC03FF2EFF09FDADF
:1040F000FD14060993F4F40F1379F90FF9F46FC066
:104100006F91EFC09FF0EFF0FFD8014689452285FF
:10411000EFC0BFEFEFF0BFDAE1BFEFC26F8D41112B
:104120002A842E8532C6EFF05FF92285EFF0FFF882
:1041300032463285EFF07FF841016FC0AF8DEFC29C
:104140002F8B41118545114502C202C402C6EFD032
:104150008F9B85454145EFD00F9B85452145EFD08D
:104160008F9A371401409307001041498D444C0049
:10417000130504807C824AC626C4EFC07FDC054656
:104180001305048093050010EFC03FE8FD774C0055
:10419000130504C07C824AC626C4EFC07FDA13052B
:1041A00004C005468565EFC05FE6130504C00546FB
:1041B0008965EFC09FE5130504C005469165EFC012
:1041C000DFE40546130504C0A165EFC01FE49307B3
:1041D000003C4C00371501407C824AC626C4EFC023
:1041E0003FD605469305000437150140EFC0FFE1B7
:1041F00005469305000837150140EFC01FE105464D
:104200009305001037150140EFC03FE005469305C8
:10421000002037150140EFC05FDF41016FB09FFF05
:10422000EFB21FFD938401849C203D47850793F7DF
:10423000F70F9CA06360F7041DC1EFF01FE6882014
:104240009945A947B305B50201463305F50293F533
:10425000E50F1375E50FEFF05FEC6FB0BFFBEFF00C
:10426000DFE39020A9473306F6021376F60FB285F6
:104270003285D5B71384018405CDEFF01FE2082005
:10428000E955D957B305B50201463305F5029385C3
:1042900045FB93F5E50F1305C5021375E50FEFF028
:1042A000DFE71820F147E3FAE7FA85471CA075B766
:1042B000EFF0BFDE1020D9573306F6021306C60210
:1042C0001376F60FB2853285D9BFEFB27FF2411176
:1042D0008545414502C202C402C6EFD0CF82854562
:1042E0002145EFD04F82371401408D4741498D441D
:1042F0004C00130504C07C824AC626C4EFC05FC4CC
:10430000130504C001468545EFC03FD001461305A3
:1043100004C08945EFC07FCF930700024C003715DA
:1043200001407C824AC626C4EFC09FC10146930566
:10433000000237150140EFC05FCD41016FB09FED26
:10434000EFB21FEB7971A303D102935687012304C7
:10435000D10293560701A304D1021379F70F9316E4
:104360008700420741832183558F2302B102231521
:10437000E10293558600755774082303C102230E8A
:10438000E100AA84A302B1022306F102A3060103FD
:10439000014736841D464C10BA958C2105078506C9
:1043A0008CA2E31AC7FEA6860146A145228542C615
:1043B0003EC4EF10600E05470DE9A247324875571D
:1043C000230FF100938614009307B006014695452C
:1043D0002285230EE100A30E2101A30F010123007A
:1043E000F102EF10600B3337A0003A8545616FB0E2
:1043F0007FE2D30700F0D317F5A0D307A52099C318
:10440000D317A52091476303F50663E6A700854708
:10441000630AF50082809547630BF50699476309A7
:10442000F508828007A78184B7C700001305001034
:10443000D3F7E71007A7872683C88185D3F7E71846
:10444000539717C0EFB2DFDAD30700F0D317F5A008
:1044500099C393B81800B2861396050101488547A1
:104460004182C685EFF0DFED6FB0DFDA07A7C184C8
:10447000B7C7000013050040D3F7E71007A787264A
:1044800083C89185D3F7E718539717C065BF07A76F
:104490000185B7C7000013050050D3F7E71007A741
:1044A000872683C84192D3F7E718539717C059BF9F
:1044B000B7C7000007A7C74BD317F7A081EBB7C753
:1044C000000007A7074CD397E7A099C3D307E720BD
:1044D00007A74185B7C7000013050060D3F7E710B1
:1044E00007A7872683C85192D3F7E718539717C0B9
:1044F00091BFD30700F0D317F5A0D307A52099C328
:10450000D317A52091476302F50863E6A700854706
:10451000630AF50082809547630EF50899476300AA
:10452000F50E8280B7C7000007A787F1D317F7A061
:1045300081EBB7C7000007A7474BD397E7A099C304
:10454000D307E72007A78184B7C700001305001031
:10455000D3F7E71007A7872683C58185D3F7E71828
:1045600003D6A18583C61184539717C0EFB25FC8E5
:10457000D30700F0D317F5A099C393B515000148F0
:104580008547EFF0FFDB6FB0FFC807A7C184B7C74F
:10459000000013050040D3F7E71007A7872683C55F
:1045A0009185D3F7E71803D6C18583C62184539735
:1045B00017C06DBFB7C7000007A7874BD317F7A079
:1045C00081EBB7C7000007A7474BD397E7A099C374
:1045D000D307E72007A70185B7C7000013050050E0
:1045E000D3F7E71007A7872683C54192D3F7E718CB
:1045F00003D6E18583C63184539717C085BFB7C7FB
:10460000000007A7874BD317F7A081EBB7C70000BF
:1046100007A7474BD397E7A099C3D307E72007A77E
:104620004185B7C7000013050060D3F7E71007A75F
:10463000872683C55192D3F7E71803D6018683C630
:104640004184539717C01DB7EFB21FB81971B165F8
:10465000130600039385C5D38808375A0040EF70CE
:10466000405F8008814437CB0000FD59130A0A805F
:10467000B7CB0000B14A1C40A68613064B529843A4
:10468000930500022800EF40E0042800EF708067E7
:104690002A892A862C002810EF70A05B13063900A7
:1046A0001C014206CA979306803E41822C10528517
:1046B000238437FBA38437FB238537FBEF00B00D42
:1046C00011C5A68513858B53EF30907E85041104A8
:1046D000E39354FB09616FB0BFB2EFB27FB183C700
:1046E00041961547BD0793F7F70F636FF7003167E2
:1046F0008A071307474CBA979C43828737C5000047
:104700001305C54DEF30B07F83C74196014593F740
:10471000F70F99C703C54196238201961375F50FCC
:104720006FB05FAF37C500001305854EE1BF37C5D9
:1047300000001305454FF9B737C5000013050550B4
:10474000D1B737C500001305C5506DBF37C5000090
:104750001305855145BFEFB2BFA937150140A165CB
:104760001305058003A40197EFC09F898547631651
:10477000F50023A801966FB0FFA99386E1959022DA
:104780009384E19515E21307E4FD19466366E6009C
:104790009CA2238C0194C5B741149147E3ED87FC9B
:1047A0000947A38EE194C1BFE317F6FC1307D4FFBA
:1047B00091469387819563E6E60C98239376F70FED
:1047C000138716001377F70F98A3138701A836975E
:1047D000230007009C2313070002E31EF7F881471C
:1047E000014881480143014E138701A8A14EB30639
:1047F000F700882293868700BA968C229386070159
:10480000BA96902293868701BA9694223315F500C2
:10481000B395F5003316F600B396F6003365C5017F
:10482000B3E5650033661601B3E606018507137E1E
:10483000F50F13F3F50F9378F60F13F8F60FE398CF
:10484000D7FB33476E00B3C70801F98F1307F00F8A
:104850006396E702A38CC195238D61949387B195EC
:1048600023801701238E01958546A38ED1948C2336
:1048700037C5000013050555EF3090632380040011
:10488000DDBD55141947636F870098239376F70FA2
:10489000138716001377F70F98A3138701A836978D
:1048A00010A30DBF2380040035B7D30705E093D6CE
:1048B00087013E8714A193D60701A18314B13CA1BF
:1048C00038B18280EFB2DF9241118D479306B00478
:1048D0000546A14528003EC43EC6EF00F03B9306C6
:1048E000B0060546A1452800EF00103BA1479306FE
:1048F00070060546A14528003EC402C6EF00D03927
:10490000930670040546A1452800EF00F0380965BC
:1049100013050571EFF0CFE441016FB0BF8FEFB227
:104920003F8D894741112A84631EF506B7C70000F1
:1049300087A707565375F500B7C7000087A7C7F0CC
:10494000B7C7000048005375F51087A74756B7C78B
:1049500000005375F51887A7C7EF5375F510537509
:10496000A500EFF09FF43C8302C69306C0041397A2
:104970008700A183D98F7C843C8213978700A18311
:10498000D98F7C8589476307F4008D476319F4004C
:104990009306C0060546A1452800EF00F02F41010F
:1049A0006FB05F878D47E319F5F8B7C7000087A799
:1049B00087E753F5A7085315A520BDBFEFB2BF8108
:1049C000797185453705060002CA02CC02CE02D0B5
:1049D00002D202D402D602C602C8EFC0BF948545F7
:1049E0003145EFC05F923714014091478D496149CD
:1049F0004C0813050480FC824ECC4ACEEFC04FD445
:104A0000A14791444C0813050480FC8226CEEFC0D8
:104A10002FD3930700404C08130504C0FC824ECCF2
:104A20004ACEEFC0EFD18567938707804C08130506
:104A300004C0FC8226CEEFC0AFD0F167B74400407F
:104A4000938707203ED00C10B7070C001385044055
:104A50003ED402D223160102EFC07FA30546138580
:104A6000044093055052EFC0DFAC375400400C10A7
:104A700013050480EFC0BFA10546930550521305EE
:104A80000480EFC01FAB9307601305497C86680064
:104A900085475C874AC8EFC00FE89307701368002A
:104AA0007C86230721014AC8EFC0EFE61385044046
:104AB0008545EFC0BFA6854513050480EFC01FA63E
:104AC00045616FB08FF41D71A2CE3754004093053D
:104AD00050521305048082E686E48AE28EE012FEDC
:104AE00016FC1AFA1EF82AF62EF432F236F03AEED6
:104AF0003EEC42EA46E872E676E47AE27EE0EFC017
:104B00007FA909C913050480EFC0BFA71375F50F6E
:104B10002382A19676443660A66016618661727221
:104B2000E2725273C2733275A27512768276726720
:104B3000E2675268C268326EA26E126F826F2561A0
:104B4000730020301D71A2CE3744004093055052AF
:104B50001305044082E686E48AE28EE012FE16FC2B
:104B60001AFA1EF82AF62EF432F236F03AEE3EEC3D
:104B700042EA46E872E676E47AE27EE0EFC09FA180
:104B80001DC913050440EFC0DF9F938601969C4228
:104B90009DE3938781969043138701AA32971375FB
:104BA000F50F08A39843050798C39843B14763D40A
:104BB000E70085479CC276443660A6601661866130
:104BC0007272E2725273C2733275A2751276827675
:104BD0007267E2675268C268326EA26E126F826FAD
:104BE000256173002030EFB2AFE0AA8411657971BE
:104BF0008545310502CA02CC02CE02D002D202D4CF
:104C000002D602C602C8EFC00FF093070020FC8254
:104C1000371401408D473ECC4C08E1471305048012
:104C20003ECEEFC0EFB193070040FC824C089147A5
:104C3000130504803ECE37440140EFC06FB0B70784
:104C40000C000C10130504803ED426D002D223168B
:104C50000102EFC0DF83054693054042130504803F
:104C6000EFC03F8D930750137C8685475C876800B3
:104C700085473EC8EFC02FCA854513050480EFC0A5
:104C8000FF8945616FB00FD9EFB28FD63971130626
:104C9000C00281454808EFB0AFD8854505453704C7
:104CA000024002C602C8EFC02FE413058405EFB02E
:104CB000DFFFB74401408D673EDC938744803ECAE6
:104CC000130700089387D1AD4C08130584053AD427
:104CD0003AD03ECC02D202D602D802DA02DE02CEAE
:104CE000EFC06F930546894513058405EFC06F97A4
:104CF0009307F0117C8685475C87680085473EC82E
:104D0000EFC06FC1130584058545EFC04F9405467C
:104D10009305000413850480EFC01F8521616FB0E7
:104D20006FCFEFB24FCB938701C603D747409307AE
:104D30000040AA8A998F3E84C207C183138901C6A5
:104D400063F3F5002E848354094093090040420424
:104D5000C204C180B3899940C209418093D9090135
:104D600063E98902035509402286D6854A95EF609A
:104D7000506E83570940A297C207C1832310F940A0
:104D8000835749403E9442044180231289406FB0CA
:104D9000CFC703550940938404C0A2944E86D6859C
:104DA000C2044A95EF60F06AC1802686B3853A0155
:104DB000138501C6EF60F06923109940D1B71387BE
:104DC00001C683562740938701C6BA968822835628
:104DD00027408506C206C1822311D74003572740CA
:104DE0009306F03F63F4E6002391074003D7474062
:104DF0007D17420741832392E74082805971CED0CC
:104E0000B74901409305404213850980A2D6A6D434
:104E1000CAD2D2CE82E686E48AE28EE012FE16FC88
:104E20001AFA1EF82AF62EF432F236F03AEE3EEC7A
:104E300042EA46E872E676E47AE27EE0EFC08FF579
:104E400035C19384C1AD37090240032AC9058020CA
:104E50001309890581451374F40F933714004A85AB
:104E60009CA0EFB0DFFE930500084A85EFC08F805D
:104E70009C2085454A859E078507A6972326F9002D
:104E8000EFB0FFFC13850980EFC0AFEF930500087A
:104E9000B3854541131574000505C205C1812695EA
:104EA000EFF03FE83654A65416598659764A3660D4
:104EB000A660166186617272E2725273C2733275B5
:104EC000A275127682767267E2675268C268326EA5
:104ED000A26E126F826F6561730020301D71A6CCC7
:104EE0009384C1ADA2CE8020CACA37090240137490
:104EF000F40F9337140013058905814582E686E493
:104F00008AE28EE012FE16FC1AFA1EF82AF62EF439
:104F100032F236F03AEE3EEC42EA46E872E676E4E9
:104F20007AE27EE09CA0EFB09FF21305890593051D
:104F30000008EFB03FF49C201305890585459E07C6
:104F40008507A6975CC5EFB09FF0131574000505A3
:104F5000269593050008EFF0DFDC37050200EFB07F
:104F60007FF47644E64456493660A6601661866151
:104F70007272E2725273C2733275A27512768276C1
:104F80007267E2675268C268326EA26E126F826FF9
:104F9000256173002030A9C1EFB2EFA32A84054533
:104FA00011CEB284AE89014993170901C18363E927
:104FB00097001E2093F70704EDDF01456FB0EFA4C3
:104FC0001E2093F70708EDDFB38729018C23228584
:104FD0000509EFC08FDAC9BF05458280373501402A
:104FE0005D718545130505C082E686E48AE28EE0A0
:104FF00012FE16FC1AFA1EF82AF62EF432F236F0D9
:105000003AEE3EEC42EA46E872E676E47AE27EE088
:10501000EFC0AFC585476317F500938701979843A5
:10502000050798C3373501408545130505C0EFC016
:105030004FC53660A660166186617272E272527365
:10504000C2733275A275127682767267E267526811
:10505000C268326EA26E126F826F6161730020307F
:10506000EFB20F99AA84056501112E8413050580FE
:10507000854502C602C802CA02CC231E0100EFC049
:105080008FA8E08237340140930720034C081305B2
:1050900004C0230EF100E484231D0100231B010042
:1050A000EFC02FAA8545130504C0EFC08FBD93073D
:1050B00090027C8685475C87680085473EC8EFC0C4
:1050C0008F8505468545130504C0EFC0EFB7056120
:1050D0006FB04F94EFB2CF91011185450945370468
:1050E000004002CA02CC231E010002C602C8EFC063
:1050F0006FA313050440EFC04FB69307F02C3ECAD0
:1051000089679387F7704C08130504403ECCEFC0C5
:105110004FA3130504408545EFC0AFB6054685454E
:1051200013050440EFC04FB29307D0127C86854729
:105130005C87680085473EC8EFB0FFFD05616FB032
:105140006F8DEFB2EF8A41118545314502C202C42D
:1051500002C6EFC04F9B930700107C8237150140B9
:105160008D473EC44C00C147130505803EC6EFB0D5
:105170003FDD41016FB00F8A7571AADE06C716C503
:105180001AC31EC1AEDCB2DAB6D8BAD6BED4C2D209
:10519000C6D0F2CEF6CCFACAFEC882E686E48AE22F
:1051A0008EE012FE16FC1AFA1EF82AF62EF432F2DF
:1051B00036F03AEE3EEC42EA46E8216572E676E4E5
:1051C0007AE27EE0EFB05FD511C5EFF0CFD8216570
:1051D000EFB07FD6BA40AA421A438A437655E655C5
:1051E0005656C6563657A65716588658764EE64E29
:1051F000564FC64F3660A660166186617272E272C3
:105200005273C2733275A275127682767267E26744
:105210005268C268326EA26E126F826F496173006B
:105220002030EFA2FFFC79718545154502CA02CCFA
:1052300002CE02D002D202D402D602C602C8EFC009
:105240008F8CE17737150140FC824C08930780046E
:10525000130505803ECEEFB0BFCEBD450145EFB092
:10526000DFE8A16705443ED00810C1473ED422D6EE
:1052700002D2EFB0DFC3930780137C8668008947B2
:105280005C8722C8EFB03FE945616FA0BFF83825C1
:10529000894763E7E704144993878106B9C2B14699
:1052A000B306D702BE9690261366160090A6B146A6
:1052B0003307D702BA971A21BAA33A219AA35A21DF
:1052C000FAA37A21DAA338353D8B93161700982775
:1052D000059B558F98A754257D8B9606558F98A7CB
:1052E0008280B146B306D702BE969026799A7DBFDA
:1052F000EFA21FF083A84186B7670040938707405D
:1053000081466304F500C6868948B145B385B60277
:10531000938781063143130E0002930E2002AE974D
:105320009385810663C616018145EFB04FFD2DA818
:10533000338766022E971847058B31C303C8870051
:105340000327051B1378E8FF799B6301C803631DDE
:10535000D80103A807006306E80003A8470063100C
:10536000E8028145EFB0EFF06FA0DFEA03A8070085
:105370003347070103A84700337707017DD385062C
:10538000B1074DB7EFA23FE55D71AA89AE843289BE
:10539000814513060002081836C63AC402C802CA7C
:1053A00002CCEFA0FFE78545254502CE02D002D210
:1053B00002D402D6EFB03FF5854537050002EFB0C5
:1053C0007FF6854537451D00EFB0DFC49307002009
:1053D000FC8037140140E1473ECC0C088D47130593
:1053E00004C03ECAEFB0DFB593070010FC800C0884
:1053F00093078004130504C03ECCEFB07FB4B246DF
:105400002247376400400C18130504402318D102CA
:105410002309E102A3093103230A2103A30A91020C
:1054200002DC02DE82C082C282C482C6EFB00FA656
:1054300085472304F1020546854789451305044045
:105440003ED602CE02D002D2EFB02FEE4147B7E7F0
:1054500000E023A2E71083270460680893E71700A1
:105460002320F4608327C46093E737002326F46089
:1054700023200464232204648327C46193E7370054
:10548000232EF46083270460F99B2320F460EFF05F
:105490001FE061616FA07FD7EFA2FFD30547011125
:1054A000AE87631DE60436C6230A0100230BF10014
:1054B0007400C207A30A01000147B685C183131611
:1054C0000701418285066360F604B76400401385D6
:1054D0000440EFB02FC80569AA89014493840440B1
:1054E000054A7D19CE852685EFB08FD26307450327
:1054F00063112403054505616FA03FD1114736C8EC
:10550000230AE10065B73306E50010220507B0A6BF
:105510007DB7050442044180F1B77D7505052295EC
:1055200013351500C9BFEFA2BFCC3764004001118D
:10553000AA84814513050440EFB0CFDD1DC570007E
:10554000814513050440EFF0BFDA7C000147A14616
:10555000AC373386E40005070CA28507E31AD7FEB3
:105560000345610105616FA0FFCA0145E5BF3765CD
:1055700000401D7189451305054082EE86EC8AEADC
:105580008EE892E696E49AE29EE02AFE2EFC32FA3B
:1055900036F83AF63EF442F246F072EE76EC7AEAEB
:1055A0007EE8EFB0AFD905C52800EFF0DFF78147FF
:1055B0001387419763C4A70401C50547238EE1966D
:1055C00037650040894513050540EFB02FE476604C
:1055D000E6605661C6613662A662166386637275BE
:1055E000E2755276C2763277A27712788278726E3E
:1055F000E26E526FC26F2561730020303400BE9698
:105600009022B306F700850790A26DB7011122CC56
:10561000370400809347F4FF3727E93F06CEED8F2C
:105620001307B71F6350F7043707F07F63CAE7001B
:10563000AE862A86EF502028F240624405618280BF
:105640000A86092C0D8985476306F502894722469B
:10565000B246630FF50205C9024592450547EF10B2
:10566000E07AD9BF01468146EF009039F2406244AA
:10567000056182802246B246024592450547EF10F9
:10568000E078A18D55BF02459245EF0070376DB7A8
:1056900002459245EF00D036A18D79BF011122CC91
:1056A000370400809347F4FF3727E93F06CEED8F9C
:1056B0001307B71F6350F7043707F07F63CAE7008B
:1056C000AE862A86EF50201FF24062440561828038
:1056D0000A8649220D8985476307F50289472246D4
:1056E000B246630FF5021DC502459245EF005031E9
:1056F000A18DD9BF014701468146EF102071F240CC
:105700006244056182802246B24602459245EF001E
:10571000302F5DBF024592450547EF10206F6DB7F2
:10572000024592450547EF10606EA18D71BFD3070A
:1057300005E00111B716493F1397170006CE93866F
:1057400086FD058363DCE602B706807F6347D700EA
:105750005375A508F240056182802800EF00207291
:105760000D8985476303F5028947B26522656309A0
:10577000F50205C50545EF20C006E9BFD30500F0D9
:10578000EF107002F24005618280B2652265054526
:10579000EF2020055315A52075BFEF10D0005DBF89
:1057A000EF1070005315A52075B701AB5D71A2C451
:1057B00022FE86C65304A520EF00D017938781866A
:1057C0008043FD57630AF400D32784A091C7D30711
:1057D00000F0D317F4A091E7B640264472746161DB
:1057E00082805305842085473EC4977700009387C5
:1057F000E7D73EC602D4EF50107E2ACC2ECE2AC860
:105800002ECA05CC014681463285B685EF4060063A
:105810002AD02ED289476314F402EF600043930725
:1058200010021CC1A25795E302559255EF60200962
:10583000B640264472746161828002D002D2280090
:10584000EF20201A79D9A257E5D3EF600040A25784
:105850001CC1D9BF5971A2D43727E93F1394150051
:1058600086D6A6D2CAD0CECED2CCD6CADAC8DEC6AA
:10587000E2C4E6C2EAC06EDE05801307B71F635CB0
:10588000871437E702401307B797B289634F87063B
:1058900097770000938707CE9043D4436357B03A7D
:1058A000EF506001B727F93F9387B71F2A8AAE8A66
:1058B0006309F41417740000130444CC10405440DE
:1058C0008544EF40507F2A86AE8623A0A90023A2FC
:1058D000B9005285D685EF40107E10405440EF400D
:1058E000907D23A4A90023A6B900B650265426858E
:1058F00006599654F649664AD64A464BB64B264C4C
:10590000964C064DF25D6561828037273941130759
:10591000B71F2E89635987103707F07F6355E40C52
:10592000135A4441130AAABE93174A011D8CA2853B
:10593000AA84EF501021EF50502E2A87AE873A8666
:10594000BE862685A2853ACC3ECE9774000093840D
:1059500064C6EF4050769040D440EF407010AE8B5C
:105960002A8BEF50101E2A84EF50302B2A87AE87E7
:105970002A86AE865A85DE853AD03ED2EF40B07395
:105980009040D440EF40D00D814601462AD42ED617
:10599000EF40C06CB3368000850663180522977708
:1059A00000009387A7C909475286CE852808EF00D3
:1059B000B030AA84E35B09F203A7490083A7C900BA
:1059C000B7060080358FB58F23A2E90023A6F90022
:1059D000B304A04019BF08C24CC2232406002326EA
:1059E0000600814419B72A86AE86EF40D06C23A406
:1059F000A90023A6B90023A0A90023A2B9008144CD
:105A0000EDB5977700009387E7B79043D4431774B9
:105A100000001304A4B78544EF40F0692A8AAE8AD7
:105A20001040544079BDEF10F065977700009387E0
:105A300067B69043D4432A8AAE8AEF4070029777C4
:105A400000009387A7B59043D443EF30A041EF50B7
:105A5000500FAA84EF50701C97770000938787B18E
:105A60009043D4432A8BAE8BEF40807F2A86AE864C
:105A70005285D685EF40306497770000938707B052
:105A80009043D4432A8DAE8C5A85DE85EF40407D0D
:105A90002A8AAE8AFD476A85E6855286D68663C71E
:105AA0009702EF4050619387F4FF13972700977791
:105AB00000009387A7B0BA979C43AA8D2E8C638B66
:105AC000870023A0A90023A2B90025A0EF40B05E63
:105AD000AA8D2E8C93574C011358444193F7F77FAE
