:040000006F00D02499
:1000040000000000000000008607000088070000D0
:10001400000000004A0A0000000000000000000088
:100024004A0A00004A0A0000000000000000000024
:100034004A0A0000000000004A0A00000000000014
:100044004A0A00004A0A00004A0A00004A0A00005C
:100054004A0A00004A0A00004A0A00004A0A00004C
:100064004A0A00004A0A00004A0A00004A0A00003C
:100074004A0A00004A0A00004A0A00004A0A00002C
:100084004A0A00004A0A00004A0A00004A0A00001C
:10009400EA0600004A0A00004A0A00004A0A000070
:1000A4004A0A00004A0A00004A0A00004A0A0000FC
:1000B4004A0A00004A0A00004A0A00004A0A0000EC
:1000C4004A0A00004A0A00004A0A00004A0A0000DC
:1000D4004A0A00004A0A00004A0A00004A0A0000CC
:1000E4004A0A00004A0A00004A0A00004A0A0000BC
:1000F4004A0A00004A0A00004A0A00004A0A0000AC
:10010400000000004A0A00004A0A00004A0A0000EF
:100114004A0A00004A0A00004A0A00004A0A00008B
:100124004A0A00004A0A00004A0A00004A0A00007B
:100134004A0A00004A0A00004A0A00004A0A00006B
:100144004A0A00004A0A00004A0A00004A0A00005B
:100154004A0A00004A0A00004A0A00004A0A00004B
:100164004A0A00004A0A00004A0A00004A0A00003B
:100174004A0A00004A0A00004A0A00004A0A00002B
:100184004A0A00004A0A00004A0A00004A0A00001B
:100194004A0A00004A0A00004A0A00004A0A00000B
:1001A400000000000000000000000000000000004B
:0C01B4000000000000000000000000003F
:1001C000397101436EC619A0397141536AC866CAB4
:1001D00062CC5ECE19A0397101535AD056D252D496
:1001E0004ED64AD826DA22DC06DE3301614082820E
:1001F00041114AC026C222C406C68282B24D4101C4
:10020000024D924C224CB24B4101024B924A224A7F
:10021000B2494101024992442244B24041018280E4
:100220003D432A876373C3029377F700BDEFADE5C3
:10023000937606FF3D8ABA960CC34CC30CC74CC7D5
:100240004107E36BD7FE11E28280B306C3408A0602
:100250009702000096966780A6002307B700A306C2
:10026000B7002306B700A305B7002305B700A30412
:10027000B7002304B700A303B7002303B700A3020A
:10028000B7002302B700A301B7002301B700A30002
:10029000B7002300B700828093F5F50F9396850091
:1002A000D58D93960501D58D61B79396270097025A
:1002B000000096968682E78086FA9680C1171D8F89
:1002C0003E96E374C3F8A5B7D30705E093D687013C
:1002D0003E8714A193D60701A18314B13CA138B184
:1002E0008280EFF2FFF041118D479306B00405467E
:1002F000A14528003EC43EC60D269306B00605461D
:10030000A1452800192EA147930670040546A14572
:1003100028003EC402C61126930670060546A14574
:100320002800E52C4101FDB5EFF29FECB747000036
:1003300087A7C7A1B747000041115375F51887A7D4
:1003400007A22A8448005375F510BD3F3C8302C6BE
:100350009306C00413978700A183D98F7C843C82C5
:1003600013978700A183D98F7C8589476307F400A1
:100370008D476318F4009306C0060546A145280082
:10038000692C410141BDEFF2BFE6411185451145A0
:1003900002C202C402C6EF10E00A89679387078091
:1003A000371401407C82C1473EC64C008D4713057F
:1003B00004803EC4EF00B0578565130504800146F4
:1003C00093850580EF00B0620146856513050480C2
:1003D000EF00F06141013DBDEFF29FE137140140B4
:1003E000856493850480054613050480EF00306022
:1003F0002945EF10E0160546856513050480EF00DA
:10040000105F2945EF10C015014693850480130540
:100410000480EF00D05DFDBB3825894763E7E70422
:10042000144993874182B9C2B146B306D702BE963A
:1004300090261366160090A6B1463307D702BA97E6
:100440001A21BAA33A219AA35A21FAA37A21DAA34C
:1004500038353D8B931617009827059B558F98A725
:1004600054257D8B9606558F98A78280B146B3069A
:10047000D702BE969026799A7DBFEFF27FD7B70755
:10048000002083A80702B767004093870740814692
:100490006304F500C6868948B145B385B6029387E3
:1004A00041823143130E0002930E2002AE979385D2
:1004B000418263C616018145EF00B02C2DA8338719
:1004C00066022E971847058B29C303C887000327A8
:1004D000051B1378E8FF799B6300C803631DD801EF
:1004E00003A807006306E80003A84700631FE800AD
:1004F0008145EF00502039BB03A8070033470701AF
:1005000003A847003377070165D78506B10755B7BC
:10051000EFF27FCC5D712A8A2E89B289814513065C
:100520000002081836C63AC402C802CA02CCCD3945
:100530008545254502CE02D002D202D402D6EF0074
:100540007070854537050002EF00B071854537456D
:100550001D00EF00704A93070020FC803714014013
:10056000E1473ECC0C088D47130504C03ECAEF009E
:10057000103C93070010FC800C08930780041305BF
:1005800004C03ECCEF00B03AB24622473764004088
:1005900085440C18130504402318D1022309E102F5
:1005A000A6C2A3094103230A3103A30A210302DCE3
:1005B00002DE82C082C482C6992B05468945130596
:1005C00004402304910226D602CE02D002D2EF00CC
:1005D000101E4147B7E700E023A2E710832704601D
:1005E000680893E717002320F4608327C46093E72B
:1005F00037002326F4602320046423220464832725
:10060000C46193E73700232EF46083270460F99BCD
:100610002320F46011356161CDBEEFF2DFBB0547E9
:100620000111AE87631CE60436C6230A0100230BC2
:10063000F1007400C207A30A01000147B685C18317
:100640001316070141828506636FF602B764004006
:1006500013850440EF0040780569AA89014493841A
:100660000440054A7D19CE852685EF00B002630659
:100670004503631024030545056141BE114736C893
:10068000230AE1006DB73306E50010220507B0A686
:1006900045BF050442044180F9B77D7505052295E3
:1006A00013351500D1BFEFF2BFB43764004001111C
:1006B000AA84814513050440EF00100E0DC570009B
:1006C000814513050440553B7C000147A146AC37EA
:1006D0003386E40005070CA28507E31AD7FE03451D
:1006E0006101056105BE0145EDBF376500401D7123
:1006F00089451305054082EE86EC8AEA8EE892E68B
:1007000096E49AE29EE02AFE2EFC32FA36F83AF699
:100710003EF442F246F072EE76EC7AEA7EE8EF00C2
:10072000300A1DC12800413781471387018163C406
:10073000A70401C50547238CE18037650040894542
:1007400013050540EF00D0147660E6605661C6617F
:100750003662A662166386637275E2755276C27659
:100760003277A27712788278726EE26E526FC26F21
:100770002561730020303400BE969022B306F70046
:10078000850790A26DB701A0B707EFBE37E700E07D
:10079000938707083CC701A0EFF29FA5411122E60D
:1007A00026E4BD2AEF003059716513050520EF00DE
:1007B000905EB707002083A5470237450000130568
:1007C00005A3EF10A05CEF00F015AA8537450000E7
:1007D000130505A4EF10805B0147C14615469145FE
:1007E00001453D334D36CD3EED3C37470000872770
:1007F00047A21384C18127AEF180B747000087A4C8
:1008000087A2B747000007A4C7A2538594200945D3
:10081000213E08600D455375851039361305400695
:10082000EF001054DDB7B71702409843B706FFF04A
:1008300041111367170098C3D84337060200758F1C
:10084000D8C39843B706F7FEFD16758F98C3984333
:10085000B706FCFFFD16758F98C3D843B70601FF96
:10086000FD16758FD8C39843B70600ECFD16758F3B
:1008700098C33707FF0098C723A6070202C402C621
:100880009843C166558F98C3B716024005679C42CE
:10089000F18F3EC6A24785073EC4B24781E7A24713
:1008A000E397E7FEB71702409C431397E7006357AF
:1008B000070685473EC632478547631FF704B717CB
:1008C0000240D843B706C1FFFD16D8C3D843D8C3EA
:1008D000D84313670740D8C3D843758FD8C3D843CC
:1008E000B7062900558FD8C39843B7060001558F26
:1008F00098C3984393166700E3DD06FED843B71606
:100900000240719BD8C3D84313672700D8C321473F
:10091000DC42B18BE39EE7FE4101828002C661BFEB
:10092000B7160240D8421146318B93874180630548
:10093000C70021466308C70237177A00130707204C
:1009400098C337170240584311839376F70037074F
:100950000020130707003697142398433357D70016
:1009600098C38280D842D442416649833D8BF18E40
:100970001306270015CF3D47630FE6024147630F7B
:10098000E602454781456313E6004146A1E2374749
:10099000024003270780418B0DC737177A001307E2
:1009A00007203306C70290C3C9DD9843058349BFBA
:1009B00081454946E1BF85453546C9BF81453D462C
:1009C000F1B737173D0013070790E1BF3715024015
:1009D00058559316F700585563DF060411833D8B75
:1009E0009306170037177A00130707203357D702EB
:1009F00098C35455A182BD8A8DE295463307D7022C
:100A0000058398C337170240585794433D8B050719
:100A100033D7E60298C3984369B705456394A600A7
:100A2000E546E9BF3D456396A600D1463387E60219
:100A3000C9BF8906E5BF3D8B9306170037177A00BB
:100A4000130707203357D702F1B701A09701002001
:100A5000938141DD177100201301C15A1735000041
:100A60001305C51397F5FF1F9385C559138601819B
:100A700063FAC5008322050023A0550011059105E6
:100A8000E3EAC5FE138501819385C1836377B500D1
:100A9000232005001105E36DB5FEFD42739002BCF5
:100AA000AD4273904280B7620000938282087390D7
:100AB000023097F2FFFF9382225593E23200739047
:100AC0005230EFF05FD697020000938222CD7390F0
:100AD000123473002030B767004003A70760F17637
:100AE0009386160F1367170023A0E76003A707601C
:100AF0002205758F23A0E76003A70760598D23A007
:100B0000A76003A70760799B23A0E7608280EFF2CC
:100B10002FEE2A842E89392511813D8971158D4743
:100B200063EDA716B7670040938707406313F4048B
:100B3000B7170240984BB7060002558F98CB984BD9
:100B4000B70600FEFD16758F98CB1C40F59B1CC0A8
:100B50001C4093E717001CC0C1675840058B19E380
:100B6000FD17E5FF5C4013F717000DE701456FF037
:100B70006FEAB777004093870780E318F4FCB71754
:100B80000240984BB7060004558F98CB984BB70698
:100B900000FC4DBF371602405442B707002083A720
:100BA0004702A182918A81CA5842218393763700F5
:100BB00009473317D700B3D7E70237173D001307AC
:100BC0000790B3D7E702370710C1FD17D98F5CCC68
:100BD0001C40F99B1CC0C1675840058B19C3FD1709
:100BE000E5FF5C40858BD9F3B764004083A7C46000
:100BF000054593E7370023A6F46023A0046423A2ED
:100C0000046423A4046423A6046483A7C46193E753
:100C1000370023AEF46083A70460F99B23A0F4603F
:100C20005D3D938704406313F41483A7045837672A
:100C3000004093E7370023A0F4588327C7408D8BEB
:100C4000EDDF930780032326F740B7170240984B48
:100C5000B7060002558F98CB984BB70600FEFD16DD
:100C6000758F98CBB767004003A7076005451367EA
:100C7000170023A0E76003A7C7601367370023A608
:100C8000E76003A7C7611367370023AEE76003A7D8
:100C90000760799B23A0E7603D3D1C40F59B1CC08D
:100CA0001C4093E717001CC0C1675840058B19E32F
:100CB000FD17E5FF5C40858BE38A07EA032789007F
:100CC00085476316F70E1C4093E707080327C90002
:100CD0001CC085476311F70E1C4093E707040327E8
:100CE00009011CC08547631CF70C1C4093E70702F1
:100CF000032749011CC085476317F70C1C4093E785
:100D00000701032789011CC085476311F70C1C40AC
:100D100093E787000327C9011CC08547631BF70AB7
:100D20001C4093E747001CC0834729000347390054
:100D3000FA076207D98F034749004207D98F034753
:100D400059005207D98F035709007D17D98F5CCC02
:100D50001C40F99B1CC0C1675840058B19C3FD1787
:100D6000E5FF48401345F5FF058911B5B777004009
:100D700013870780E318E4EE03A70798136737008B
:100D800023A0E798377700408327C7808D8BEDDF5E
:100D9000930780032326F780B7170240984BB706C6
:100DA0000004558F98CB984BB70600FC4DBD1C40F6
:100DB00093F7F7F721BF1C4093F7F7FB0DB71C40E3
:100DC00093F7F7FD35B71C40BD9B25BF1C40DD9B4D
:100DD00091B71C40ED9B81BF1C4513975700634E94
:100DE00007081C4513974700634B07081C459146AD
:100DF0001397370063510708894693974600AA97CF
:100E000003A70718058B23A0E7189025883535EA36
:100E1000984103A607185607498F518F23A0E7185A
:100E2000B8253D8BB8A503A64718419A23A2C71839
:100E300003A64718518F23A2E718D025B8352206FC
:100E4000598ED8354207598EF8256207518F23A451
:100E5000E7189029F8352206598E98394207598E9D
:100E6000B8296207518F23A6E71803A7071813674D
:100E7000170023A0E718368582808146BDBF8546CE
:100E8000ADBFD84103A807180E07498F518F3367AC
:100E9000070169B785476389F50291C58947638B67
:100EA000F502094582801C45370500040D0537070A
:100EB0000004E98F0D070545638EE7026360F702C2
:100EC00013B51700060582801C4537050008130579
:100ED0000530F1BF1C4537050310D1BF37070008A7
:100EE0001307073005456387E70037050310898F2F
:100EF00013B51700828093974500AA9703A7071B95
:100F0000118B18A62DE703A7071B558318C203A74B
:100F1000071B098B18B603A7471B3D8B38A603A7F1
:100F2000471B218338BA03A7871B38B603A7871B43
:100F3000218358A603A7871B418358B603A7871BA5
:100F4000618378A603A7C71B78B603A7C71B2183B5
:100F500018AA03A7C71B418318BA83A7C71BE1833D
:100F60003CAA99E95C4593E707025CC5828003A728
:100F7000071B0D8358C261BF1C4993E707021CC9B8
:100F8000828091E55C4593E707025CC582801C493D
:100F900093E707021CC9828089E55C458D8B3E85FD
:100FA000828005478147E39CE5FE1C49C5BF5C493B
:100FB00001C6DD8D4CC9828093C5F5FFFD8DDDBF77
:100FC0005C49ED8F95C3930700046383F50A63ECD6
:100FD000B70291476386F50863EAB70085476386E1
:100FE000F5068947638BF50601458280C147638D0D
:100FF000F50693070002638BF506A147E396F5FE1D
:101000004845118185A093870580BDCF856793876B
:10101000078063E0B702930700206381F50693071A
:1010200000406380F50693070010E39FF5FA084D32
:1010300015A8C1676380F504B7070200638EF50247
:10104000A167E393F5FA484135A80845C16793873E
:1010500017107D8D3335A000828048450D89DDBF96
:1010600048450D81058982800849CDBF0849D5BF13
:10107000084941BF4841F5B7484161B7084D05816E
:10108000D5B7084D0981F9BF084D13750507D9B7C4
:10109000930700106386F50663E7B702A1476388EC
:1010A000F50663E9B7000547638EE50411476381E0
:1010B000E506828013070002638FE50493070004AE
:1010C000638AF5048280938705808DCB856793873B
:1010D000078063EBB700930700206383F502930753
:1010E0000040638FF5008280C1676388F502B7070F
:1010F00002006387F502A1676393F502232C0500C4
:10110000914729A8C167938717101CC58280C147E2
:101110005CC58280C1471CC98280A1475CC18280B6
:10112000C147EDBFB7F7FF1F03A5477082809C45FD
:1011300013F7070113F8F70001C7D8413368E80037
:101140008E2113F7F50F39C318418146854E3D4F67
:10115000930F800293028004214E3396DE00B3F891
:10116000C500631116039398260033131F01134320
:10117000F3FF3377E300B318180133E7E800639F08
:10118000F70550C98506E39AC6FD18C11307F00F8D
:101190006375B70454412146854E3D4F930F80023D
:1011A00093028004414EB398CE0033F71501639249
:1011B000E8021317260001173313EF001343F3FF60
:1011C000B376D3003317E800D98E639DF701232A45
:1011D00015010506E319C6FD54C18280E39457FA50
:1011E00010C94DB7E39757FE23281501DDB719C283
:1011F0000CC982804CC98280B7070140635A05043C
:10120000DC4F93560501131805013707300013F61C
:10121000F60013580801B376E50063500506639B9A
:10122000E602930606010D46B316D60093C6F6FFF6
:10123000F58F99C9135755011377F73F12073317E5
:10124000E800D98F63570504370701405CCF8280DF
:10125000DC4345BF1317B500635607008D46B396B0
:10126000C600E9B7135755011377F73F1207331735
:10127000E8001347F7FFF98F6DBF6390E60237066A
:1012800001405442370700F17D17F98F758F58C21E
:10129000D5F1370701405CC382801317B500635C4A
:1012A00007008D46B396C60093C6F6FFFD8EB707BE
:1012B000000FD58FF1BF1357550112073317E80000
:1012C0001347F7FF7D8FB707000FD98FD1B73717B7
:1012D00002405C439146B18B6385D700A14663828F
:1012E000D706B7177A00938707201CC1371602402C
:1012F0005C4237070020130707019183BD8BBA9723
:1013000094231C41B3D7D7005CC15442A1829D8A6B
:10131000BA969422B3D6D70014C55442AD829D8AA2
:1013200036971823B3D7E7005CC5584239839376C4
:1013300037001387818036971823B3D7E7021CC97B
:1013400082805C435843C166C983758FB7F6FF1F1F
:1013500083A6C670BD8B89071396160163480600E5
:10136000C54601466392D702C94739A88946638FAB
:10137000D702BD46638ED702C146638ED702C546EB
:1013800001466393D700C1471DEF3747024003274B
:101390000780418B05C737177A0013070720B3076B
:1013A000F7021CC121D61C41858381B701466DBF60
:1013B0000546B547D1BF0146BD47F9B737173D00D0
:1013C00013070790E9BFB7150240D8559316F700E9
:1013D000D85563DF060411833D8B9306170037173A
:1013E0007A00130707203357D70218C1D455A182BA
:1013F000BD8A8DE295463307D702058318C137179A
:101400000240585714413D8B050733D7E60218C1F7
:10141000184171B785456394B600E546E9BFBD45FF
:101420006396B600D1463387E602C9BF8906E5BF99
:101430003D8B9306170037177A00130707203357A1
:10144000D702F1B799C5371702401C4F5D8D08CF01
:101450008280B7170240984F1345F5FF798D88CFEA
:10146000828099C5371702405C4F5D8D48CF8280DE
:10147000B7170240D84F1345F5FF798DC8CF82804A
:10148000EFE21FD71629F577FD17F58FF621DA253C
:101490007971D58F1EA95625FD779387379FF58FD4
:1014A000D6212A842EC6D58F9625D58FB625D58FE1
:1014B0005EA55E29C207C18393F7F7CFD98F5EA9D6
:1014C00068083135B747014093870780B245631EEE
:1014D000F402A2576547B387E70298419306400696
:1014E0000A07B3D7E70233D7D702B3F7D7021207F9
:1014F000920793872703B3D7D702BD8BD98FC20733
:10150000C1831EA445616FE0FFD09257E1B791C53A
:101510005E250967D98F5EA582805A25F977FD1768
:10152000F98FD5BF93F5F51F4EA182800A216D8DED
:101530003335A0008280B707002083A74702371702
:101540007A0013070720B3D7E70293F7F70F238139
:10155000F1821307803EB387E7022390F1828280F5
:10156000B7F700E0D8438146799BD8C303D70182FF
:101570003306A70290CBD4CB98431367070198C3D7
:1015800098431367170298C3D843058B75DF9843B8
:10159000799B98C38280EFE2BFC501112A848545FB
:1015A000370502007D3D85451145693D91477C82A7
:1015B000371501408D473EC44C00E14713050580B7
:1015C0003EC6B53622C837440040B70708000C08AD
:1015D000130504403ECC02CA231E01005535854543
:1015E000130504402D3705616FE0DFC2EFE2BFBE97
:1015F000B7440040AE893289014493840440634576
:1016000024014A856FE07FC0930500042685393F99
:1016100065DDB38789008385070026850504C2053B
:10162000C1810937E9BF011106CE2EC60DCD184183
:10163000AA8705C358417D5511CB8546631BD7004A
:1016400098472300070023A207000545F2400561E3
:1016500082809847B24614A39847050798C7D84395
:101660007D17D8C3DDB705466C004937F9BF7971DE
:1016700022D426D24ECE52CC56CA06D64AD05AC80A
:101680002A8AAE8A328481449309000263440602A6
:10169000B3879A00838707009DE363D6840263D2F1
:1016A000E402198C93F726009309000281C719E31D
:1016B00093090003858A01499DE6228929A88504AA
:1016C000C1BF058CC5B70144F1BFCE8552853AC66E
:1016D000993F32477D19E34A20FF22896353040072
:1016E00001493304244163CBE402CA84B387244113
:1016F000D697838507009DED2289634120056353BA
:101700000400014433059400B2502254925402590B
:10171000F249624AD24A424B45618280B304974003
:10172000268B9305000352857D1BF53DE31B0BFEC5
:10173000269965BF5285C53D85044DBFCE8552852E
:10174000DD357D195DBF5D71A6C252DC86C6A2C4BF
:10175000CAC04EDE56DABA843E8A95E1930700038A
:101760000147D28626862C08FC841137B6402644D1
:1017700096440649F259625AD25A616182802A8996
:101780003684C68A91CAA94701446317F60063D517
:101790000500B305B0400544A30701029307F10219
:1017A000A546130568FC33F7C50263D3E6002A9704
:1017B00013070703A38FE7FE9389F7FF33D7C5020B
:1017C00063F7C50401CCB9C413772A0021C7930578
:1017D000D0024A8542C6813D3248FD1493774A00C3
:1017E00099CF93071006930500034A85631CF802FE
:1017F0001D3D930580074A853D350904F914568738
:10180000D2862686CE854A859D35229585B7BA85AE
:10181000CE8751BF1307D002A38FE9FE01449389FD
:10182000E7FF6DBF093593058005F1B71D71CAC883
:10183000CEC6D6C2DAC03A8986CEA2CCA6CAD2C457
:101840005EDE62DC66DA6AD86ED633E7C500BE8932
:10185000AA8A428B8347010629E385CF8D67938748
:10186000D7027C84230501000147DA864E862C00CE
:101870005685F53BF6406644D6444649B649264A65
:10188000964A064BF25B625CD25C425DB25D2561BA
:101890008280930700037C84C1BF368AAE84328481
:1018A00063000902A9470149639CF600635A0600D8
:1018B000B304B040B33790003304C0401D8C0549D9
:1018C000A30F0100130DF101935DFA41A54C138C98
:1018D00068FC5286EE862685A285EF00700663D3EB
:1018E000AC00629513050503A30FADFE5286EE868C
:1018F0002685A285930BFDFF5D296366B40163987D
:101900008D0263F64403630C090063860902937732
:101910002B0095C39305D00256853133FD1901473D
:10192000DA864E86DE85568599334A95A1B7AA8414
:101930002E845E8D79BF9307D002A38FFBFE0149F1
:10194000930BEDFFE9BF5D71A6C2CAC0AA842E89C0
:101950002E85B28586C63ACE42CCA2C44EDE52DC7B
:10196000B289368A56DA5AD8BE8A5ED662D466D230
:10197000468C6AD0EF10F04E2A8BAE8B0146814622
:10198000CE854A85EF007034724762487D81BA8700
:101990002AC00547E288D286DA855E8626857935B3
:1019A0002A8D9305E0022685BD39050D8147854CBA
:1019B0000144294763CD57075A85DE85EF10705DD6
:1019C0002A86AE864A85CE85EF10E0202A89AE8928
:1019D0006685A285EF10F05B2A86AE864A85CE85A5
:1019E000EF00103AEF10F04713D6F541318DB347B1
:1019F000B600B305C5403335B5003386C74002C0D5
:101A0000E288D687D286098E094826850547393D62
:101A1000B64026446A9596440649F259625AD25A0B
:101A2000425BB25B225C925C025D61618280B306C4
:101A30008702850733349703B30C970336949DBF11
:101A40005D715AD8374B0000A2C4A6C2CAC04EDE90
:101A500052DC56DA5ED662D486C666D2AA892E8950
:101A60003284014A8144930B5002930AB002294CFC
:101A7000130B0BA58305090085E5638509008145E6
:101A80004E855536B6402644268506499644F25979
:101A9000625AD25A425BB25B225C925C6161828084
:101AA000638775014E85413685040509E1B78307D3
:101AB0001900930C190063997701930550024E8524
:101AC0009D3685046689D5B7CDDB6387570563C826
:101AD000FA00130730026384E704814705A0130767
:101AE000D002638AE70013070003E398E7FE930C34
:101AF0002900894721A0930C2900854703870C0002
:101B00006303570563C1EA0293063002630BD702F1
:101B100066890145A54535A8930C29007DBF930C26
:101B200029009147E1BF9306D0026309D7009306CD
:101B30000003E31FD7FC93E7270031A0850C8547FE
:101B4000C1BF93E74700850CE1B73305850305095D
:101B5000369503070900930607FD13F6F60FE3F623
:101B6000C5FE1306E0029946631EC70005098146BB
:101B7000254603070900130707FD9375F70F6375E3
:101B8000B602368A030709001306A0066309C70ACE
:101B90006341E6021306C0046303C70A1306800606
:101BA0006308C70801461DA8B38686030509BA96CF
:101BB000C9B7130640076304C7081306A0076300EC
:101BC000C7089305C0060146631AB70083051900CC
:101BD0000D466394E5000509114605090307090050
:101BE000930500061308100663C4E50013081004EB
:101BF0009305700663C2E506930550066357B71652
:101C00009305700463CFE50213065004635FC714A5
:101C100093063004E31BD7E81840930C4400A30E4E
:101C20000100230EE100BE8601472A866C0871A0E0
:101C3000830519000146E393E5FA090945B705094B
:101C400095B793063006E309D7FC63CEE606930604
:101C500080056303D70291BD930630076306D7045E
:101C600063CDE6029306F0066309D70C93060007DE
:101C700093E74700E31BD7E211476319E60A1D0407
:101C8000137784FF0C43504313048700C28802C0BB
:101C90003E880147AA87C146B9A093065007630151
:101CA000D7069306800775B71840930C4400DA8571
:101CB00011C3BA855287BE862A864E85EFF03F9BB8
:101CC000AA946684DDB311476313E6021D041377FB
:101CD00084FF0C43504313048700C28802C03E882F
:101CE0000547AA87A9464E859136AA947DBB0C402C
:101CF000D28811042A87854629464E85A934F5B72E
:101D00001147631FE6001D04137784FF0C43504303
:101D100013048700C28802C03E880147AA87D9B74A
:101D20000C40D28811042A878146F9B70C40D2882A
:101D300011042A8781464146C9B711476310E6025C
:101D40001D04137784FF0C43504313048700C2889B
:101D500002C03E880147AA87A14671B70C40D288CD
:101D600011042A878146214649BF1D04137684FF4A
:101D7000130486000C4250423307D540C2887D17B9
:101D80003E884E85B687A9467D3E85B739712ED2ED
:101D900032D4AA855010014506CE36D63AD83EDA5E
:101DA00042DC46DE32C66939F24021618280B68764
:101DB000B2882A832E88639B061463F8C50A41679C
:101DC000636BE61AB70700016360F6349356860129
:101DD000E14717270000130767CC36971823BA97F7
:101DE000130700021D8F19CB3398E500B357F50098
:101DF000B318E60033E807013313E50013D60801F2
:101E00003355C80293960801C18293570301337773
:101E1000C802B385A60242073368F700637AB800A8
:101E200046989307F5FF636418016365B8303E85F3
:101E30003308B8403357C8024203135303013378C1
:101E4000C802B386E602420833686800637BD800A4
:101E500046989307F7FF6365180179176363D80005
:101E60003E874205598D8145828001E60547B3587A
:101E7000C702416763E8E80EB707000163EAF82884
:101E800093D68801E14717270000130727C136972B
:101E90001423BE9693070002958FFDE7939E0801D9
:101EA0003387154113DF080193DE0E0185459357F3
:101EB00003013355E7033377E703B306D50342073E
:101EC000D98F63FAD700C6971307F5FF63E41701AC
:101ED00063E5D7263A85958F33D7E703420313533B
:101EE0000301B3F7E703B30ED703C207B3E76700F5
:101EF00063FBD701C6979306F7FF63E517017917D0
:101F000063E3D70136874205598D828063E1D504AA
:101F1000C16763E1F604B707000163E3F61E13D758
:101F20008601614897270000938747B7BA9798239F
:101F3000130E00024297330EEE40631A0E0C63ED4F
:101F4000B61C3335C5001345150081458280814597
:101F5000014582809307F00F63F3D71C13D78600E7
:101F60002148C9B71307F00FC686E37E17F193D651
:101F70008800A14709BF1307F00FB286E37BC7E4CF
:101F800093568600A147B1B5B398F80033D6D50073
:101F900013DF0801335EE6033397F500B356D5002F
:101FA000558F939E080193DE0E013313F500935570
:101FB0000701B376E603B387CE03C206CD8E63FB7B
:101FC000F600C6961306FEFF63E4161763F2F616D4
:101FD000791EC6969D8E33D6E60393170701C183FB
:101FE000B3F6E6033385CE02139706015D8F637B5C
:101FF000A70046979307F6FF636817136376A71247
:102000007916469793150E01098FD18D4DB5B357AB
:10201000E600B396C601DD8E33D3E50013DF06017B
:10202000B357E303939E060193DE0E013398C50177
:102030003357E50033680701935808013316C6018A
:102040003373E303B385FE024203B368130163FBFA
:10205000B800B6981387F7FF63EAD80C63F8B80C9A
:10206000F917B698B388B84033D7E8034208135835
:102070000801B3F8E8033383EE02C208B3E50801B0
:1020800063FB6500B6951308F7FF63EDD50863FBA6
:1020900065087917B695C207416FD98F1307FFFFFF
:1020A000B3F6E70093D80701718F4182B38EE60241
:1020B000B3856540B386C60213D80E013387E802A4
:1020C000BA96C2963386C80263F3E6007A9693D82E
:1020D0000601469663E2C5026385C5003E858145DB
:1020E000828041677D17F98EC206B3FEEE0033157C
:1020F000C501F696E374D5FE1385F7FF814582800E
:1021000013D70601414839BD93560601C147D1B1E5
:1021100093D60801C14785BB814505458280368736
:10212000014809B5428785BF3E86E9BDBA871DBF14
:10213000328E4DB579154698E5B97915C69761BBCC
:10214000B68732882A832E872E8E6391061463F019
:10215000C50A41676376E61A1307F00FB286637506
:10216000C70093568600A14717270000130707935F
:102170003697182393080002BA97B388F840638C07
:102180000800B3951501B357F5003318160133EE67
:10219000B7003313150113560801B357CE021315B8
:1021A0000801418193560301337ECE02B307F50245
:1021B000420E3367DE006378F700429763650701DC
:1021C0006373F70042971D8FB356C702931703013D
:1021D000C1833377C7023305D5024207D98F63EB3A
:1021E000A7083385A740335515018145828001E654
:1021F00005473358C7024167636BE80EB707000114
:102200006364F82A93568801E147172700001307F3
:10221000E7883697182393080002BA97B388F840E6
:10222000639A081E131E0801B38505411356080161
:10223000135E0E0113570301B3D6C502B3F5C502F1
:10224000B386C603C2054D8F6377D7004297636498
:102250000701636AD726158F3355C702420313530C
:1022600003013377C7023305C5034207B36767002D
:1022700063F8A700C29763E5070163F3A700C2975D
:102280003385A74033551501814582802A88E3EFC5
:10229000D5F4C16763E5F604B707000163E2F620F1
:1022A00013D38601E148971700009387277F9A97F9
:1022B00003CE070013030002469E3303C341631994
:1022C000030463E4B6006369C5003308C540958D17
:1022D000333705013387E5404285BA85828093070D
:1022E000F00F63FBD71C13D38600A1486DBF130703
:1022F000F00FC286E37B07F193568800A14731B700
:10230000B70700016366F61A93568601E147A9BD37
:10231000B357C601B3966600DD8EB3D8C50113D797
:102320000601B3DEE802139F0601B357C501135F30
:102330000F01B3956500DD8D13D8050133166600D6
:1023400033156500B3F8E802B307DF03C20833E8CA
:102350000801637BF80036989388FEFF6363D81604
:102360006371F816F91E36983308F840B357E8023F
:10237000C205C1813378E802330FFF021317080149
:102380004D8F637BE70136979385F7FF6369D7121B
:102390006377E713F9173697C20EC162B3EEFE00FA
:1023A0001388F2FFB3F80E019355060193DE0E0178
:1023B00033780601B38F08033307E74133880E03F0
:1023C00093D70F01B388B802C298C697B38EBE02E6
:1023D00063F30701969E41687D1893D50701B3F713
:1023E0000701C207B3FF0F01F695FE976362B70AB4
:1023F000630EB708B307F5403335F500B305B740B2
:10240000898D339EC50133D567003365AE00B3D5E2
:10241000650082803318180133D7F5001356080180
:10242000B356C702131E0801B357F500135E0E0121
:10243000B3951501DD8D93DE050133131501337757
:10244000C702B307DE0293160701B3E6D60163F8AD
:10245000F600C29663E5060163F3F600C2969D8E10
:1024600033D7C60293970501C183B3F6C60233077B
:10247000EE0293950601DD8D63F8E500C29563E5F4
:10248000050163F3E500C295998D6DB3E374F5F62C
:102490003386C740B3B7C700B6979D8DB28799BF43
:1024A00013D30601C14801B593560801C147B1BB1A
:1024B00093560601C1474DB936838148EDB3AE87C7
:1024C000E1BDC68E55B5429779B3F3272000B70713
:1024D000100013D74501FD1713D846011377F77F76
:1024E0009308F07F33F3B7002A8EF58FFD81B28E0B
:1024F0001378F87FFD82630F1703630D180121E342
:10250000B368A300631008025D8E09EE0145639F66
:1025100008008280B3E8C700E38308FE73601800F8
:1025200009458280638F08026383D5020545F5D192
:102530007D5582803365A30075F16307E80263145B
:1025400008005D8E65D6E393D5FEE341E8FE63485F
:102550000701E3ED67FC630EF300637AF30099E192
:10256000C1BFF9D6054582805D8E71DE45BF01454C
:102570008280E3EDCEFB0145E37DDEF9E5F54DBF5D
:10258000397152D406DE22DC26DA4AD84ED656D22B
:102590005AD05ECE62CC66CA2A8A732B200013D929
:1025A00045019399C5001379F97F93D9C90093DB4D
:1025B000F501630E09129307F07F630DF9161354AA
:1025C000D5018E09B36934013704800033E48900F2
:1025D00093143500130919C0014A814C814A93D7DD
:1025E00046019399C60093F7F77FB28593D9C90046
:1025F00013DCF601D5CF1307F07F6384E70413954E
:1026000039009359D601B3E9A900938717C037055C
:102610008000B3E9A900931536003E99014833C6FE
:102620008B01BD47B2861307190063EF47171715D3
:1026300000001305A5420A0A2A9A83270A00AA97CE
:10264000828733E6C9001309F97F6308061293975E
:10265000C900136A3A000D48E3C307FCC14AC1B779
:10266000E2864E84AE84C28C89476389FC128D4712
:10267000638BFC10854736866392FC4C014781478B
:102680000144B2075207B1837E06D98FD18F2285CC
:10269000BE8563990A34F2506254D2544259B259F9
:1026A000225A925A025BF24B624CD24C21618280D8
:1026B000B3E7C900CDCF638A09344E8532C4EF1029
:1026C000002F2246AA87930655FF7547938587FFFB
:1026D000158FB399B9003357E600B3693701B315C5
:1026E000B6003309F9401309D9C001480DBF33E4DE
:1026F000A90025C836C632C46389092E4E85EF105D
:10270000002B2246B246AA87130755FF75449384CF
:1027100087FF198CB399990033548A0033643401CC
:10272000B3149A001309D0C03309F940014A814C0F
:10273000814A75B533E4A90011CC9397C900AA84E6
:102740004E84314A1309F07F8D4CC14AE3D907E822
:10275000814A71B5214A81441309F07F894C814A2D
:10276000BDBD114A81440149854C814A8DBD136A22
:102770001A008149814505485DB5136A2A008149DF
:102780008145094869BD01461307F07FB707080076
:102790000144C5BD8947DE86E39BFCEC3686130702
:1027A000F07F81470144F1BD41639307F3FF13D5E7
:1027B000040113DE0501FD8CFD8DB3879502B3087E
:1027C000B50293D3070133089E024698C29333089B
:1027D000C50363F313011A984163930EF3FF93D279
:1027E0000901B3F9D901B3F8D301B3F7D701C2088E
:1027F000B38E3403BE9893D30301B30F350313DFB5
:102800000E01B3849202FE94FA94B307550263F367
:10281000F4019A974163930BF3FF135A0401337544
:102820007401B3FF7401C180338FF4003384A502B7
:10283000B3FE7E01C20FF69FFE93B307AE02935E16
:102840000401B305BA02AE97BE9E330E4E0363F386
:10285000BE001A9EC1679385F7FF33F3BE006D8CEF
:102860004203229393DE0E01B3053503769E338532
:10287000A20213D40501B3093A034E952295B382FF
:10288000420363733501BE92C16EFD1EB377D5015D
:10289000C207B3FED501F697B3057800B3BFF501C3
:1028A000FA979A953384F70133B86500B30EC401E3
:1028B00033830E013334F401B3B7E701C18F3338EA
:1028C00003011354050133BECE013E9433680E015B
:1028D000429493949500169413557301B3E4140134
:1028E0002604B3349000DD81498CCD8C26039317E8
:1028F0007400B3E4640063DB070093D71400858899
:102900009315F401DD8CCD8C05803A891307F93FCE
:102910006359E00493F7740099CB894793EA1A004E
:10292000630BFB208D47630DFB1E630F0B1C93177E
:10293000740063D80700B70700FFFD177D8C1307ED
:1029400009409307E07F63C9E71093D634009317DB
:1029500094009314D40133E4D400B1831377F77F48
:102960000DB38547998F79E393F57400228781CD64
:10297000094793EA1A006309EB200D47630DEB1E2C
:102980002287630F0B1C6183134717009375170091
:102990001309E9413397240133192401B3D4F40016
:1029A0003337E000B3649900D98C13F574003357C2
:1029B000F40019C9894793EA1A006308FB1E8D4782
:1029C000630AFB1C63080B1E9317870063D007186C
:1029D00093EA1A00639605167E06B7071000D18F9A
:1029E0000145BE8573A01A007DB1EF00507C13072E
:1029F0005501F145930705022246B246E3D8E5D0DA
:102A000061153314AA00814431BB328532C4EF0012
:102A1000107A930655017147930705022246E35643
:102A2000D7CA61158145B319A60065B9930580031E
:102A300063D9F506458C01CC894793EA1A003334F3
:102A4000D0006306FB008D4701446301FB1893EA45
:102A50002A008146814715A08947630CFB0C8D47EE
:102A6000630EFB08630D0B08370410009307F4FF97
:102A70009306E07F7D5493EA5A001397C700318391
:102A8000939746017E06D98FD18F2285BE8573A08C
:102A90001A0011B10145B705F87FC14A73A01A00A9
:102AA000DDBEFD4563D7F51285553387E5409305B7
:102AB00000023357E4006387B7001309E943331476
:102AC0002401C18CB3349000D98C93F7740099CB56
:102AD000894793EA1A006308FB0C8D47630AFB0AD7
:102AE00063080B0C13D43400814793F61A00014796
:102AF000E38906B8814693EA2A0041B7B5F6930602
:102B0000F07F8147014485BF93F7F4009145E3804E
:102B1000B7E293874400B3B497002694BE8401BD06
:102B2000E39706E093878400B3B497002694BE84AD
:102B3000FDBB9DDAE9B7E38C06DEEDB73A89F9B360
:102B400085468147014493EA2A0005BF9317970001
:102B500013D434007607B183598CC1F9014715B6F7
:102B600093F5F4001145E380A5E213B7C4FF1347C2
:102B70001700229709BD2287E39706E013B784FF69
:102B800013471700229701B52287E38E06DEFDB7B3
:102B900085450147E39A06E293878400B3B4970022
:102BA0002697BE8415B585450147E38F06E0EDB74E
:102BB0008545014793F7F4009146E387D7E0938773
:102BC0004400B3B497002697BE84FDBB13B416002F
:102BD000BDBD854575BB011106CE22CC26CA4AC8AB
:102BE0004EC652C4F3292000370810007D183377F1
:102BF000B80093D846013378D80013D44501131E8A
:102C000037009357D5010E081353D60193F8F87F78
:102C1000930EF07F93D4F50133E7C7011374F47F6B
:102C2000131E3500FD82336803019315360063825D
:102C3000D81D93C61600330314416387D41663531B
:102C4000601C63840822B70780003368F8006302C1
:102C5000D46D9307800363CD673AFD4763C2675223
:102C600093070002B387674033D965003316F80035
:102C7000B395F50033662601335368003339B0004D
:102C800033662601330767403309CE4033362E01C1
:102C9000118F9317870063DA072A131A9700135AC4
:102CA0009A00630B0A345285EF0070506115930748
:102CB0000002898F3317AA00B357F900D98F331A4E
:102CC000A90063408532018D13071500FD4663C0DE
:102CD000E64493060002998E3359EA003396D700F2
:102CE000B316DA0033662601B336D0003369D60056
:102CF00033D7E700B367E90063800716937779005D
:102D000093151900131617009356F90113F5750062
:102D1000B296014311C909466381C9660D46054350
:102D20006385C9646388096237060001F18E13B5B3
:102D30001600E38C071001448947638CF9268D4700
:102D40006388F92863820924B7058000F98D05435B
:102D500019C1136323006383054A05049307F07FB9
:102D60006303F420B70780FFFD17F98F1396D7018F
:102D700013593900A60733662601B1831374F47F13
:102D800085881397C70052043183FE04418F458F15
:102D90003285BA856314032AF2406244D244424920
:102DA000B249224A05618280635D600C638C08161B
:102DB000B70780003368F800630AD4519307800393
:102DC00063CC6736FD4763D06746130603FE93075F
:102DD00000023356C800630AF300930700043383EC
:102DE000674033186800B3E50501B335B0004D8E78
:102DF00081AEB367B8001303148099E393C616003D
:102E00006381D4086315030C9307140093F7E77FDD
:102E100063920724B36EC701B367B8006312045A04
:102E2000638E0E486382074A3305BE40B337AE0057
:102E3000330607411D8E9317860063D4076A3389D2
:102E4000C541B307E840B3B525013387B740B36741
:102E5000E900B684E39407EA014601440143B2075E
:102E6000B1831374F47F858829BFB367B800638684
:102E7000071A9307F3FF638007486309D3453E832E
:102E8000C9BB631003209306140093F7E67F639A8F
:102E9000074EB366C701631E043EB367B800638A7A
:102EA000065A638307423309BE00B307070133366E
:102EB000C9013387C70093178700E3DD07E2B7072F
:102EC00080FFFD177D8F05449377790069A0B38754
:102ED0008840631304203365C70125C11385F7FFBC
:102EE000630F05541303F07F63866760AA87130698
:102EF0008003634BF62A7D466348F65013050002B3
:102F00001D8D3316A7003353FE003315AE00336614
:102F100066003339A000B357F70033662601330843
:102F2000F84079A4B367B800EDCB9307F3FF638053
:102F30000732630BD34B3E8351B51307F07F638A8F
:102F4000E75E42872E893E84B684B367E900E305D5
:102F500004DA937779000145E39007DEB705800036
:102F6000F98D0143CDBB638F090C8D47638BF90C41
:102F70008947638BF93013635300B70700207D56F0
:102F8000FD171304E07FE1BDB70580009377F900DA
:102F900091460543F98DE38DD7DA9337C9FF93C77F
:102FA00017003E97B7058000F98D1109E31305DA84
:102FB0005DB3E38B04D89307890033B627013297BA
:102FC000B7058000F98D3E890543E31405D861B348
:102FD000FDD00543B7058000F98D8544E31B05D678
:102FE0009DBB370780FF7D177D8F5289098CB367A2
:102FF000E900E30304D0B1BF4A85EF00501B9307FB
:1030000085FF7D476105B317F900E34CA7CA45B1B9
:103010003368B8003336000185B9630FD331B70583
:1030200080001A84F98D7289014335B3638888481A
:10303000639F07480145B705F87F4143732013009C
:10304000A1BB95F81363530085881304F07F814773
:10305000014605BB3309BE40B3372E01330A074191
:10306000330AFA4093178A0063C20734B3674901F1
:10307000E39907C29384E9FF93B414000146014425
:10308000F9BBB3878840630E0412370580009306AE
:10309000F07F498F6387D8509306800363C1F6366B
:1030A000FD4663C3F646930600029D8E3316D70095
:1030B0003355FE00B316DE00498E3339D000B357C6
:1030C000F700336626013E983309B600B337B900DE
:1030D00033870701468495A8370380001305F07FE6
:1030E00033676700E395A8E0B365B8006382052005
:1030F0000E060D829317D801131798005D8EB684C3
:1031000093573800014363460710414319A2051540
:103110009306000233D5A700630AD7009306000484
:103120003387E640B397E700336AFA00B3374001CC
:10313000C98F3E890147C9B63368B80033360001EC
:103140003309C6013336C901329793178700E3DE8E
:1031500007DE05049307F07F6303F408B70780FFD9
:10316000FD17F98F1376190013571900598E13990B
:10317000F7013369C90013D7170093777900E1BBD2
:10318000130603FE930700023356C800630AF300D8
:10319000930700043383674033186800B3E50501E3
:1031A000B335B0004D8ECDB43366C7013336C000A1
:1031B0003389C540B3B725013307F8404684B68448
:1031C000C9BCB366C701638906289386F7FF638B82
:1031D00006381305F07F638EA740B68775BD6383FD
:1031E00009208D47638BF93E8947638FF93C6390D3
:1031F00009441304E07F01470D4915439317D70194
:10320000135639009306F07F5D8E93573700E3180D
:10321000D4C4D18FE38A07E281441304F07FB70757
:1032200008000146B9BE93070002B387674033D94F
:1032300065003316F800B395F50033662601335365
:1032400068003339B000336626011A97D5BD3309BB
:10325000BE00B30707013336C9013387C700931790
:1032600087000544E3D707CEB70780FFFD17F98F26
:10327000135619001399F7013369C90013D71700C2
:10328000094493777900C1B913635300E38704CEEF
:1032900065BB9307F07F6300F42E6388F81E638C90
:1032A000061E3368B800E31908F6131635009317A5
:1032B000D7010D825D8E93573700A1BF638B071630
:1032C000814742872E8EB68472891DBC3366C70142
:1032D0000DC2370340000E05337367001316D70184
:1032E0000D8113331300498E93573700120315B71E
:1032F000B684014391BB3309BE40B307074133365F
:103300002E013387C740931787000544E3C707980A
:1033100089B13366C70171DE3703400013163500EB
:10332000337367009317D7010D82133313005D8E3B
:10333000120393573700F1BDB367C701CDEB0147C7
:10334000014E01439317D70113563E005D8E9357EC
:103350003700C1B513F6F5001145E307A69C93B5F8
:10336000C5FF93C51500AE96C1B2E39F049A13B68C
:1033700085FF13461600B29645BA0543E386049AC4
:10338000FDB79307F07F6381F60EF295B30707014F
:1033900033B7C501BA971396F70185813369B60033
:1033A00013D7170036849377790075B63389C541F2
:1033B0003308E840B3B52501330AB840B684D5B028
:1033C0009305F07F6301B40E638AB80EE3820EC6E4
:1033D000E39407E40E051316D7010D81498E935728
:1033E000370005BD15438DB1B367C70199D33703C6
:1033F000400033736700133313001203A1B7336621
:10340000C7013336C000C9B1138607FE1305000299
:103410003359C700638AA70013060004B307F640B8
:10342000B317F700336EFE003336C0013366260152
:1034300041B39384E9FF93B4140001460DB433897A
:10344000C541B307E840B3B525013387B740B6841B
:103450005DBD42872E894DB01307F07F6388E70E6C
:1034600042872E893E84D5B4E38E09F68D47638565
:10347000F91C8947638AF914639B091A01451543AE
:103480001304E07F7D577D5909BEB365B800639290
:103490000510E39C06E00E069317D8010D825D8EA1
:1034A00093573800BDB3E3830EB89315970063C3F9
:1034B000050041439305F07FE39CB8F06388071251
:1034C0009317980063C307004143E3970ED4931703
:1034D00036008D831316D8015D8EB684935738005D
:1034E0000DBBB367C500B1D72A8E937775003287BD
:1034F000728939B0B365B800E38C05DE93173600E6
:103500008D831316D801CDBE138607FE93060002E5
:103510003359C700638AD70093060004B387F64087
:10352000B317F700336EFE003336C0013366260151
:1035300061BE336EB80063020E0E93179800428787
:103540002E8EB68463CE07004143EDBB336EB800C8
:1035500063010E0E9317980042872E8EE3D607FE66
:103560000143CDB33309BE00B3070701B335B9003A
:103570003387B700EDB1D5C69317970063C3070033
:1035800041439307F07FE39EF8D0B365B800E38E24
:1035900005D09317980063C307004143E38D06EEFF
:1035A000A5B9B365B800E38605D4370340000E061D
:1035B000337368009317D8010D82133313005D8EA7
:1035C000120393573800B1B1E39E04E01304E07F87
:1035D0007D577D5915436FF04FF8E38504E01304E0
:1035E000E07F01457D597D571543EDB2E3840EA47C
:1035F000D5B3B365B800E38E05CE3703400093170B
:103600003600337368008D831316D801133313000B
:103610005D8E120393573800EDBE0147B684014317
:1036200015B3E39A88E6B365B800A5F5ADB51543C3
:103630002DBA0147014339B3E38604DA0145130487
:10364000E07F7D597D57154371B2B7058000F98D34
:103650000144639206F0630003F0136323006FF0EC
:103660008FEF2A88F32720003705100093D74501F4
:103670001307F5FF93F7F77F9308E03FC2866D8F3E
:1036800013D6F50163C2F80291EB336707010145D8
:1036900081453DCF854673A0160082800145814556
:1036A000854673A01600D5BF9305D04363DAF502B3
:1036B0008545918DB306B04013D5F541B70500801F
:1036C000898DB338D0003685B385154141C21306C4
:1036D000E043C146E391C7FC336707014DFF828099
:1036E00093082043B365A70063D5F8021387D7BAC0
:1036F0009387D7BC63430708B315E800014551DE43
:103700003305A040B337A000B305B0409D8D828043
:103710008280130730431D8F7D45634DE5029387FB
:10372000D7BEB316F8003355E800B397F500B336AB
:10373000D0005D8DB3D5E50001CA3305A040B33795
:10374000A000B305B0409D8DB9F68280C14673A03C
:103750001600A1B7130500026308A7009386D7C01F
:10376000B396D500B3E60601130530411D8D33D560
:10377000A500B336D0008145C1B7FD4613571800E8
:103780009D8E3357D700B395F500D98D3315F800CA
:10379000BDB7011106CE22CC26CA4AC84EC652C4B5
:1037A00056C2F32A2000B367B500A1C3AA892E8AA6
:1037B00013D9F50163C105062E84D284630A0A0673
:1037C0005285F5229306E043898E9307304363CEFA
:1037D000D7089317CA002D464E8793F6F67FB1831C
:1037E0006359A600130655FF9DA0014981468147F4
:1037F0000147B207D206B1831316F901D58FD18FD5
:103800003A85BE85F2406244D2444249B249224AD6
:10381000924A056182803305A0403337A000330A05
:10382000B040330AEA40AA892E84D284E31A0AF807
:103830004E85B52A2A869306E04313050502898E34
:103840009307A00293F6F67F63C2A70C55061307F1
:10385000B002098FB317CA0033D7E9005D8F931701
:10386000C700B1833397C90069B79307604363DA30
:10387000D702A144898C138604FE634F060C33568D
:10388000CA00814413078501930785036349070A2A
:10389000339AE9008149B3E94901B3393001B36989
:1038A0003601A14763C7A704370780FF7D1793F749
:1038B0007900F98CA5C78947638CFA0A8D4763851F
:1038C000FA0E638B0A0C1397940093F6F67F939588
:1038D00046019356C700CD8E93D939001316F901CE
:1038E000F604B3E43401558E2685B28573E01000EA
:1038F00011BF93078002130785FF898FB3D7F900A3
:10390000B394E400DD8CB399E90079BF130756FF47
:10391000B397E900B207B1830147E1BD1397940063
:1039200093F6F67FD206318313D53900F604931748
:10393000F901D98EC98CD58F2685BE85E1B5FD45A7
:1039400013D719009D8D3357B700331AFA00336A25
:103950004701B399F90081B77D47058F93171A0086
:1039600033D69900B397E7005D8EB3549A0019BF20
:10397000E35B04F413878900B3393701CE94B707AA
:103980008000E58FBA89A1D3B70780FFFD179306A2
:10399000F043FD8C898E05BF93F7F9001147E3844E
:1039A000E7F213874900C9BFE35604FC29BFC1678A
:1039B000637CF5029307F00F1307000263EBA70087
:1039C000970700009387870DAA9788233305A740A0
:1039D00082802181970700009387470CAA9788234C
:1039E00061473305A7408280B7070001636DF5008A
:1039F0006181970700009387670AAA978823214768
:103A00003305A7408280418197070000938707090B
:103A1000AA97882341473305A74082800000B4431A
:103A2000C3F5C840000070420000C84300000041D8
:103A300053797374656D436C6B3A25640D0A00000D
:103A40004368697049443A253038780D0A0000000F
:103A5000286E756C6C29000050EDFFFF0AECFFFF2B
:103A60000AECFFFF08ECFFFF10ECFFFF10ECFFFF7C
:103A70003CF0FFFF08ECFFFF10ECFFFF3CF0FFFF06
:103A800010ECFFFF08ECFFFF3CEDFFFF3CEDFFFFFC
:103A90003CEDFFFF2EEDFFFF0001020203030303D5
:103AA00004040404040404040505050505050505CE
:103AB00005050505050505050606060606060606AE
:103AC0000606060606060606060606060606060696
:103AD000060606060606060607070707070707077E
:103AE0000707070707070707070707070707070766
:103AF0000707070707070707070707070707070756
:103B00000707070707070707070707070707070745
:103B1000070707070707070708080808080808082D
:103B20000808080808080808080808080808080815
:103B30000808080808080808080808080808080805
:103B400008080808080808080808080808080808F5
:103B500008080808080808080808080808080808E5
:103B600008080808080808080808080808080808D5
:103B700008080808080808080808080808080808C5
:103B800008080808080808080808080808080808B5
:083B90000808080808080808ED
:103B980000000000000000000102030406070809F5
:103BA80000000000010203040102030406070809DB
:103BB8000200000000D8B805020406080000000052
:00000001FF
