:040000006F00D0219C
:1000040000000000000000002002000022020000A6
:10001400000000001A0A00000000000000000000B8
:100024001A0A00001A0A0000000000000000000084
:100034001A0A0000000000001A0A00000000000074
:100044001A0A00001A0A00001A0A00001A0A00001C
:100054001A0A00001A0A00001A0A00001A0A00000C
:100064001A0A00001A0A00001A0A00001A0A0000FC
:100074001A0A00001A0A00001A0A00001A0A0000EC
:100084001A0A00001A0A00001A0A00001A0A0000DC
:10009400080300001A0A00001A0A00001A0A0000E5
:1000A4001A0A00001A0A00001A0A00001A0A0000BC
:1000B4001A0A00001A0A00001A0A00001A0A0000AC
:1000C4001A0A00001A0A00001A0A00001A0A00009C
:1000D4001A0A00001A0A00001A0A00001A0A00008C
:1000E4001A0A00001A0A00001A0A00001A0A00007C
:1000F4001A0A00001A0A00001A0A00001A0A00006C
:10010400000000001A0A00001A0A00001A0A00007F
:100114001A0A00001A0A00001A0A00001A0A00004B
:100124001A0A00001A0A00001A0A00001A0A00003B
:100134001A0A00001A0A00001A0A00001A0A00002B
:100144001A0A00001A0A00001A0A00001A0A00001B
:100154001A0A00001A0A00001A0A00001A0A00000B
:100164001A0A00001A0A00001A0A00001A0A0000FB
:100174001A0A00001A0A00001A0A00001A0A0000EB
:100184001A0A00001A0A00001A0A00001A0A0000DB
:100194001A0A00001A0A00001A0A00001A0A0000CB
:1001A400000000000000000000000000000000004B
:0C01B4000000000000000000000000003F
:1001C000397101436EC619A0397141536AC866CAB4
:1001D00062CC5ECE19A0397101535AD056D252D496
:1001E0004ED64AD826DA22DC06DE3301614082820E
:1001F00041114AC026C222C406C68282B24D4101C4
:10020000024D924C224CB24B4101024B924A224A7F
:10021000B2494101024992442244B24041018280E4
:1002200001A0B707EFBE37E700E0938707083CC798
:1002300001A0EFF2FFFB83A80181B767004093871D
:10024000074081466304F500C6868948B145B385F9
:10025000B6029387C1843143130E0002930E20022D
:10026000AE979385C18463C616018145EF00700C7B
:100270002DA8338766022E971847058B29C303C81C
:1002800087000327051B1378E8FF799B6300C803E9
:10029000631DD80103A807006306E80003A8470010
:1002A000631FE8008145EF001000ADB703A8070009
:1002B0003347070103A847003377070165D7850651
:1002C000B10755B7EFF2DFF2376400400111AA849D
:1002D000814513050440EF0030070DC570008145CE
:1002E00013050440B9377C000147A146AC3733867B
:1002F000E40005070CA28507E31AD7FE0345610158
:10030000056109BF0145EDBF3765004041118945D1
:1003100013050540EF00B0041DC128006537814773
:100320001387C18363C0A70201C505472382E18407
:1003300037650040894513050540EF00500F410126
:10034000730020303400BE969022B306F700850774
:1003500090A2C9BFEFF2DFE6138441812E890C40E1
:100360003971AA844A85328DEF30806CA685EF0002
:10037000D0530C404A85EF30A06B2A89A68526858C
:10038000EF30F05D2A84CA854A85EF30505DAA853A
:100390002285EF30E069EF0070512AC83755000020
:1003A000130585AEEF105025B757000003AB07AD1E
:1003B00083AB47ADB757000003A8C7AD83A787AD90
:1003C0001304000001493ECC42CEB70400809309DB
:1003D000000093C4F4FF130A00002285C523AA8CF1
:1003E000CE852285EF30C064AA8AC92BD2852ADE49
:1003F0005685EF30E0632A8CD1232ADC22858523C1
:100400002ADA5685A92B2AD86285912B03A7418029
:1004100003AC8180E6852AD63A853AD083AAC1808A
:10042000EF30F053B707002083A50708EF30406096
:100430007253AA8C62859A85EF307052AA856685C0
:10044000EF30005FE258AA8C5685C685EF303051F8
:10045000AA856685EF30C05DEA85EF305079525845
:100460000257AA8CC2853A85EF30704F42562AD087
:100470006285B285EF30B04E0257AA853A85EF30DB
:10048000205BB2562A8C5685B685EF30504DAA8532
:100490006285EF30E059AA854245EF305075AA8A4F
:1004A000E6856685EF30B04B2A8CD6855685EF30D1
:1004B000104BAA856285EF30A057EF00303F03ACA8
:1004C000C181B3F594016285EF305038635AA000C2
:1004D000B3F554016285EF3070376353A00005090E
:1004E00083AA81815285D685EF3080542A8AEF40D5
:1004F00060325A86DE86EF20C061E34005EED68585
:100500004E85EF30E052AA89EF40C0305A86DE8631
:10051000EF202060E34105ECD6852285EF30405185
:100520002A84EF40202F6246F246EF20805EE34EA1
:1005300005E837550000130545B0EF10F00B630DCB
:10054000090637550000CA85130505B1930400005C
:10055000EF1070082685EF40E02B2AD026852ED29A
:10056000EF40402B2ACC26852ECEEF40A02A2ECA63
:10057000B75500002AC803A505AE83A545AE268958
:100580002AC426852EC6EF40E028F247025892582A
:1005900062474246D2462AC0375500002EC2130594
:1005A000C5B2EF10500323A8918223AA918226841A
:1005B00023AC9182216199B1375500001305C5B66E
:1005C000EF109003C5BFEFF2BFC29922EF00902257
:1005D000716513050520EF00502483A5018237556E
:1005E0000000130545AAEF10007FE12DAA853755BD
:1005F0000000130545ABEF10007E375500001305D2
:1006000045ACEF10607FB757000003A607AAB2857C
:100610003285893301A0B71702409843B706FFF02F
:1006200041111367170098C3D84337060200758F2E
:10063000D8C39843B706F7FEFD16758F98C3984345
:10064000B706FCFFFD16758F98C3D843B70601FFA8
:10065000FD16758FD8C39843B70600ECFD16758F4D
:1006600098C33707FF0098C723A6070202C402C633
:100670009843C166558F98C3B716024005679C42E0
:10068000F18F3EC6A24785073EC4B24781E7A24725
:10069000E397E7FEB71702409C431397E7006357C1
:1006A000070685473EC632478547631FF704B717DD
:1006B0000240D843B706C1FFFD16D8C3D843D8C3FC
:1006C000D84313670740D8C3D843758FD8C3D843DE
:1006D000B7062900558FD8C39843B7060001558F38
:1006E00098C3984393166700E3DD06FED843B71618
:1006F0000240719BD8C3D84313672700D8C3214752
:10070000DC42B18BE39EE7FE4101828002C661BFFD
:10071000B7160240D8421146318B93870182630598
:10072000C70021466308C70237177A00130707205E
:1007300098C337170240584311839376F700370761
:100740000020130707003697142398433357D70028
:1007500098C38280D842D442416649833D8BF18E52
:100760001306270015CF3D47630FE6024147630F8D
:10077000E602454781456313E6004146A1E237475B
:10078000024003270780418B0DC737177A001307F4
:1007900007203306C70290C3C9DD9843058349BFCC
:1007A00081454946E1BF85453546C9BF81453D463E
:1007B000F1B737173D0013070790E1BF3715024027
:1007C00058559316F700585563DF060411833D8B87
:1007D0009306170037177A00130707203357D702FD
:1007E00098C35455A182BD8A8DE295463307D7023E
:1007F000058398C337170240585794433D8B05072C
:1008000033D7E60298C3984369B705456394A600B9
:10081000E546E9BF3D456396A600D1463387E6022B
:10082000C9BF8906E5BF3D8B9306170037177A00CD
:10083000130707203357D702F1B7EFF27F9BB75763
:10084000000003A907C82A84B7540000CA85EF3006
:10085000500863430502B757000003A947C8228523
:10086000CA85EF30A07E635AA00083A5C4C8228544
:10087000EF30C07D635705044A8483A5C4C8228530
:10088000EF30001BB757000083A507C9EF30E050D9
:10089000B757000083A547C9EF308019EF3070715A
:1008A0006353050001459307D00363D4A7001305E4
:1008B000D00395670A05938747CA3E9508416FF0B4
:1008C0007F95B757000003A587C8D5BFEFF25F92A9
:1008D000B757000003A907C82A84B7540000CA8587
:1008E000EF30207F63430502B757000003A947C8D4
:1008F0002285CA85EF308075635AA00083A5C4C8DD
:100900002285EF30A074635705044A8483A5C4C8C8
:100910002285EF30E011B757000083A507C9EF30FB
:10092000C047B757000083A547C9EF306010EF30CC
:1009300050686353050001459307D00363D4A700B3
:100940001305D00395670A05938707B83E950841BC
:100950006FF05F8CB757000003A5C7C7D5BFEFF294
:100960003F89B757000083A4C7C9B757000003A940
:1009700087C92A84A6852285EF30406D6344A00292
:10098000B757000083A407CAB757000003A987C957
:10099000A6852285EF30E073634C05002285713D0A
:1009A0006FF05F872285CA85EF3070242A84D9B71B
:1009B0002285CA85EF30C0072A84D9BFEFF25F8352
:1009C000B757000083A4C7C9B757000003A987C958
:1009D0002A84A6852285EF3060676344A002B7575A
:1009E000000083A407CAB757000003A987C9A685DA
:1009F0002285EF30006E634C05002285C13D6FF00B
:100A00007F812285CA85EF30901E2A84D9B722853E
:100A1000CA85EF30E0012A84D9BF01A097010020E8
:100A2000938141E6177100201301C15D1745000055
:100A30001305C56497F5FF1F9385C55C1386018375
:100A400063FAC5008322050023A055001105910516
:100A5000E3EAC5FE13850183938541866377B5007C
:100A6000232005001105E36DB5FEFD42739002BC25
:100A7000AD4273904280B762000093828208739007
:100A8000023097F2FFFF9382225893E23200739074
:100A90005230EFF05FB897020000938202B3739078
:100AA00012347300203093974500AA9703A7071BC1
:100AB000118B18A62DE703A7071B558318C203A7A0
:100AC000071B098B18B603A7471B3D8B38A603A746
:100AD000471B218338BA03A7871B38B603A7871B98
:100AE000218358A603A7871B418358B603A7871BFA
:100AF000618378A603A7C71B78B603A7C71B21830A
:100B000018AA03A7C71B418318BA83A7C71BE18391
:100B10003CAA99E95C4593E707025CC5828003A77C
:100B2000071B0D8358C261BF1C4993E707021CC90C
:100B3000828091E55C4593E707025CC582801C4991
:100B400093E707021CC9828089E55C458D8B3E8551
:100B5000828005478147E39CE5FE1C49C5BF5C498F
:100B6000ED8F95C3930700046383F50A63ECB70226
:100B700091476386F50863EAB70085476386F50603
:100B80008947638BF50601458280C147638DF50671
:100B900093070002638BF506A147E396F5FE4845EF
:100BA000118185A093870580BDCF856793870780D6
:100BB00063E0B702930700206381F50693070040C6
:100BC0006380F50693070010E39FF5FA084D15A81A
:100BD000C1676380F504B7070200638EF502A16761
:100BE000E393F5FA484135A80845C1679387171084
:100BF0007D8D3335A000828048450D89DDBF484595
:100C00000D81058982800849CDBF0849D5BF0849B3
:100C100041BF4841F5B7484161B7084D0581D5B797
:100C2000084D0981F9BF084D13750507D9B793071A
:100C300000106386F50663E7B702A1476388F506EF
:100C400063E9B7000547638EE50411476381E50654
:100C5000828013070002638FE50493070004638A10
:100C6000F5048280938705808DCB85679387078005
:100C700063EBB700930700206383F50293070040FE
:100C8000638FF5008280C1676388F502B7070200B1
:100C90006387F502A1676393F502232C0500914752
:100CA00029A8C167938717101CC58280C1475CC5FE
:100CB0008280C1471CC98280A1475CC18280C14734
:100CC000EDBFB7F7FF1F03A5477082809C4513F760
:100CD000070113F8F70001C7D8413368E8008E21F7
:100CE00013F7F50F39C318418146854E3D4F930FD9
:100CF000800293028004214E3396DE00B3F8C500D3
:100D0000631116039398260033131F011343F3FF57
:100D10003377E300B318180133E7E800639FF70562
:100D200050C98506E39AC6FD18C11307F00F637515
:100D3000B70454412146854E3D4F930F80029302E4
:100D40008004414EB398CE0033F715016392E80258
:100D50001317260001173313EF001343F3FFB37685
:100D6000D3003317E800D98E639DF701232A1501BC
:100D70000506E319C6FD54C18280E39457FA10C9F1
:100D80004DB7E39757FE23281501DDB7371702400B
:100D90005C439146B18B6385D700A1466382D70639
:100DA000B7177A00938707201CC1371602405C42B0
:100DB00037070020130707019183BD8BBA9794234F
:100DC0001C41B3D7D7005CC15442A1829D8ABA9618
:100DD0009422B3D6D70014C55442AD829D8A36976B
:100DE0001823B3D7E7005CC55842398393763700A0
:100DF0001387418236971823B3D7E7021CC9828034
:100E00005C435843C166C983758FB7F6FF1F83A63D
:100E1000C670BD8B89071396160163480600C54648
:100E200001466392D702C94739A88946638FD70222
:100E3000BD46638ED702C146638ED702C5460146C2
:100E40006393D700C1471DEF374702400327078050
:100E5000418B05C737177A0013070720B307F7023E
:100E60001CC121D61C41858381B701466DBF054653
:100E7000B547D1BF0146BD47F9B737173D00130746
:100E80000790E9BFB7150240D8559316F700D8551B
:100E900063DF060411833D8B9306170037177A0032
:100EA000130707203357D70218C1D455A182BD8A32
:100EB0008DE295463307D702058318C137170240E4
:100EC000585714413D8B050733D7E60218C1184126
:100ED00071B785456394B600E546E9BFBD456396A5
:100EE000B600D1463387E602C9BF8906E5BF3D8B10
:100EF0009306170037177A00130707203357D702D6
:100F0000F1B799C5371702401C4F5D8D08CF82801D
:100F1000B7170240984F1345F5FF798D88CF82802F
:100F200099C5371702405C4F5D8D48CF8280B71757
:100F30000240D84F1345F5FF798DC8CF8280EFF27C
:100F40002FAB1629F577FD17F58FF621DA25797184
:100F5000D58F1EA95625FD779387379FF58FD6210C
:100F60002A842EC6D58F9625D58FB625D58F5EA51A
:100F70005E29C207C18393F7F7CFD98F5EA96808AE
:100F80003135B747014093870780B245631EF402AD
:100F9000A2576547B387E7029841930640060A07C0
:100FA000B3D7E70233D7D702B3F7D70212079207B6
:100FB00093872703B3D7D702BD8BD98FC207C183CD
:100FC0001EA445616FF00FA59257E1B791C55E254C
:100FD0000967D98F5EA582805A25F977FD17F98FA9
:100FE000D5BF93F5F51F4EA182800A216D8D333553
:100FF000A000828083A7018237177A001307072099
:10100000B3D7E70293F7F70F2384F1841307803EE9
:10101000B387E7022393F1848280EFF26F9D011181
:101020002A84854537050200E53D85451145D13DBA
:1010300091477C82371501408D473EC44C00E14703
:10104000130505803EC6593122C837440040B70712
:1010500008000C08130504403ECC02CA231E010000
:10106000F93D854513050440953705616FF08F9A6A
:10107000EFF26F96B7440040AE8932890144938401
:101080000440634524014A856FF02F9893050004BE
:101090002685A13F65DDB387890083850700268506
:1010A0000504C205C181353FE9BF65A8397122DC5D
:1010B00026DA4AD806DE2A84352C93878182844337
:1010C000FD572A89638EF400A2852285EF30A06A3D
:1010D00001E9930500002285EF20B07F63490500F8
:1010E000F25062544A85D254425921618280854728
:1010F0003EC42285974700009387C7CA3EC602D4E4
:10110000EF3040712ACC2ECE2AC82ECA9DCC014683
:1011100081463285B685EF1080442AD02ED2894789
:101120006397F402EF305017930710021CC1A257C7
:1011300085E702559255EF30A078F25062542A8923
:101140004A85D25442592161828002D002D22800BD
:10115000412469D9A257F1DFEF301014A2571CC106
:10116000C9BFB7070080411193C7F7FF2E8706C696
:1011700022C4FD8D3706807FAA866340B604E98FBE
:101180002A83634CF602B708803F6300170F13549D
:10119000E74109887D81498C8DEB8947630EF4080E
:1011A0008D473685631FF400B24022449747000004
:1011B000938747C0884341018280B6853A85EF20F6
:1011C0003007B240224441018280B9CD638CC5060C
:1011D000638CC7048D8FDD871306C003634BF6084D
:1011E00063580700130640FC1305000063C8C700DE
:1011F000BA853685EF20703A9521E92A854763053F
:10120000F40C89476302F40A4DDC9747000093878A
:1012100027BC8C43EF20D00197470000938747B944
:101220008C43EF30C01C71BF634A03069747000030
:101230009387C7B7884371B797470000938747B72D
:10124000884341B7638DB7028947E307F4FE8D47B2
:10125000E30CF4F4854713050000E314F4F6974714
:101260000000938767B58843A9BF2244B24041017B
:1012700095A297470000938767B3884341B7894792
:101280006304F4068D47630BF40485476302F4049A
:1012900097470000938747B3884325B797470000D7
:1012A0009387C7B1884331BF97470000938747B200
:1012B0008C43EF20E07797470000938767AFAA85BC
:1012C0008843EF30C012F5BDB70700803D8DD5BD16
:1012D00097470000938787AF8843E5B5974700009D
:1012E000938747AE8843F1BD97470000938747AD8A
:1012F0008843C1BD41119317150022C406C68583DA
:101300003707807F2A84AA8563F8E708C9C3AA87BC
:101310006342050A698F9356754105E313178500EB
:101320006345070A014711A0328786079395870016
:1013300013061700E3DA05FE998E370780001306BF
:10134000F7FFF18F938616F85D8F13F6160093174B
:10135000170031EE13D816400145E54681453707A1
:1013600000013386E500FD1663C6C700B305E6003D
:10137000918F3A9586070583EDF699C3050579990E
:101380000585B705003FAA9593167801B695B2403A
:1013900022442E8541018280EF20705CA285EF20DF
:1013A0002069B2402244AA852E854101828093178C
:1013B00027004DB7EF30A003AA85EF20101EB240E2
:1013C0002244AA852E85410182807D57998EB5B72A
:1013D00001458280011122CC1314150026CA4EC685
:1013E00006CE4AC852C40580B7078050AA84AA898D
:1013F0006346F402B707807F63C78716635CA01853
:10140000974700009387879A9C43F2406244D244F6
:101410004249B249224A3E8505618280B707E03ED3
:101420006355F418B70700316344F4147D59A68559
:101430002685EF20D052AA852A8AEF20505297475E
:1014400000009387679A8C432A84EF205051974776
:1014500000009387A7998C43EF20805DA285EF2041
:101460001050974700009387A7988C43EF20405C6B
:10147000A285EF20D04E974700009387A7978C4313
:10148000EF20005BA285EF20904D974700009387E7
:10149000A7968C43EF20C059A285EF20504C974768
:1014A00000009387A7958C43EF208058D285EF20CA
:1014B000104B974700009387A7948C432A8A228574
:1014C000EF20F049974700009387C7938C43EF20A4
:1014D0001072A285EF20B048974700009387C7920B
:1014E0008C43EF20D070A285EF2070479747000013
:1014F0009387C7918C43EF20906FA285EF203046F1
:10150000974700009387C7908C43EF20506EA285C9
:10151000EF20F044AA855285EF208051A685EF2068
:101520001044FD57AA85630DF9060A099747000084
:101530009387478FCA978C43974700009387878D7F
:101540003E99EF20D06AA685EF20706AAA85032510
:101550000900EF20D069AA87E3D909EA370700809C
:10156000B347A7005DB5AA85EF20804CAA8771BD5F
:1015700097470000938707868C43EF20604B97477F
:101580000000938767858C43EF20502CA687E35F8C
:10159000A0E8A5BD97470000938747829C43B5B557
:1015A0002685EF20D064AA878DB54D28B707983FD0
:1015B000AA846350F404B707303F6355F408AA8542
:1015C000EF20004797470000938707818C4301492C
:1015D000EF20F06197470000938747808C432A846F
:1015E0002685EF20E044AA852285EF20007BAA848F
:1015F0003DBDB7071C40635CF402173400001304C0
:10160000247E0C400949EF20905E0C402A8A2685F2
:10161000EF20F034973700009387077C8C43EF204E
:101620002041AA855285EF204077AA8409B59737D3
:1016300000009387277B8843A6850D49EF20E0753E
:10164000AA84F5B317340000130404790C4005494B
:10165000EF20F0592A8A0C402685D1B7060505816E
:101660008280011106CE2EC60DCD1841AA8705C372
:1016700058417D5511CB8546631BD7009847230001
:10168000070023A207000545F240056182809847C4
:10169000B24614A39847050798C7D8437D17D8C307
:1016A000DDB705466C00EFF0BF9CF1BF797122D425
:1016B00026D24ECE52CC56CA06D64AD05AC82A8A0C
:1016C000AE8A328481449309000263440602B387E0
:1016D0009A00838707009DE363D6840263D2E40205
:1016E000198C93F726009309000281C719E3930927
:1016F0000003858A01499DE6228929A88504C1BF86
:10170000058CC5B70144F1BFCE8552853AC6913FDD
:1017100032477D19E34A20FF2289635304000149BF
:101720003304244163CBE402CA84B3872441D697AF
:10173000838507009DED22896341200563530400E2
:10174000014433059400B250225492540259F24994
:10175000624AD24A424B45618280B3049740268B4D
:101760009305000352857D1BED3DE31B0BFE26997F
:1017700065BF5285FD3585044DBFCE855285D53573
:101780007D195DBF5D71A6C252DC86C6A2C4CAC007
:101790004EDE56DABA843E8A95E19307000301478C
:1017A000D28626862C08FC841137B64026449644FF
:1017B0000649F259625AD25A616182802A89368476
:1017C000C68A91CAA94701446317F60063D505008C
:1017D000B305B0400544A30701029307F102A546F3
:1017E000130568FC33F7C50263D3E6002A97130795
:1017F0000703A38FE7FE9389F7FF33D7C50263F78B
:10180000C50401CCB9C413772A0021C79305D002BF
:101810004A8542C6B9353248FD1493774A0099CFBC
:1018200093071006930500034A85631CF802153DD3
:10183000930580074A8535350904F9145687D28601
:101840002686CE854A859D35229585B7BA85CE8771
:1018500051BF1307D002A38FE9FE01449389E7FF2C
:101860006DBF013593058005F1B71D71CAC8CEC69D
:10187000D6C2DAC03A8986CEA2CCA6CAD2C45EDE6F
:1018800062DC66DA6AD86ED633E7C500BE89AA8AFA
:10189000428B8347010629E385CF8D679387D70263
:1018A0007C84230501000147DA864E862C0056858C
:1018B000F53BF6406644D6444649B649264A964A20
:1018C000064BF25B625CD25C425DB25D2561828058
:1018D000930700037C84C1BF368AAE8432846300E0
:1018E0000902A9470149639CF600635A0600B30444
:1018F000B040B33790003304C0401D8C0549A30F9E
:101900000100130DF101935DFA41A54C138C68FCA5
:101910005286EE862685A285EF00D00B63D3AC00FD
:10192000629513050503A30FADFE5286EE8626854C
:10193000A285930BFDFF31236366B40163988D028A
:1019400063F64403630C09006386090293772B0056
:1019500095C39305D00256852933FD190147DA86D0
:101960004E86DE85568599334A95A1B7AA842E8482
:101970005E8D79BF9307D002A38FFBFE0149930BC5
:10198000EDFFE9BF5D71A6C2CAC0AA842E892E856B
:10199000B28586C63ACE42CCA2C44EDE52DCB289B3
:1019A000368A56DA5AD8BE8A5ED662D466D2468C59
:1019B0006AD0EF10D0602A8BAE8B01468146CE856F
:1019C0004A85EF100015724762487D81BA872AC0A8
:1019D0000547E288D286DA855E86268579352A8DA6
:1019E0009305E0022685B539050D8147854C0144F4
:1019F000294763CD57075A85DE85EF1010682A8680
:101A0000AE864A85CE85EF10A0672A89AE896685A5
:101A1000A285EF1090662A86AE864A85CE85EF10A5
:101A2000A01AEF10D05913D6F541318DB347B60047
:101A3000B305C5403335B5003386C74002C0E288E0
:101A4000D687D286098E094826850547393DB64096
:101A500026446A9596440649F259625AD25A425B24
:101A6000B25B225C925C025D61618280B306870298
:101A7000850733349703B30C970336949DBF5D718C
:101A80005AD8375B0000A2C4A6C2CAC04EDE52DCE0
:101A900056DA5ED662D486C666D2AA892E89328488
:101AA000014A8144930B5002930AB002294C130B54
:101AB0000BE3830509008DE56386090081454E85AA
:101AC000EFF03FBAB6402644268506499644F259BF
:101AD000625AD25A425BB25B225C925C6161828044
:101AE000638875014E85EFF0DFB785040509D1B72E
:101AF00083071900930C1900639A7701930550022C
:101B00004E85EFF01FB685046689CDB7D5D76387BC
:101B1000570563C8FA00130730026384E70481475E
:101B200005A01307D002638AE70013070003E398B8
:101B3000E7FE930C2900894721A0930C29008547D3
:101B400003870C006303570563C1EA029306300262
:101B5000630BD70266890145A54535A8930C29007A
:101B60007DBF930C29009147E1BF9306D002630922
:101B7000D70093060003E31FD7FC93E7270031A0AB
:101B8000850C8547C1BF93E74700850CE1B7330556
:101B900085030509369503070900930607FD13F62B
:101BA000F60FE3F6C5FE1306E0029946631EC70072
:101BB00005098146254603070900130707FD9375AC
:101BC000F70F6375B602368A030709001306A006ED
:101BD0006309C70A6341E6021306C0046303C70A28
:101BE000130680066308C70801461DA8B38686034E
:101BF0000509BA96C9B7130640076304C708130658
:101C0000A0076300C7089305C0060146631AB70022
:101C1000830519000D466394E50005091146050981
:101C200003070900930500061308100663C4E500C6
:101C3000130810049305700663C2E5069305500669
:101C40006359B7169305700463CFE5021306500479
:101C50006351C71693063004E31AD7E81840930C73
:101C60004400A30E0100230EE100BE8601472A8630
:101C70006C0871A0830519000146E393E5FA090990
:101C800045B7050995B793063006E309D7FC63CE3F
:101C9000E606930680056303D70289BD93063007E5
:101CA0006306D70463CDE6029306F006630BD70CF8
:101CB0009306000793E74700E31AD7E21147631B37
:101CC000E60A1D04137784FF0C4350431304870076
:101CD000C28802C03E880147AA87C146B9A09306C0
:101CE00050076303D7069306800775B71840930C17
:101CF0004400DA8511C3BA855287BE862A864E858E
:101D0000EFF0DF9AAA946684D5B311476314E60214
:101D10001D04137784FF0C43504313048700C288CB
:101D200002C03E880547AA87A9464E85EFF0FFB35B
:101D3000AA946DBB0C40D28811042A878546294697
:101D40004E85EFF03FA4EDB71147631FE6001D0479
:101D5000137784FF0C43504313048700C28802C0EA
:101D60003E880147AA87C9B70C40D28811042A8748
:101D70008146F1B70C40D28811042A87814641463A
:101D8000C1B711476310E6021D04137784FF0C43AB
:101D9000504313048700C28802C03E880147AA87C7
:101DA000A14661B70C40D28811042A87814621469A
:101DB00041BF1D04137684FF130486000C42504279
:101DC0003307D540C2887D173E884E85B687A94621
:101DD000EFF05FBBB1BF39712ED232D4AA8550105B
:101DE000014506CE36D63AD83EDA42DC46DE32C669
:101DF0007931F24021618280011122CC26CA06CEBF
:101E00001C21AA840144DC878307F100050499EFB3
:101E1000A9479305F10005460145DC87EFF04FA582
:101E20002285F2406244D2440561828005469305D2
:101E3000F1000145EFF0CFA3B38784009C23DC873A
:101E4000E1B7B687B2882A832E88639B061463F8AD
:101E5000C50A4167636BE61AB70700016360F63491
:101E600093568601E147173700001307271136976D
:101E70001823BA97130700021D8F19CB3398E5007A
:101E8000B357F500B318E60033E807013313E50054
:101E900013D608013355C80293960801C18293579F
:101EA00003013377C802B385A60242073368F700FF
:101EB000637AB80046989307F5FF63641801636579
:101EC000B8303E853308B8403357C8024203135335
:101ED00003013378C802B386E6024208336868001B
:101EE000637BD80046989307F7FF6365180179175D
:101EF0006363D8003E874205598D8145828001E6A3
:101F00000547B358C702416763E8E80EB707000109
:101F100063EAF82893D68801E147173700001307D2
:101F2000E70536971423BE9693070002958FFDE7C9
:101F3000939E08013387154113DF080193DE0E01DC
:101F40008545935703013355E7033377E703B3061A
:101F5000D5034207D98F63FAD700C6971307F5FF59
:101F600063E4170163E5D7263A85958F33D7E703F6
:101F7000420313530301B3F7E703B30ED703C207BA
:101F8000B3E7670063FBD701C6979306F7FF63E5E6
:101F90001701791763E3D70136874205598D82808F
:101FA00063E1D504C16763E1F604B707000163E3A9
:101FB000F61E13D78601614897370000938707FC08
:101FC000BA979823130E00024297330EEE40631A1D
:101FD0000E0C63EDB61C3335C50013451500814565
:101FE00082808145014582809307F00F63F3D71CFF
:101FF00013D786002148C9B71307F00FC686E37EC2
:1020000017F193D68800A14709BF1307F00FB286D6
:10201000E37BC7E493568600A147B1B5B398F800B7
:1020200033D6D50013DF0801335EE6033397F5009E
:10203000B356D500558F939E080193DE0E013313DE
:10204000F50093550701B376E603B387CE03C206C6
:10205000CD8E63FBF600C6961306FEFF63E41617EB
:1020600063F2F616791EC6969D8E33D6E603931755
:102070000701C183B3F6E6033385CE021397060149
:102080005D8F637BA70046979307F6FF636817137E
:102090006376A7127916469793150E01098FD18D95
:1020A0004DB5B357E600B396C601DD8E33D3E500D8
:1020B00013DF0601B357E303939E060193DE0E017F
:1020C0003398C5013357E500336807019358080179
:1020D0003316C6013373E303B385FE024203B368CC
:1020E000130163FBB800B6981387F7FF63EAD80CB7
:1020F00063F8B80CF917B698B388B84033D7E8033B
:10210000420813580801B3F8E8033383EE02C2080B
:10211000B3E5080163FB6500B6951308F7FF63EDAF
:10212000D50863FB65087917B695C207416FD98F4B
:102130001307FFFFB3F6E70093D80701718F4182C1
:10214000B38EE602B3856540B386C60213D80E018E
:102150003387E802BA96C2963386C80263F3E60074
:102160007A9693D80601469663E2C5026385C50058
:102170003E858145828041677D17F98EC206B3FE98
:10218000EE003315C501F696E374D5FE1385F7FF0F
:102190008145828013D70601414839BD9356060117
:1021A000C147D1B193D60801C14785BB81450545DB
:1021B00082803687014809B5428785BF3E86E9BDE2
:1021C000BA871DBF328E4DB579154698E5B9791598
:1021D000C69761BBB68732882A832E872E8E63917D
:1021E000061463F0C50A41676376E61A1307F00F19
:1021F000B2866375C70093568600A1471737000063
:102200001307C7D73697182393080002BA97B388E5
:10221000F840638C0800B3951501B357F5003318E7
:10222000160133EEB7003313150113560801B357E7
:10223000CE0213150801418193560301337ECE026D
:10224000B307F502420E3367DE006378F70042976A
:10225000636507016373F70042971D8FB356C7028A
:1022600093170301C1833377C7023305D5024207B1
:10227000D98F63EBA7083385A740335515018145F6
:10228000828001E605473358C7024167636BE80E59
:10229000B70700016364F82A93568801E1471737AE
:1022A00000001307A7CD3697182393080002BA97AA
:1022B000B388F840639A081E131E0801B3850541D0
:1022C00013560801135E0E0113570301B3D6C5025E
:1022D000B3F5C502B386C603C2054D8F6377D70039
:1022E000429763640701636AD726158F3355C70287
:1022F0004203135303013377C7023305C503420773
:10230000B367670063F8A700C29763E5070163F34B
:10231000A700C2973385A7403355150181458280B8
:102320002A88E3EFD5F4C16763E5F604B707000137
:1023300063E2F62013D38601E148973700009387C4
:10234000E7C39A9703CE070013030002469E3303A8
:10235000C3416319030463E4B6006369C50033082D
:10236000C540958D333705013387E5404285BA85F1
:1023700082809307F00F63FBD71C13D38600A1481C
:102380006DBF1307F00FC286E37B07F193568800F9
:10239000A14731B7B70700016366F61A9356860165
:1023A000E147A9BDB357C601B3966600DD8EB3D829
:1023B000C50113D70601B3DEE802139F0601B35728
:1023C000C501135F0F01B3956500DD8D13D80501BD
:1023D0003316660033156500B3F8E802B307DF0370
:1023E000C20833E80801637BF80036989388FEFF43
:1023F0006363D8166371F816F91E36983308F840EF
:10240000B357E802C205C1813378E802330FFF02F7
:10241000131708014D8F637BE70136979385F7FF0C
:102420006369D7126377E713F9173697C20EC16253
:10243000B3EEFE001388F2FFB3F80E0193550601C8
:1024400093DE0E0133780601B38F08033307E741AB
:1024500033880E0393D70F01B388B802C298C6978A
:10246000B38EBE0263F30701969E41687D1893D533
:102470000701B3F70701C207B3FF0F01F695FE97F7
:102480006362B70A630EB708B307F5403335F5004A
:10249000B305B740898D339EC50133D567003365D9
:1024A000AE00B3D5650082803318180133D7F5002C
:1024B00013560801B356C702131E0801B357F5009F
:1024C000135E0E01B3951501DD8D93DE0501331307
:1024D00015013377C702B307DE0293160701B3E68F
:1024E000D60163F8F600C29663E5060163F3F600D1
:1024F000C2969D8E33D7C60293970501C183B3F66A
:10250000C6023307EE0293950601DD8D63F8E50000
:10251000C29563E5050163F3E500C295998D6DB33E
:10252000E374F5F63386C740B3B7C700B6979D8D01
:10253000B28799BF13D30601C14801B5935608016C
:10254000C147B1BB93560601C1474DB93683814897
:10255000EDB3AE87E1BDC68E55B5429779B33971FB
:1025600093D7450122DC4AD856D22A891394C50054
:1025700006DE26DA4ED652D45AD05ECE13F5F77F59
:10258000318093DAF501630B05109307F07F630B3D
:10259000F514135AD9010E0433648A00370A8000F7
:1025A000336A4401131B3900930415C00144814B65
:1025B00013D846011399C6001378F87FB2881359CF
:1025C000C90093D9F601630E08089307F07F6300F2
:1025D000F8041357D6010E0933692701130818C0F0
:1025E000B70780003367F90093183600B3840441BD
:1025F0008145BD4733C83A0163E4871A9737000025
:102600009387C7830A043E9410403E960286336740
:10261000C900938414806312071013642400814856
:102620008945C1BF1306F07F81470147B207F250C9
:1026300062545206B1837E08D18FB3E70701D254AA
:102640004259B259225A925A025BF24B3A85BE85E0
:102650002161828001481306F07FB7070800014717
:10266000F1B73367C9004DC7630809304A8532C4E2
:10267000EF20A03B2246130755FFF547930685FF41
:10268000998F3319D900B357F60033E72701B318F0
:10269000D60026959304353F8145A1BF336A2401B6
:1026A00063030A0636C632C46306042A2285EF2075
:1026B000C0372246B246AA84130755FF754A138BCA
:1026C00084FF330AEA4033146401335A4901336A00
:1026D0008A00331B69011305D0C0B304954001443F
:1026E000814BF9B5336A240163180A002144014B78
:1026F0009304F07F894B6DBD228A4A8B3144930449
:10270000F07F8D4B75B51144014B8144854B4DB520
:102710001364140081488545E9BD136434004A8779
:102720008D45C1BD630A052E8547898F93068003B9
:1027300063DDF632014681470147CDBDCE8689472C
:10274000638DF53A8D47E387F5F085473688E38357
:10275000F5FE1385F43FE357A0FC93F778006396EA
:10276000072893D638009317770063D80700B70778
:1027700000FFFD177D8F138504409307E07FE3C3BF
:10278000A7EA1316D70193179700B1833367D600D2
:102790001376F57F61BDD6865287DA88DE8545B728
:1027A00063614723630DEA20DA86FD145284014BEE
:1027B0009317870013D388013363F300935E0301FB
:1027C000B357D403131F0301135F0F0193D5060101
:1027D000139E88003374D4033307FF024204C18D73
:1027E00063FBE5009A951386F7FF63EE652663FCAD
:1027F000E526F9179A95998D33D7D503C206C1827C
:10280000B3F5D5033306EF02C205D58D63FBC500D2
:102810009A959306F7FF63E6652463F4C524791758
:102820009A95C20741645D8F9307F4FF3375F700F3
:1028300093580701935F0E01B377FE00B302F502D0
:10284000B386C540B383F80293D502013386AF0245
:102850001E962E963385F803637376002295C16821
:10286000FD1893550601337616014206B3F812019E
:10287000AA95469663E6B6126382B6123306CB403B
:102880008D8E333BCB00338B66411385F43F630C55
:102890006317B358DB0393550601337BDB03B306A1
:1028A0001F03420B33EB6501637BDB001A9B9385AF
:1028B000F8FF636D6B20637BDB20F9181A9B330BE9
:1028C000DB40B356DB0342064182337BDB03330F2D
:1028D000DF02420B33666601637BE6011A9693853D
:1028E000F6FF6367661E6375E61FF9161A96C2083F
:1028F000B3E8D8009395080193D20801C181B38E43
:10290000F5023306E641B385BF0293D60E01B387C5
:10291000F202BE95AE96B38F5F0263F4F600C16714
:10292000BE9FC165FD1593D70601ED8EC206B3FEAD
:10293000BE00BE9FF696637FF6091A969387F8FF4E
:102940006369661A6368F619630FF61BBE8893E81D
:10295000180011B54A85EF20400D13075501F145C8
:10296000930405022246B246E3DAE5D4130485FF58
:10297000331A8900014B85B3328532C4EF20E00A57
:1029800013075501F146AA87224613050502E3D62F
:10299000E6CEE1173317F6008148E5B9E370CBEED8
:1029A000729B3335CB011A95AA961305F7FF63780E
:1029B000D30263E6B6106382D5102A87C1B5E365FA
:1029C0001BDF93551B009316FA0113541A00CD8E8A
:1029D0007E0BF9BBE31DF6F7E38F06D6B9BFE31E06
:1029E000D3FCE378CBFD2A8751BD93F7F8009146DD
:1029F000E389D7D693B7C8FF9386480093C71700DB
:102A00008D823E978DB381468547E34CA0FEFD58ED
:102A1000E31C05D0930410C085471385E441B31629
:102A2000A70033D6F8003395A800D18E3335A00027
:102A3000C98E13F676003357F70001CE93F7F600F0
:102A400011466388C70093874600B3B6D700369710
:102A5000BE869317870063D8070405468147014760
:102A6000F1B636877DBBB28779B3FD46E3D7F6FA78
:102A70000556098E930600023356C7006388D700B7
:102A80009387E443B317F700B3E8F800B3361001B7
:102A9000D18E13F67600814701CE93F7F6001146EA
:102AA0000147E392C7FA931797001316D701B18332
:102AB00013D73600518F014695BEE370CBF0729B61
:102AC0003335CB011A957917AA964DBBAE88C5BB95
:102AD000AE8631BD93171E0033BEC70172931A969E
:102AE000F9183E8EE315F6E7E307DEC693E8180013
:102AF0009DB1BE88E30AF6FF99BD36881306F07FC4
:102B00008147014725B6E367DEFCBE88E310DEFEA1
:102B100099B113D74501B7071000FD1713D8460127
:102B20001377F77F9308F07F33FEB700AA8EF58FF7
:102B3000FD81328F1378F87FFD82630E1703630DDA
:102B4000180129E3B368AE00631F08005D8E01EE33
:102B50000143638C080421A8B3E8C70009436396C6
:102B600008046DD305A0638408046385D50205437A
:102B70008DCD7D531DA8B368AE000943639708024D
:102B8000630AE802631408005D8E75D2E391D5FEF6
:102B9000E34FE8FC63490701E3EBC7FD630FFE0069
:102BA00001436374FE00F1D505431A858280EDFE72
:102BB0007D53E5BF5D8E79DACDBFE36ADFFB01436C
:102BC000E3F5EEFFF5F175B739714AD813D9450130
:102BD0004ED652D456D29399C50006DE22DC26DAB0
:102BE0005AD05ECE1379F97F2A8A93D9C90093DA35
:102BF000F501630D090E9307F07F6306F91813546E
:102C0000D5018E09B36934013704800033E48900AB
:102C100093143500130919C08149814B13D746011C
:102C2000139AC6001377F77FB285135ACA0013DBD5
:102C3000F601630B07109307F07F6303F7049357C4
:102C4000D6010E0A33EA4701130717C0B707800001
:102C5000B367FA00931536003A99814833C76A0181
:102C6000BD463A851308190063E836171726000099
:102C70001306C6208A09B29983A60900B2968286F5
:102C8000B367CA001309F97F6399071293E9290012
:102C900081458948E1B701479307F07F3704080071
:102CA00081443204D20731807E075D8C598CA28525
:102CB000F250625426854259D254B259225A925A3D
:102CC000025BF24B216182805A853E84AE84C68BC2
:102CD0008947638DFB0E8D47E38FFBFA85472A8773
:102CE000639EFB3881470144814465BF33E4A900FA
:102CF00061C036C632C4638C092A4E85EF10F0528B
:102D00002246B246AA87130755FF7544938487FF6E
:102D1000198CB399990033548A0033643401B31485
:102D20009A0013D746011309D0C0139AC60013772F
:102D3000F77F3309F9408149814BB285135ACA00A4
:102D400013DBF601E31907EEB367CA00B1C7630FDF
:102D50000A22528532C4EF10504D22462A8793062C
:102D600055FFF547930587FF958F331ABA00B35780
:102D7000F600B3E74701B315B6003309E94013097C
:102D8000D9C08148E1BD33E4A90001ECA1498144E7
:102D90001309F07F894B59B593E91900814585489E
:102DA00075BD4E84AA84B1491309F07F8D4BBDB522
:102DB000914981440149854B95B593E93900D28702
:102DC0008D4869BD89475685E397FBF02A879307AD
:102DD000F07F01448144F1B5C16E1386FEFF93D6A6
:102DE000040113DE0501F18CF18D338695023383E6
:102DF000B6029358060133059E021A95AA98B3822B
:102E0000C60363F36800F692C16F1383FFFF33F5C7
:102E1000670093D30701B3F76800C20733736600F6
:102E20003E933306950293D80801B387A602135F39
:102E30000601B3849302BE94FA94B38E760263F3D0
:102E4000F400FE9E416A9307FAFF935F0401B37694
:102E5000F400B3F9F4007D8EC1803384D502C20939
:102E6000338FD401B299CE98B307DE02935E04018A
:102E7000B385BF02AE97BE9E330EFE0363F3BE0062
:102E8000529EC1679385F7FF33F6BE006D8C4206F4
:102E9000229693DE0E01B305D502769E3385AF02EE
:102EA00013D40501B386D302AA96A296B38FF30377
:102EB00063F3A600BE9F41657D15B3F7A600C20768
:102EC0006D8DAA97B3855800B3B93501FA97B295BD
:102ED0003384370133B6C500B30EC4013385CE0049
:102EE00033343401B3B7E701C18F33BECE0113D4FD
:102EF00006013336C5003E943366CE0093949500A8
:102F000032947E94B3E46400260493567501B3347E
:102F10009000DD8193179500CD8C558CDD8C931737
:102F2000740063DB070093D7140085889316F401BF
:102F3000DD8CD58C058042899307F93F6359F008F1
:102F400093F6740081CE93F6F40011466388C600B0
:102F500093864400B3B496002694B6849316740006
:102F600063D80600B70700FFFD177D8C9307094063
:102F70009306E07F63CFF60E93D634009314D4010A
:102F80002604D58C318093F7F77F21BB328532C47C
:102F9000EF10B02993065501F147130705022246A9
:102FA000E3D1D7DC6115B317A6008145F9B3EF1063
:102FB000D02713075501F145930705022246B24673
:102FC000E3D5E5D461153314AA00814499BB854645
:102FD0009D8EB1E71309E941B3972401B3D4D4001E
:102FE00033192401B337F000B3649900DD8C93F7F3
:102FF0007400B356D40081CF93F7F4001146638870
:10300000C70093874400B3B49700A696BE849397F5
:10301000860063D8070485470144814459B11306EB
:103020008003E341D6CC7D46E356D6FA0556B30776
:10303000F640930500023356F4006387B600130987
:10304000E943B3172401DD8CB3349000D18C93F69F
:103050007400014499CA93F7F40011468146E39243
:10306000C7FA139496003180F6068D80D58C81477F
:103070000DB99307F07F0144814425B142896DBDAC
:10308000370710007D1701113373B70093D846013D
:10309000758F935ED60122CC26CA0E0393D44501C8
:1030A0009357D5010E0706CE4AC84EC693F8F87F4F
:1030B000130EF07F33E7EE0093F4F47F13D4F501A1
:1030C00033E36700131F3500FD82931E36006380D3
:1030D000C81993C61600B38514416305D412635111
:1030E000B018638B081AB70780005D8F6381C459DD
:1030F0009307800363C4B734FD4763C5B74893079C
:1031000000028D8FB3D9BE003318F700B39EFE00C6
:10311000336838013357B700B339D0013368380109
:103120003303E340B3090F41B3373F013306F340A4
:103130009317860063D30724370980007D193379FC
:103140002601630F092C4A85EF10300E130785FF07
:1031500093070002998FB3D7F9003316E900D18F96
:10316000B399E9006344972A058F13061700FD46BB
:1031700063C5C63A13070002118FB3D6C90033984E
:10318000E9003397E700558F33380001B369070131
:1031900033D6C700814493F7790081CF93F6F900C5
:1031A00091476388F6009386490033B8360142960A
:1031B000B6899317860063D6071C138714009307FC
:1031C000F07F05886306F720B70780FFFD17F18FB2
:1031D0001398D70193D93900A60733683801B18312
:1031E0001377F77F9396C7005207B1827E04D98E7A
:1031F000C18EF2406244D2444249B2494285B6850A
:10320000056182806356B00A638A0812B70780009E
:103210005D8F6387C42D9307800363C7B718FD478D
:1032200063D2B73C138805FE93070002B359070128
:10323000638AF50093070004B385B7403317B700DE
:10324000B3EEEE003338D0013368380195A2B3678E
:10325000D7019385148099E393C61600630AD404BA
:10326000D1E19387140093F7E77F6399071EB36753
:10327000E3013368D701639204166382073C631647
:103280000842131835009316D3011358380033E859
:1032900006019357330019A2B367D7016385071A54
:1032A0009387F5FF638B073A638CC523BE8589B589
:1032B0006399051C9386140093F7E67FC1EFB3670B
:1032C000E30163900436638D0744B367D7016394C9
:1032D00007460E051318D3010D813368A8009357D4
:1032E00033006DA8B385984063970420B367E3016A
:1032F000638D07309387F5FF638907401305F07FDF
:103300006383A520BE859307800363C2B72AFD4768
:1033100063C8B73C930700028D8F3318F300335610
:10332000BF00B317FF003368C800B339F000335350
:10333000B3003368380133076740B5ACB367D701D2
:10334000638307109387F5FF638F071E6380C52F84
:10335000BE85D1B59307F07F638BF606FA9E33B630
:10336000EE01B307E300B2971398F70193DE1E0056
:10337000B369D80113D61700B68493F77900E39F99
:1033800007E09317D60113D839003368F800A685F3
:10339000935736001307F07F6380E506B207B183C9
:1033A00013F7F57F05883DBD3367D7013338E0005B
:1033B000B309E801B3B7E9013386670093178600C4
:1033C000E3DD07FA85049307F07F639CF418058812
:1033D0001307F07F8147014831B5639107106301FE
:1033E000083C131836009317D70113583800336878
:1033F000F800368493573700B367F800E9DB0144DF
:103400001307F07FB70708000148E9BB370680FFC4
:103410007D167D8E93F77900998CE39107D895B747
:103420004E85EF10806013078501FD47E3D2E7D298
:10343000130685FFB397C90081492DB33368D701BF
:1034400033380001C5B1131835009317D301135851
:1034500038003368F800935733002DBFB309DF41BC
:103460003309E34033363F013309C94093178900DC
:1034700063CA072033E82901E31508CC81470144DA
:1034800031BFB385984063810414B7068000930769
:10349000F07F3363D3006381F8209307800363CC0C
:1034A000B722FD4763C9B72C930700028D8F3318ED
:1034B000F300B356BF00B317FF003368D800B33929
:1034C000F0003353B300336838011A97B309D801B9
:1034D000B3B7D9013386E700C684CDB5E31108F24E
:1034E000131835009317D301135838003368F800C8
:1034F0009357330011B7370580009307F07F33638C
:10350000A300E392F8E00E061318D7010D8233688A
:10351000C800935737003684C5B5051793060002D7
:1035200033D7E700630AD600930600043386C6400B
:103530003396C700B3E9C90033383001B369E800F6
:10354000014681441DBDB309DF01B307E30033BF6A
:10355000E9013386E701931786008544E3DF07E03E
:103560008944B70780FFFD17F18F13D7190013F8AF
:103570001900336807019399F701B3E9090113D6DC
:10358000170011B9138805FE93070002B35907010C
:10359000638AF50093070004B385B7403317B7007B
:1035A000B3EEEE003338D00133683801A5BE336383
:1035B000E30133386000B3890E41B3B73E013306EF
:1035C000F740C6843684ADB6B367E3016387071856
:1035D0009387F5FF638C071C9306F07F638ED50AF3
:1035E000BE8565BD930700028D8FB3D9BE00331829
:1035F000F700B39EFE00336838013357B700B33984
:10360000D001336838013A9365B313183600931725
:10361000D7011358380033E8070136849357370031
:1036200095BBBDCB3367D701E31B07DC0E05131831
:10363000D3010D813368A8009357330075BBE30FA6
:1036400008E2131836009317D7011358380033686F
:10365000F80036849357370091B3B309DF41B307BD
:10366000E340333F3F013386E7418544D1B413182B
:1036700035009316D3011358380033E806019357E9
:1036800033009DBBB389EE413306674033B93E0139
:1036900033092641368475B40E061318D7010D82FE
:1036A0003368C8009357370081BBB309DF41B307C4
:1036B000E34033363F013386C7409317860063D714
:1036C000070AB389EE41B3076740B3BE3E013386B4
:1036D000D7413684C9B43363E30133386000FDB3A6
:1036E000138805FE93070002B3590301638AF500AE
:1036F00093070004B385B7403313B300336F6F00F3
:103700003338E001336838017DB5B389EE41B30742
:103710006740B3BE3E013386D7413684854409BC39
:10372000131836009317D701135838003368F80080
:1037300093573700A5B1B309DF01B307E30033BFE7
:10374000E9013386E70193178600E3D807C2B7077C
:1037500080FFFD177D8E85440DB10E061318D7012D
:103760000D823368C800935737002DB133E8C90084
:10377000E30608D019B1138805FE93070002B35978
:103780000301638AF50093070004B385B740331340
:10379000B300336F6F003338E001336838013DB355
:1037A00001441307F07FB70708002DBCB309DF0100
:1037B000B307E300B3BED9013386D70169BB37072E
:1037C000100093D745019306F7FF93F7F77F13088F
:1037D000E03FED8E13D6F5016353F8029305D04315
:1037E00063D2F5028545918D3305B04013D6F5417E
:1037F000B7050080B337A000918D9D8D8280014573
:103800008145828013082043B3E5E6006354F80243
:103810001387D7BA9387D7BC63450704B315E50070
:10382000014565D23305A040B337A000B305B040D1
:103830009D8D8280930630439D8E7D47634CD700DB
:103840001387D7BE3397E5003355D500598DB3D5CF
:10385000D500C1BF130530411D8D33D5A50081456D
:10386000C9B7FD46135715009D8E3357D700B39542
:10387000F500D98D3315F5006DB7011106CE22CCB8
:1038800026CA4AC84EC6B367B5009DCFAE84AA8982
:1038900013D9F50163CE05042684ADC42685EF1047
:1038A000C0189306E043898E9307304363CAD70854
:1038B0009397C4002D464E8793F6F67FB1836359E4
:1038C000A600130655FFB9A8014981468147014763
:1038D000B207F2406244D206B1837E09D58FB3E7C6
:1038E0002701D2444249B2493A85BE8505618280AA
:1038F0003305A040B336A000B304B040958CAA892C
:103900002684C9FC4E85EF1040122A869306E043B8
:1039100013050502898E9307A00293F6F67F63C70D
:10392000A70C55061307B002098FB397C40033D70D
:10393000E9005D8F9317C700B1833397C90049BF72
:103940009307604363DBD7022147098F930507FE86
:1039500063C2050CB3D5B400014713068501930774
:103960008503634C06083396C9008149B3E9C90051
:1039700033363001B3E9C5003A84A1474E8663C9A6
:10398000A704B70780FFFD17937576003377F4001F
:1039900085C59375F60011486380050393054600BD
:1039A00033B6C50032971316870063510608930695
:1039B000F0437D8F898E2E8613553600931797001E
:1039C0001316D7013367A600B18393F6F67F09B7C4
:1039D00093078002930585FF898FB3D7F9003317CA
:1039E000B40033E4E7003396B90061BF5516B397CE
:1039F000C900B207B1830147E1BD7D4613D8190064
:103A00001D8E3358C8003396F4003366C800B3994E
:103A1000F900A9BF7D46198E93971400B3D5E9002C
:103A2000B397C700DD8D33D7E40005BF2E8669B795
:103A30004111370780007D1713D8750126C29354B2
:103A400075013373A70093F4F40FB376B7004AC03F
:103A50001378F80F1359F50106C622C4FD819A8721
:103A600026854A86131E3300939E3600B388044190
:103A7000630AB90E6350100D630408149307F00F26
:103A8000638BF414B7070004B3EEFE00ED4763C187
:103A9000172993070002B3871741B397FE00B3D8E5
:103AA0001E01B337F000B3E7F800B307FE401397E9
:103AB0005700635E0718370400047D147D8C22854F
:103AC000EF00B0766D15B317A4006348951A058D05
:103AD0001304150013070002018F3397E7003337F3
:103AE000E000B3D78700D98F814413F7770019C757
:103AF00013F7F70091466303D70091071397570018
:103B0000635B071485041307F00F4A866383E4168A
:103B10009A07A58313F5F40FB2402244A607931425
:103B2000750113D59700458D7E0692440249518D4B
:103B3000410182806399080A138714001377E70F05
:103B40006317071463900422630D0E1EE3860EFCB8
:103B5000B307DE411397570063500722B387CE4166
:103B60002E8961B7635C100B630E08089307F00F92
:103B70006383F406B7070004B3EEFE00ED4763C9A4
:103B8000171F93070002B3871741B397FE00B3D8FE
:103B90001E01B337F000B3E7F800F2971397570010
:103BA0006357070A85041307F00F6384E40CB70614
:103BB000007E13D71700FD16858B758FD98F35B70B
:103BC000638D0E08FD18B307DE41E38208EE93070C
:103BD000F00FE39DF4EA630D030801461305F00FAF
:103BE000B707400015BF33079840EDE863020E1495
:103BF0007D17630807189307F00F6319F80E2E89D5
:103C00003683D1BF638B0E04FD18B307DE01E38753
:103C100008F89307F00FE393F4F675BF639508086F
:103C2000850413F7E40F6313071263170510630F7E
:103C30000E14E3830EEEB307DE01139757008144A1
:103C400063570700370700FC7D17F98F854413F78A
:103C50007700E31F07E813D337009307F00FE38CD7
:103C6000F4F693179300A58313F5F40F4A866DB508
:103C70004A861305F00F814745B5370700FC7D17CD
:103C8000F98F13F77700898CE31407E6E9B733045B
:103C9000DE419317540063C3070CE31204E20146AC
:103CA0000145814795BD33079840ADC49307F00F98
:103CB000E308F8F4B7070004336EFE00ED4763CC69
:103CC000E70C93070002998FB317FE003357EE00FD
:103CD000B337F000D98FF697C284C9B59307F00FB8
:103CE000E30FF8F0B7070004336EFE00ED4763C33F
:103CF000E70893060002998EB316DE00B357EE0074
:103D00003337D000D98FB387FE40C2842E8945B3A4
:103D1000854761BB630E0E067D17B307DE01C284C3
:103D2000E30E07E69307F00FE31AF8F8368365B55C
:103D30003683C2842E8915B7E3040EECE38D0EE8BA
:103D400069BD638D0E022E86B687F9B39307F00F17
:103D5000E381F4F2B307DE018583D5BD3384CE4120
:103D60002E89B1BBE31C0EFCE3890EE62E8949BD0A
:103D7000854725B5854741BFE39B07EC0146814751
:103D800061BBB387CE41C2842E8915B3B68769B3B0
:103D90003683C284D9B585473DBF397193577501C4
:103DA0004AD856D25ECE931A95001359F50106DE15
:103DB00022DC26DA4ED652D45AD093F7F70F93DA94
:103DC0009A00CA8B638207121307F00F6384E7120D
:103DD0008E0A37070004B3EAEA00138A17F8014491
:103DE000014B93D775019394950093F7F70FA58036
:103DF00093D9F501FDC71307F00F6387E7028E041F
:103E0000938717F837070004D98C330AFA408146A4
:103E1000558C171700001307670A0A043A941C40D0
:103E200033493901BA978287130A1AF0F9E88946AB
:103E3000558C171700001307670C0A043A941C40AE
:103E400033493901BA97828701491307F00FB70741
:103E5000400013959700F250625493177701258123
:103E60007E095D8D33652501D2544259B259225ADB
:103E7000925A025BF24B216182801307F00F814757
:103E8000C9BFA68ACE8B368B8947630BFB1A8D4739
:103E9000E30CFBFA8547630AFB0A1307FA0713F9D9
:103EA0001B006357E01293F77A0099C793F7FA0063
:103EB00091466383D700910A93974A0063D907001C
:103EC000B70700F8FD17B3FAFA0013070A089307BB
:103ED000E00FE3C4E7FA93976A00A5831377F70F1F
:103EE0008DBFB9E48546A9B763940A021144014A1B
:103EF000054BC5BD63990A002144130AF00F094B15
:103F0000CDB58D4631B73144130AF00F0D4BD1BDFD
:103F100056852EC6EF0070319307B5FFB39AFA00AD
:103F20009307A0F8338AA7400144014BB24555BD21
:103F30002685EF00902F1307B5FFB307AA00B394AF
:103F4000E400138A67078146E1B513F91B000147B6
:103F5000814701B74166139554007D1693570501BB
:103F6000698E63FA9A0AB3D5FA027D1AD68601479A
:103F70003388C502B3F6F602C206558F637B07018C
:103F80002A979386F5FF6368A70A6376070BF915EE
:103F90002A9733070741B356F7023377F702B38AFC
:103FA000C6029317070163FB5701AA971387F6FF11
:103FB00063E1A70863FF5707F916AA97C205B38AFA
:103FC0005741D58DB33A5001B3EA5501CA8BF1B5CB
:103FD0008546998E11C76D4601478147E34BD6E66A
:103FE000130AEA09339A4A01B3D7DA00B33A400117
:103FF000B3E7570113F7770019C713F7F700914696
:104000006303D700910713975700634807029A0785
:10401000A58301473DBD93D61A00B3D5F602139789
:10402000FA0141833388C502B1B7CE8B368B814A02
:10403000A1BDBA8661B7B685A9BF0547814711BD45
:1040400013F91B001307F00F814721B59356750133
:10405000B7078000FD1713D6750193F6F60F130806
:10406000F00FB3F8A7001357F501ED8F1376F60F95
:10407000FD8163810603630C06018DE211E2B1C389
:10408000638E08026305B70405451DE78280F5D7F6
:1040900079558280E39E08FE6309D60211E2EDD7CE
:1040A000E314B7FEE342D6FE63C7C600E3EE17FD96
:1040B0000145E3FDF8FC01E77D558280F5DD05450E
:1040C00082800145E39208FC8280F9DBD1B781460A
:1040D000E1BF93567501B7078000FD1713D6750130
:1040E00093F6F60F1308F00FB3F8A7001357F50176
:1040F000ED8F1376F60FFD816387060363090601D2
:1041000085EA11EA89EB0145639B08008280094535
:10411000F5FFE5DA31A8638C08026300B7040545B2
:1041200075D77D5582800945639808026304D602DD
:1041300011E2F5D7E315B7FEE343D6FE63C7C60029
:10414000E3EF17FD0145E3F3F8FC19E3D9BFF1D91B
:1041500005458280E5D3828082808146C5B779712A
:1041600022D4135475014ECE52CC9319950006D625
:1041700026D24AD056CA5AC81374F40F93D999005C
:10418000135AF50169C49307F00F6308F40E93976F
:10419000390037070004B3E9E700130414F8814439
:1041A000014B13D77501939A95001377F70F93DAA4
:1041B0009A0013D9F50145CF9307F00F630CF7026E
:1041C0008E0A130717F8B7070004B3EAFA003A9407
:1041D000014633452A01BD47AA869305140063E0D2
:1041E000971017170000130767D58A04BA949C40EC
:1041F000BA9782871304F40F63960A0C93E42400A1
:104200000946C1BF01451307F00FB7074000B25080
:104210002254A6075E07A5837E05D98F92540259C2
:10422000F249624AD24A424B5D8D45618280CA861C
:10423000D689328B8947630FFB088D47E304FBFC6B
:10424000854736856310FB1A01478147C9B7639DCF
:10425000090413D77501939A95001377F70F9144CA
:104260000144054B93DA9A0013D9F50131F7639DA8
:104270000A0093E414000546A9BF63920902A14411
:104280001304F00F094B31BF568545279307B5FF3F
:10429000098CB39AFA001304A4F801461DBFB14477
:1042A0001304F00F0D4BF5BD4E852EC6BD2F9307A1
:1042B000B5FF1304A0F8B399F900098C8144014BB0
:1042C000B245C5B593E434000D4621B78947D2867F
:1042D000E315FBF636851307F00F81470DBF4163E9
:1042E0009306F3FF13D6090193D80A01B3F7D90057
:1042F000B3FADA0033885703B389F8021357080179
:10430000B30A5603D6994E973306160363735701C3
:104310001A96C167FD17B376F7003378F800C20626
:10432000C2969399660093570701B3393001E98229
:10433000B2979A07B3E6D900B3E9D700939749003B
:1043400063D9070013D7190093F71900B369F70071
:104350002E841307F4076350E00493F7790099C79C
:1043600093F7F90091466383D70091099397490029
:1043700063D90700B70700F8FD17B3F9F900130771
:1043800004089307E00F63CBE70493976900A583C4
:104390001377F70FADBD8547B386E74011C76D466C
:1043A00001478147E345D6E61307E4093397E9005F
:1043B0003337E000B3D7D900D98F13F7770019C787
:1043C00013F7F70091466303D7009107139757003F
:1043D000634C07009A07A583014715BD1307F00F2B
:1043E000814735B52E84B5B7054781470DB53707E9
:1043F000800041117D179356750113D87501B3776D
:10440000A70093F6F60F935EF5013376B70026C248
:104410004AC01378F80F06C622C41303F00F3E8E6D
:104420003689F684139F3700FD8113153600B38853
:1044300006416302681093C51500638CBE10635477
:10444000100D631008106304051EFD18B307AF407C
:10445000638608029307F00F6388F616ED4763C77B
:10446000172913070002330717413317E500B35725
:1044700015013337E000D98FB307FF40139757007A
:104480006351071A370400047D147D8C2285712B3B
:104490006D15B317A400634E251B33052541130486
:1044A000150013070002018F3397E7003337E00050
:1044B000B3D78700D98F014913F7770019C713F7CE
:1044C000F70091466303D700910713975700635E87
:1044D0000714930619001307F00F93FE1400638668
:1044E000E6169A07A58393F6F60FA607B240224474
:1044F00013D59700DE069397FE01558D924402492D
:104500005D8D410182806392080A1387160013773C
:10451000E70F631B07146394062263020F2071D513
:10452000B307AF401397570063550722B307E54120
:104530000149AE8451B7E30005F0638ABE0AE35433
:1045400010FD9307F00F6381F608B70700045D8D37
:1045500031B7635E1009630108089307F00F6385A4
:10456000F606B70700045D8DED4763C0171F1307FC
:104570000002330717413317E500B35715013337EE
:10458000E000D98FFA9713975700635C0708050975
:104590001307F00F630BE90AB706007E13D7170065
:1045A000FD16858B758FD98F01BF3307D840639572
:1045B0000610630D0F147D176303071A9307F00F9E
:1045C0006314F810AE84328E630F0E06814E93068C
:1045D000F00FB707400011BF39C9FD18B307AF008E
:1045E000E38308FA9307F00FE390F6F8F1BF6399BD
:1045F0000808138916001377E90F63160712639BE7
:10460000061063030F16E30205EEB307AF0013971E
:104610005700014963570700370700FC7D17F98FE2
:10462000054913F77700E31C07E813DE370093070B
:10463000F00FE30BF9F893179E00A5839376F90F1B
:1046400093FE14005DB593FE14009306F00F8147AE
:1046500069BD370700FC7D17F98F13F77700330921
:10466000A940E31E07E4D1B73304AF4093175400C9
:1046700063C3070CE31C04E0814E81468147B5B556
:104680003307D840B5C69307F00FE30EF8F2B7072B
:104690000004336FFF00ED4763CDE70C9307000282
:1046A000998FB317FF003357EF00B337F0005D8FDA
:1046B000B307A7004289C1BD9307F00FE304F8F0E8
:1046C000B7070004336FFF00ED4763C2E7089307A5
:1046D0000002998FB317FF003357EF00B337F00094
:1046E000D98FB307F5404289AE8449BB854769B38A
:1046F000630E0F067D17B307AF004289E30507E895
:104700009307F00FE319F8F8328E7DBD328E42899F
:10471000AE8431BFE3090FEAE30805EA45BD0DCDDC
:10472000AE8EB287D9B39307F00FE300F9F2B30767
:10473000AF008583FDB53304E541AE8481BBE31D45
:104740000FFCE30505E8AE84BDBD854725BD854763
:1047500049BF0149E39707EC814E814779B3B3071D
:10476000E5414289AE8419BBB28741B3328E42899A
:104770007DBD054735BF93567501B7078000FD170E
:1047800013D6750193F6F60F1308F00F33F7A70051
:104790001376F60FED8F638B06011307F00F0145BB
:1047A0006303E60082803335F0008280054575D7CB
:1047B000828037068000135775019307F6FF137741
:1047C000F70F9305E007B3F6A7009357F50163FCD5
:1047D000E5009305D00963FAE5003705008013452D
:1047E000F5FF3E9582800145828093055009D18E68
:1047F00063CDE500130660093307E64033D7E600D2
:104800003305E040F5F33A8582801307A7F6339726
:10481000E600FDB7135775011377F70F41119307A2
:10482000170022C426C21314950006C693F7E70F9B
:1048300025809354F50185C7935734001307073833
:104840007604B2075207B1831395F401D98FC98F4B
:10485000B240228522449244BE854101828005EB0C
:1048600039C42285D922A94763C6A7042D47098FD9
:10487000930755013357E4003314F4009317C7002E
:1048800013079038098FB1831377F77F5DBF01CC91
:1048900013573400B7070800D98FB2077604B183E5
:1048A0001307F07F79BF1307F07F814759BF014796
:1048B000814741BF130755FF3317E40001447DBF13
:1048C00093D645019397C50093F6F67FB18313867F
:1048D00016008E071357D5011376E67FFD815D8F95
:1048E0009318350035CE138806C89307E00F63DDB3
:1048F00007018147139597009306F00FDE06258187
:10490000FE05558D4D8D82806355000B9317650014
:104910000E07B337F000D98F93D8D801B3E717014A
:1049200013F777006301071013F7F700914663034D
:10493000D7009107370700047D8F75C7130718004C
:104940001306F00F9376F70FE305C7FA9A07A583CE
:1049500013959700DE062581FE05558D4D8D8280CD
:10496000B367170199EE85CF95479A07A5831395ED
:10497000970093F6F60FDE062581FE05558D4D8DC9
:104980008280A5DBB7074000139597009306F00FD0
:10499000DE0681452581FE05558D4D8D828081473E
:1049A000139597008146DE062581FE05558D4D8DB8
:1049B0008280A5576348F804F94737068000B3871B
:1049C00007417D45598E6351F504795733070741F7
:1049D000130500023357E6006388A700938626CAB2
:1049E000B316D600B3E8D800B3371001D98F13F748
:1049F0007700014815FB139757008546E34807F4F5
:104A00008146A5B781468DB7938626C83397D800CF
:104A10003337E000B316D600B3D8F800B367D70039
:104A2000B3E7F800E9B7C28689B7C167637CF502CE
:104A30009307F00F1307000263EBA700970700002E
:104A40009387C753AA9788233305A7408280218183
:104A50009707000093878752AA97882361473305F9
:104A6000A7408280B7070001636DF5006181970759
:104A700000009387A750AA97882321473305A740B2
:104A800082804181970700009387474FAA97882328
:104A900041473305A74082809387C1828843828043
:104AA0000000F04153797374656D436C6B3A256473
:104AB0000D0A00004368697049443A253038780D82
:104AC0000A0000005478204D6F64650D000000005E
:104AD000182D4454FB210940182D4454FB21F93F63
:104AE000000000000000F07FBFAACABCCBD1CBF70A
:104AF000CBF9D3D0BFC9C4DCB5C4BDE22E2E2E0D78
:104B000000000000CBD1CBF7CDEAB3C9A3A10D00C3
:104B1000D7DCB9B2D5D2B5BD20256420B8F6BDE248
:104B2000BEF6B7BDB0B80D0A00000000D6B4D0D0B4
:104B3000D7EED3C5BDE23A204A313D252E33662C4F
:104B4000204A323D252E33662C204A333D252E3314
:104B5000662C204A343D252E33662028CEF3B2EE53
:104B60003D252E3666290D0A00000000CEB4D5D2B0
:104B7000B5BDC2FAD7E3CCF5BCFEB5C4BDE20D00AD
:104B8000EFFF7FBF50C77FBF1E707DBFB49078BF5F
:104B9000763571BF437167BF145D5BBFC6174DBFEC
:104BA000DAC53CBF10912ABF00A816BF963D01BFD1
:104BB0003811D5BE2386A5BEA4A768BEAEEF03BE3E
:104BC000D734EFBC8FDE903DD40B2E3EA1F5883E4E
:104BD000FD86B93EBC3DE83E3B510A3FD5211F3F13
:104BE000645B323FAFCC433F3849533F48A9603FF5
:104BF000A7CA6B3FF790743FACE57A3F95B87E3F0C
:104C0000098A7F3F1FD97C3F8CD8773FF790743F4C
:104C1000A7CA6B3F48A9603F3849533FAFCC433FD9
:104C2000645B323FD5211F3F3B510A3FBC3DE83E0C
:104C3000FD86B93EA1F5883ED40B2E3E8FDE903D19
:104C4000D734EFBCAEEF03BEA4A768BE2386A5BED3
:104C50003811D5BE963D01BF00A816BF10912ABFDE
:104C6000DAC53CBFC6174DBF145D5BBF437167BF5C
:104C7000763571BFB49078BF1E707DBFEFFF7FBFE8
:104C8000C3F548C00AD7434036CCD0BAC3F5484034
:104C9000CDCCCC3D0000003FD00FC940D00F4940E3
:104CA000D00F49C036CCD0BAD7502ABDC38110BE70
:104CB000B1FD74BE8C83ABBE8DD1DABEE0F703BF0D
:104CC000763519BF25EB2CBF86E63EBF98F94EBF5F
:104CD00044FB5CBFB0C768BFB84072BF1A4E79BF13
:104CE000C2DD7DBF15E47FBFD55B7FBF74467CBF4F
:104CF000BDAB76BF1C9A6EBF242664BFA56A57BFA2
:104D00001E8848BFA5A437BF79EB24BF618C10BFB4
:104D10005377F5BECC61C7BE664E97BEE36F4BBE00
:104D20003E75CCBD000000003E75CC3DE36F4B3EB0
:104D3000664E973ECC61C73E5377F53E618C103F7F
:104D400079EB243FA5A4373F1E88483FA56A573F0B
:104D50002426643F1C9A6E3FBDAB763F74467C3F71
:104D6000D55B7F3F15E47F3FC2DD7D3F1A4E793F23
:104D7000B840723FB0C7683F44FB5C3F98F94E3F74
:104D800086E63E3F25EB2C3F7635193FE0F7033FA3
:104D90008DD1DA3E8C83AB3EB1FD743EC381103EB3
:104DA0007371727466000000DB0FC93FDB0F49406E
:104DB000DB0F49C000000080DB0FC9BFE4CB164009
:104DC000E4CB16C0DB0F493FDB0F49BF2EBDBB3321
:104DD000CAF249710000803F000000400000C03F5F
:104DE000000080BFD769853C59DA4B3D356B883D63
:104DF0006E2EBA3D2549123EABAAAA3E21A215BD90
:104E00006BF16E3D95879D3D388EE33DCDCC4C3E9C
:104E10003863ED3EDA0F493F5E987B3FDA0FC93FBA
:104E20006937AC3168212233B40F14336821A233BF
:104E3000286E756C6C29000068D9FFFFECD7FFFF66
:104E4000FCD8FFFF04D9FFFFFCD8FFFF1CD8FFFFF1
:104E5000FCD8FFFF04D9FFFFECD7FFFFECD7FFFF23
:104E60001CD8FFFF04D9FFFF5ED9FFFF5ED9FFFF0B
:104E70005ED9FFFF1CD8FFFF60DFFFFF52DEFFFFA0
:104E800052DEFFFF50DEFFFF58DEFFFF58DEFFFF60
:104E90001EDEFFFF50DEFFFF58DEFFFF1EDEFFFFBE
:104EA00058DEFFFF50DEFFFF4CDFFFFF4CDFFFFF50
:104EB0004CDFFFFF1EDEFFFF9CF0FFFFC2EFFFFF96
:104EC00096F0FFFFCAEFFFFF96F0FFFF90EFFFFFA6
:104ED00096F0FFFFCAEFFFFFC2EFFFFFC2EFFFFF39
:104EE00090EFFFFFCAEFFFFFD0EFFFFFD0EFFFFF14
:104EF000D0EFFFFF90EFFFFF82EFFFFF82EFFFFF9A
:104F000056F0FFFF32F1FFFF56F0FFFF50EFFFFFBB
:104F100056F0FFFF32F1FFFF82EFFFFF82EFFFFF4E
:104F200050EFFFFF32F1FFFF90EFFFFF90EFFFFF29
:104F300090EFFFFF50EFFFFFA6F3FFFFF8F2FFFF38
:104F4000F8F2FFFFF6F2FFFFFCF2FFFFFCF2FFFFBB
:104F5000CCF2FFFFF6F2FFFFFCF2FFFFCCF2FFFF07
:104F6000FCF2FFFFF6F2FFFF94F3FFFF94F3FFFF65
:104F700094F3FFFFCCF2FFFF0001020203030303DF
:104F800004040404040404040505050505050505D9
:104F900005050505050505050606060606060606B9
:104FA00006060606060606060606060606060606A1
:104FB0000606060606060606070707070707070789
:104FC0000707070707070707070707070707070771
:104FD0000707070707070707070707070707070761
:104FE0000707070707070707070707070707070751
:104FF0000707070707070707080808080808080839
:105000000808080808080808080808080808080820
:105010000808080808080808080808080808080810
:105020000808080808080808080808080808080800
:1050300008080808080808080808080808080808F0
:1050400008080808080808080808080808080808E0
:1050500008080808080808080808080808080808D0
:1050600008080808080808080808080808080808C0
:085070000808080808080808F8
:105078000000000000000000010203040607080900
:1050880000000000010203040102030406070809E6
:105098000000000000000000000000000000000008
:1050A80000000000000000000000000000000000F8
:1050B80000000000000000000000000000000000E8
:1050C80000000000000000000000000000000000D8
:1050D80000000000000000000000000000000000C8
:1050E80000000000000000000000000000000000B8
:1050F800000080410000C04100002042000018412B
:105108000200000000002041CDCCCC3D0000204032
:1051180000D8B8050204060801000000200000209D
:00000001FF
